{
  "_format": "hh-sol-artifact-1",
  "contractName": "Auction",
  "sourceName": "src/contracts/Auction.sol",
  "abi": [
    {
      "inputs": [
        {
          "internalType": "uint8",
          "name": "_royaltyFee",
          "type": "uint8"
        }
      ],
      "stateMutability": "nonpayable",
      "type": "constructor"
    },
    {
      "anonymous": false,
      "inputs": [
        {
          "indexed": true,
          "internalType": "address",
          "name": "owner",
          "type": "address"
        },
        {
          "indexed": true,
          "internalType": "address",
          "name": "approved",
          "type": "address"
        },
        {
          "indexed": true,
          "internalType": "uint256",
          "name": "tokenId",
          "type": "uint256"
        }
      ],
      "name": "Approval",
      "type": "event"
    },
    {
      "anonymous": false,
      "inputs": [
        {
          "indexed": true,
          "internalType": "address",
          "name": "owner",
          "type": "address"
        },
        {
          "indexed": true,
          "internalType": "address",
          "name": "operator",
          "type": "address"
        },
        {
          "indexed": false,
          "internalType": "bool",
          "name": "approved",
          "type": "bool"
        }
      ],
      "name": "ApprovalForAll",
      "type": "event"
    },
    {
      "anonymous": false,
      "inputs": [
        {
          "indexed": false,
          "internalType": "uint256",
          "name": "indexedtokenId",
          "type": "uint256"
        },
        {
          "indexed": false,
          "internalType": "address",
          "name": "seller",
          "type": "address"
        },
        {
          "indexed": false,
          "internalType": "address",
          "name": "owner",
          "type": "address"
        },
        {
          "indexed": false,
          "internalType": "uint256",
          "name": "price",
          "type": "uint256"
        },
        {
          "indexed": false,
          "internalType": "bool",
          "name": "sold",
          "type": "bool"
        }
      ],
      "name": "AuctionItemCreated",
      "type": "event"
    },
    {
      "anonymous": false,
      "inputs": [
        {
          "indexed": false,
          "internalType": "uint256",
          "name": "_fromTokenId",
          "type": "uint256"
        },
        {
          "indexed": false,
          "internalType": "uint256",
          "name": "_toTokenId",
          "type": "uint256"
        }
      ],
      "name": "BatchMetadataUpdate",
      "type": "event"
    },
    {
      "anonymous": false,
      "inputs": [
        {
          "indexed": false,
          "internalType": "uint256",
          "name": "_tokenId",
          "type": "uint256"
        }
      ],
      "name": "MetadataUpdate",
      "type": "event"
    },
    {
      "anonymous": false,
      "inputs": [
        {
          "indexed": true,
          "internalType": "address",
          "name": "from",
          "type": "address"
        },
        {
          "indexed": true,
          "internalType": "address",
          "name": "to",
          "type": "address"
        },
        {
          "indexed": true,
          "internalType": "uint256",
          "name": "tokenId",
          "type": "uint256"
        }
      ],
      "name": "Transfer",
      "type": "event"
    },
    {
      "inputs": [
        {
          "internalType": "address",
          "name": "to",
          "type": "address"
        },
        {
          "internalType": "uint256",
          "name": "tokenId",
          "type": "uint256"
        }
      ],
      "name": "approve",
      "outputs": [],
      "stateMutability": "nonpayable",
      "type": "function"
    },
    {
      "inputs": [
        {
          "internalType": "address",
          "name": "owner",
          "type": "address"
        }
      ],
      "name": "balanceOf",
      "outputs": [
        {
          "internalType": "uint256",
          "name": "",
          "type": "uint256"
        }
      ],
      "stateMutability": "view",
      "type": "function"
    },
    {
      "inputs": [
        {
          "internalType": "string",
          "name": "_name",
          "type": "string"
        },
        {
          "internalType": "string",
          "name": "_description",
          "type": "string"
        },
        {
          "internalType": "string",
          "name": "_image",
          "type": "string"
        },
        {
          "internalType": "string",
          "name": "_tokenURI",
          "type": "string"
        },
        {
          "internalType": "uint256",
          "name": "_price",
          "type": "uint256"
        }
      ],
      "name": "createAuction",
      "outputs": [],
      "stateMutability": "payable",
      "type": "function"
    },
    {
      "inputs": [
        {
          "internalType": "uint256",
          "name": "tokenId",
          "type": "uint256"
        }
      ],
      "name": "getApproved",
      "outputs": [
        {
          "internalType": "address",
          "name": "",
          "type": "address"
        }
      ],
      "stateMutability": "view",
      "type": "function"
    },
    {
      "inputs": [
        {
          "internalType": "address",
          "name": "owner",
          "type": "address"
        },
        {
          "internalType": "address",
          "name": "operator",
          "type": "address"
        }
      ],
      "name": "isApprovedForAll",
      "outputs": [
        {
          "internalType": "bool",
          "name": "",
          "type": "bool"
        }
      ],
      "stateMutability": "view",
      "type": "function"
    },
    {
      "inputs": [],
      "name": "name",
      "outputs": [
        {
          "internalType": "string",
          "name": "",
          "type": "string"
        }
      ],
      "stateMutability": "view",
      "type": "function"
    },
    {
      "inputs": [
        {
          "internalType": "uint256",
          "name": "tokenId",
          "type": "uint256"
        }
      ],
      "name": "ownerOf",
      "outputs": [
        {
          "internalType": "address",
          "name": "",
          "type": "address"
        }
      ],
      "stateMutability": "view",
      "type": "function"
    },
    {
      "inputs": [
        {
          "internalType": "address",
          "name": "from",
          "type": "address"
        },
        {
          "internalType": "address",
          "name": "to",
          "type": "address"
        },
        {
          "internalType": "uint256",
          "name": "tokenId",
          "type": "uint256"
        }
      ],
      "name": "safeTransferFrom",
      "outputs": [],
      "stateMutability": "nonpayable",
      "type": "function"
    },
    {
      "inputs": [
        {
          "internalType": "address",
          "name": "from",
          "type": "address"
        },
        {
          "internalType": "address",
          "name": "to",
          "type": "address"
        },
        {
          "internalType": "uint256",
          "name": "tokenId",
          "type": "uint256"
        },
        {
          "internalType": "bytes",
          "name": "data",
          "type": "bytes"
        }
      ],
      "name": "safeTransferFrom",
      "outputs": [],
      "stateMutability": "nonpayable",
      "type": "function"
    },
    {
      "inputs": [
        {
          "internalType": "address",
          "name": "operator",
          "type": "address"
        },
        {
          "internalType": "bool",
          "name": "approved",
          "type": "bool"
        }
      ],
      "name": "setApprovalForAll",
      "outputs": [],
      "stateMutability": "nonpayable",
      "type": "function"
    },
    {
      "inputs": [
        {
          "internalType": "bytes4",
          "name": "interfaceId",
          "type": "bytes4"
        }
      ],
      "name": "supportsInterface",
      "outputs": [
        {
          "internalType": "bool",
          "name": "",
          "type": "bool"
        }
      ],
      "stateMutability": "view",
      "type": "function"
    },
    {
      "inputs": [],
      "name": "symbol",
      "outputs": [
        {
          "internalType": "string",
          "name": "",
          "type": "string"
        }
      ],
      "stateMutability": "view",
      "type": "function"
    },
    {
      "inputs": [
        {
          "internalType": "uint256",
          "name": "tokenId",
          "type": "uint256"
        }
      ],
      "name": "tokenURI",
      "outputs": [
        {
          "internalType": "string",
          "name": "",
          "type": "string"
        }
      ],
      "stateMutability": "view",
      "type": "function"
    },
    {
      "inputs": [
        {
          "internalType": "address",
          "name": "from",
          "type": "address"
        },
        {
          "internalType": "address",
          "name": "to",
          "type": "address"
        },
        {
          "internalType": "uint256",
          "name": "tokenId",
          "type": "uint256"
        }
      ],
      "name": "transferFrom",
      "outputs": [],
      "stateMutability": "nonpayable",
      "type": "function"
    }
  ],
  "bytecode": "0x608060405266470de4df820000600a553480156200001b575f80fd5b5060405162001ebb38038062001ebb8339810160408190526200003e91620000c9565b604051806040016040528060078152602001664372656174436f60c81b8152506040518060400160405280600381526020016210d49560ea1b815250815f90816200008a919062000190565b50600162000099828262000190565b50506001600755506009805460ff929092166001600160a81b03199092169190911761010033021790556200025c565b5f60208284031215620000da575f80fd5b815160ff81168114620000eb575f80fd5b9392505050565b634e487b7160e01b5f52604160045260245ffd5b600181811c908216806200011b57607f821691505b6020821081036200013a57634e487b7160e01b5f52602260045260245ffd5b50919050565b601f8211156200018b57805f5260205f20601f840160051c81016020851015620001675750805b601f840160051c820191505b8181101562000188575f815560010162000173565b50505b505050565b81516001600160401b03811115620001ac57620001ac620000f2565b620001c481620001bd845462000106565b8462000140565b602080601f831160018114620001fa575f8415620001e25750858301515b5f19600386901b1c1916600185901b17855562000254565b5f85815260208120601f198616915b828110156200022a5788860151825594840194600190910190840162000209565b50858210156200024857878501515f19600388901b60f8161c191681555b505060018460011b0185555b505050505050565b611c51806200026a5f395ff3fe6080604052600436106100d9575f3560e01c80636352211e1161007c578063a22cb46511610057578063a22cb4651461023b578063b88d4fde1461025a578063c87b56dd14610279578063e985e9c514610298575f80fd5b80636352211e146101db57806370a08231146101fa57806395d89b4114610227575f80fd5b8063095ea7b3116100b7578063095ea7b31461016957806323b872dd1461018a57806333748dcb146101a957806342842e0e146101bc575f80fd5b806301ffc9a7146100dd57806306fdde0314610111578063081812fc14610132575b5f80fd5b3480156100e8575f80fd5b506100fc6100f73660046115df565b6102b7565b60405190151581526020015b60405180910390f35b34801561011c575f80fd5b506101256102e1565b6040516101089190611647565b34801561013d575f80fd5b5061015161014c366004611659565b610370565b6040516001600160a01b039091168152602001610108565b348015610174575f80fd5b5061018861018336600461168b565b610395565b005b348015610195575f80fd5b506101886101a43660046116b3565b6104ae565b6101886101b7366004611791565b6104df565b3480156101c7575f80fd5b506101886101d63660046116b3565b6108f5565b3480156101e6575f80fd5b506101516101f5366004611659565b61090f565b348015610205575f80fd5b5061021961021436600461183e565b61096e565b604051908152602001610108565b348015610232575f80fd5b506101256109f2565b348015610246575f80fd5b50610188610255366004611857565b610a01565b348015610265575f80fd5b50610188610274366004611890565b610a10565b348015610284575f80fd5b50610125610293366004611659565b610a48565b3480156102a3575f80fd5b506100fc6102b2366004611907565b610b52565b5f6001600160e01b03198216632483248360e11b14806102db57506102db82610b7f565b92915050565b60605f80546102ef90611938565b80601f016020809104026020016040519081016040528092919081815260200182805461031b90611938565b80156103665780601f1061033d57610100808354040283529160200191610366565b820191905f5260205f20905b81548152906001019060200180831161034957829003601f168201915b5050505050905090565b5f61037a82610bce565b505f908152600460205260409020546001600160a01b031690565b5f61039f8261090f565b9050806001600160a01b0316836001600160a01b0316036104115760405162461bcd60e51b815260206004820152602160248201527f4552433732313a20617070726f76616c20746f2063757272656e74206f776e656044820152603960f91b60648201526084015b60405180910390fd5b336001600160a01b038216148061042d575061042d8133610b52565b61049f5760405162461bcd60e51b815260206004820152603d60248201527f4552433732313a20617070726f76652063616c6c6572206973206e6f7420746f60448201527f6b656e206f776e6572206f7220617070726f76656420666f7220616c6c0000006064820152608401610408565b6104a98383610c2f565b505050565b6104b83382610c9c565b6104d45760405162461bcd60e51b815260040161040890611970565b6104a9838383610cf9565b6104e7610e5b565b5f81116105365760405162461bcd60e51b815260206004820152601e60248201527f546869732073616c657320707269636573206973206e6f742076616c696400006044820152606401610408565b600a543410156105995760405162461bcd60e51b815260206004820152602860248201527f5072696365206d7573742062652067726561746572207468616e206c697374696044820152676e6720707269636560c01b6064820152608401610408565b5f8551116105e05760405162461bcd60e51b81526020600482015260146024820152736e616d652063616e6e6f7420626520656d70747960601b6044820152606401610408565b5f8451116106305760405162461bcd60e51b815260206004820152601b60248201527f6465736372697074696f6e2063616e6e6f7420626520656d70747900000000006044820152606401610408565b5f8351116106805760405162461bcd60e51b815260206004820152601760248201527f696d616765206d757374206265207370656369666965640000000000000000006044820152606401610408565b61068982610eb4565b6106cc5760405162461bcd60e51b815260206004820152601460248201527321b7bab632103737ba1036b4b73a103a37b5b2b760611b6044820152606401610408565b600854604080516101a0810182525f6080820181905260a0820181905260c0820181905261010082018190526101208201819052610140820181905261016082018190526101808201819052606082018490528882526020820188905291810186905260e081018490529061074390808080610eec565b610180820152336080820181905260a08201525f828152600b60205260409020815182919081906107749082611a01565b50602082015160018201906107899082611a01565b506040820151600282019061079e9082611a01565b506060820151600382015560808201516004820180546001600160a01b03199081166001600160a01b039384161790915560a0840151600584018054831691841691909117905560c084015160068401805490921690831617905560e083015160078301556101008084015160088401805461012087015161014088015161ffff1990921693151561ff0019169390931792151584029290921762ff00001916620100009215159290920291909117905561016084015160098085019190915561018090940151600a909301929092555f858152600c60205260409020805460ff191660011790559154610896929190041634610f4d565b604080518381523360208201525f81830181905260608201869052608082015290517fa693a8f68fe4df789541ddd1b84d32ccaea90adddcc88406b4bbbf6466328d3c9181900360a00190a150506108ee6001600755565b5050505050565b6104a983838360405180602001604052805f815250610a10565b5f818152600260205260408120546001600160a01b0316806102db5760405162461bcd60e51b8152602060048201526018602482015277115490cdcc8c4e881a5b9d985b1a59081d1bdad95b88125160421b6044820152606401610408565b5f6001600160a01b0382166109d75760405162461bcd60e51b815260206004820152602960248201527f4552433732313a2061646472657373207a65726f206973206e6f7420612076616044820152683634b21037bbb732b960b91b6064820152608401610408565b506001600160a01b03165f9081526003602052604090205490565b6060600180546102ef90611938565b610a0c338383610fa8565b5050565b610a1a3383610c9c565b610a365760405162461bcd60e51b815260040161040890611970565b610a4284848484611075565b50505050565b6060610a5382610bce565b5f8281526006602052604081208054610a6b90611938565b80601f0160208091040260200160405190810160405280929190818152602001828054610a9790611938565b8015610ae25780601f10610ab957610100808354040283529160200191610ae2565b820191905f5260205f20905b815481529060010190602001808311610ac557829003601f168201915b505050505090505f610afe60408051602081019091525f815290565b905080515f03610b0f575092915050565b815115610b41578082604051602001610b29929190611ac1565b60405160208183030381529060405292505050919050565b610b4a846110a8565b949350505050565b6001600160a01b039182165f90815260056020908152604080832093909416825291909152205460ff1690565b5f6001600160e01b031982166380ac58cd60e01b1480610baf57506001600160e01b03198216635b5e139f60e01b145b806102db57506301ffc9a760e01b6001600160e01b03198316146102db565b5f818152600260205260409020546001600160a01b0316610c2c5760405162461bcd60e51b8152602060048201526018602482015277115490cdcc8c4e881a5b9d985b1a59081d1bdad95b88125160421b6044820152606401610408565b50565b5f81815260046020526040902080546001600160a01b0319166001600160a01b0384169081179091558190610c638261090f565b6001600160a01b03167f8c5be1e5ebec7d5bd14f71427d1e84f3dd0314c0f7b2291e5b200ac8c7c3b92560405160405180910390a45050565b5f80610ca78361090f565b9050806001600160a01b0316846001600160a01b03161480610cce5750610cce8185610b52565b80610b4a5750836001600160a01b0316610ce784610370565b6001600160a01b031614949350505050565b826001600160a01b0316610d0c8261090f565b6001600160a01b031614610d325760405162461bcd60e51b815260040161040890611aef565b6001600160a01b038216610d945760405162461bcd60e51b8152602060048201526024808201527f4552433732313a207472616e7366657220746f20746865207a65726f206164646044820152637265737360e01b6064820152608401610408565b826001600160a01b0316610da78261090f565b6001600160a01b031614610dcd5760405162461bcd60e51b815260040161040890611aef565b5f81815260046020908152604080832080546001600160a01b03199081169091556001600160a01b038781168086526003855283862080545f1901905590871680865283862080546001019055868652600290945282852080549092168417909155905184937fddf252ad1be2c89b69c2b068fc378daa952ba7f163c4a11628f55a4df523b3ef91a4505050565b600260075403610ead5760405162461bcd60e51b815260206004820152601f60248201527f5265656e7472616e637947756172643a207265656e7472616e742063616c6c006044820152606401610408565b6002600755565b5f600160085f828254610ec79190611b48565b9091555050600854610ed93382611118565b610ee381846112a0565b50600192915050565b5f610efa8262015180611b5b565b610f0684610e10611b5b565b610f1186603c611b5b565b610f1c886001611b5b565b610f269042611b48565b610f309190611b48565b610f3a9190611b48565b610f449190611b48565b95945050505050565b5f826001600160a01b0316826040515f6040518083038185875af1925050503d805f8114610f96576040519150601f19603f3d011682016040523d82523d5f602084013e610f9b565b606091505b50509050806104a9575f80fd5b816001600160a01b0316836001600160a01b0316036110095760405162461bcd60e51b815260206004820152601960248201527f4552433732313a20617070726f766520746f2063616c6c6572000000000000006044820152606401610408565b6001600160a01b038381165f81815260056020908152604080832094871680845294825291829020805460ff191686151590811790915591519182527f17307eab39ab6107e8899845ad3d59bd9653f200f220920489ca2b5937696c31910160405180910390a3505050565b611080848484610cf9565b61108c84848484611369565b610a425760405162461bcd60e51b815260040161040890611b72565b60606110b382610bce565b5f6110c860408051602081019091525f815290565b90505f8151116110e65760405180602001604052805f815250611111565b806110f084611463565b604051602001611101929190611ac1565b6040516020818303038152906040525b9392505050565b6001600160a01b03821661116e5760405162461bcd60e51b815260206004820181905260248201527f4552433732313a206d696e7420746f20746865207a65726f20616464726573736044820152606401610408565b5f818152600260205260409020546001600160a01b0316156111d25760405162461bcd60e51b815260206004820152601c60248201527f4552433732313a20746f6b656e20616c7265616479206d696e746564000000006044820152606401610408565b5f818152600260205260409020546001600160a01b0316156112365760405162461bcd60e51b815260206004820152601c60248201527f4552433732313a20746f6b656e20616c7265616479206d696e746564000000006044820152606401610408565b6001600160a01b0382165f81815260036020908152604080832080546001019055848352600290915280822080546001600160a01b0319168417905551839291907fddf252ad1be2c89b69c2b068fc378daa952ba7f163c4a11628f55a4df523b3ef908290a45050565b5f828152600260205260409020546001600160a01b031661131a5760405162461bcd60e51b815260206004820152602e60248201527f45524337323155524953746f726167653a2055524920736574206f66206e6f6e60448201526d32bc34b9ba32b73a103a37b5b2b760911b6064820152608401610408565b5f8281526006602052604090206113318282611a01565b506040518281527ff8e1a15aba9398e019f0b49df1a4fde98ee17ae345cb5f6b5e2c27f5033e8ce79060200160405180910390a15050565b5f6001600160a01b0384163b1561145b57604051630a85bd0160e11b81526001600160a01b0385169063150b7a02906113ac903390899088908890600401611bc4565b6020604051808303815f875af19250505080156113e6575060408051601f3d908101601f191682019092526113e391810190611c00565b60015b611441573d808015611413576040519150601f19603f3d011682016040523d82523d5f602084013e611418565b606091505b5080515f036114395760405162461bcd60e51b815260040161040890611b72565b805181602001fd5b6001600160e01b031916630a85bd0160e11b149050610b4a565b506001610b4a565b60605f61146f836114f3565b60010190505f8167ffffffffffffffff81111561148e5761148e6116ec565b6040519080825280601f01601f1916602001820160405280156114b8576020820181803683370190505b5090508181016020015b5f19016f181899199a1a9b1b9c1cb0b131b232b360811b600a86061a8153600a85049450846114c257509392505050565b5f8072184f03e93ff9f4daa797ed6e38ed64bf6a1f0160401b83106115315772184f03e93ff9f4daa797ed6e38ed64bf6a1f0160401b830492506040015b6d04ee2d6d415b85acef8100000000831061155d576d04ee2d6d415b85acef8100000000830492506020015b662386f26fc10000831061157b57662386f26fc10000830492506010015b6305f5e1008310611593576305f5e100830492506008015b61271083106115a757612710830492506004015b606483106115b9576064830492506002015b600a83106102db5760010192915050565b6001600160e01b031981168114610c2c575f80fd5b5f602082840312156115ef575f80fd5b8135611111816115ca565b5f5b838110156116145781810151838201526020016115fc565b50505f910152565b5f81518084526116338160208601602086016115fa565b601f01601f19169290920160200192915050565b602081525f611111602083018461161c565b5f60208284031215611669575f80fd5b5035919050565b80356001600160a01b0381168114611686575f80fd5b919050565b5f806040838503121561169c575f80fd5b6116a583611670565b946020939093013593505050565b5f805f606084860312156116c5575f80fd5b6116ce84611670565b92506116dc60208501611670565b9150604084013590509250925092565b634e487b7160e01b5f52604160045260245ffd5b5f67ffffffffffffffff8084111561171a5761171a6116ec565b604051601f8501601f19908116603f01168101908282118183101715611742576117426116ec565b8160405280935085815286868601111561175a575f80fd5b858560208301375f602087830101525050509392505050565b5f82601f830112611782575f80fd5b61111183833560208501611700565b5f805f805f60a086880312156117a5575f80fd5b853567ffffffffffffffff808211156117bc575f80fd5b6117c889838a01611773565b965060208801359150808211156117dd575f80fd5b6117e989838a01611773565b955060408801359150808211156117fe575f80fd5b61180a89838a01611773565b9450606088013591508082111561181f575f80fd5b5061182c88828901611773565b95989497509295608001359392505050565b5f6020828403121561184e575f80fd5b61111182611670565b5f8060408385031215611868575f80fd5b61187183611670565b915060208301358015158114611885575f80fd5b809150509250929050565b5f805f80608085870312156118a3575f80fd5b6118ac85611670565b93506118ba60208601611670565b925060408501359150606085013567ffffffffffffffff8111156118dc575f80fd5b8501601f810187136118ec575f80fd5b6118fb87823560208401611700565b91505092959194509250565b5f8060408385031215611918575f80fd5b61192183611670565b915061192f60208401611670565b90509250929050565b600181811c9082168061194c57607f821691505b60208210810361196a57634e487b7160e01b5f52602260045260245ffd5b50919050565b6020808252602d908201527f4552433732313a2063616c6c6572206973206e6f7420746f6b656e206f776e6560408201526c1c881bdc88185c1c1c9bdd9959609a1b606082015260800190565b601f8211156104a957805f5260205f20601f840160051c810160208510156119e25750805b601f840160051c820191505b818110156108ee575f81556001016119ee565b815167ffffffffffffffff811115611a1b57611a1b6116ec565b611a2f81611a298454611938565b846119bd565b602080601f831160018114611a62575f8415611a4b5750858301515b5f19600386901b1c1916600185901b178555611ab9565b5f85815260208120601f198616915b82811015611a9057888601518255948401946001909101908401611a71565b5085821015611aad57878501515f19600388901b60f8161c191681555b505060018460011b0185555b505050505050565b5f8351611ad28184602088016115fa565b835190830190611ae68183602088016115fa565b01949350505050565b60208082526025908201527f4552433732313a207472616e736665722066726f6d20696e636f72726563742060408201526437bbb732b960d91b606082015260800190565b634e487b7160e01b5f52601160045260245ffd5b808201808211156102db576102db611b34565b80820281158282048414176102db576102db611b34565b60208082526032908201527f4552433732313a207472616e7366657220746f206e6f6e20455243373231526560408201527131b2b4bb32b91034b6b83632b6b2b73a32b960711b606082015260800190565b6001600160a01b03858116825284166020820152604081018390526080606082018190525f90611bf69083018461161c565b9695505050505050565b5f60208284031215611c10575f80fd5b8151611111816115ca56fea2646970667358221220b5be28a15d1bf4045f4ebc9e03005f45724edbecabbf9a80daa3a5267df2481364736f6c63430008180033",
  "linkReferences": {},
  "deployedLinkReferences": {}
}