{
  "_format": "hh-sol-artifact-1",
  "contractName": "Auction",
  "sourceName": "src/contracts/Auction.sol",
  "abi": [
    {
      "inputs": [
        {
          "internalType": "uint8",
          "name": "_royaltyFee",
          "type": "uint8"
        }
      ],
      "stateMutability": "nonpayable",
      "type": "constructor"
    },
    {
      "inputs": [],
      "name": "UnAuthorized_Entity",
      "type": "error"
    },
    {
      "anonymous": false,
      "inputs": [
        {
          "indexed": true,
          "internalType": "address",
          "name": "owner",
          "type": "address"
        },
        {
          "indexed": true,
          "internalType": "address",
          "name": "approved",
          "type": "address"
        },
        {
          "indexed": true,
          "internalType": "uint256",
          "name": "tokenId",
          "type": "uint256"
        }
      ],
      "name": "Approval",
      "type": "event"
    },
    {
      "anonymous": false,
      "inputs": [
        {
          "indexed": true,
          "internalType": "address",
          "name": "owner",
          "type": "address"
        },
        {
          "indexed": true,
          "internalType": "address",
          "name": "operator",
          "type": "address"
        },
        {
          "indexed": false,
          "internalType": "bool",
          "name": "approved",
          "type": "bool"
        }
      ],
      "name": "ApprovalForAll",
      "type": "event"
    },
    {
      "anonymous": false,
      "inputs": [
        {
          "indexed": true,
          "internalType": "uint256",
          "name": "tokenId",
          "type": "uint256"
        },
        {
          "indexed": false,
          "internalType": "address",
          "name": "seller",
          "type": "address"
        },
        {
          "indexed": false,
          "internalType": "address",
          "name": "owner",
          "type": "address"
        },
        {
          "indexed": false,
          "internalType": "uint256",
          "name": "price",
          "type": "uint256"
        },
        {
          "indexed": false,
          "internalType": "bool",
          "name": "sold",
          "type": "bool"
        }
      ],
      "name": "AuctionItemCreated",
      "type": "event"
    },
    {
      "anonymous": false,
      "inputs": [
        {
          "indexed": false,
          "internalType": "uint256",
          "name": "_fromTokenId",
          "type": "uint256"
        },
        {
          "indexed": false,
          "internalType": "uint256",
          "name": "_toTokenId",
          "type": "uint256"
        }
      ],
      "name": "BatchMetadataUpdate",
      "type": "event"
    },
    {
      "anonymous": false,
      "inputs": [
        {
          "indexed": false,
          "internalType": "uint256",
          "name": "_tokenId",
          "type": "uint256"
        }
      ],
      "name": "MetadataUpdate",
      "type": "event"
    },
    {
      "anonymous": false,
      "inputs": [
        {
          "indexed": true,
          "internalType": "address",
          "name": "from",
          "type": "address"
        },
        {
          "indexed": true,
          "internalType": "address",
          "name": "to",
          "type": "address"
        },
        {
          "indexed": true,
          "internalType": "uint256",
          "name": "tokenId",
          "type": "uint256"
        }
      ],
      "name": "Transfer",
      "type": "event"
    },
    {
      "inputs": [
        {
          "internalType": "address",
          "name": "to",
          "type": "address"
        },
        {
          "internalType": "uint256",
          "name": "tokenId",
          "type": "uint256"
        }
      ],
      "name": "approve",
      "outputs": [],
      "stateMutability": "nonpayable",
      "type": "function"
    },
    {
      "inputs": [
        {
          "internalType": "uint256",
          "name": "",
          "type": "uint256"
        }
      ],
      "name": "auctionedItem",
      "outputs": [
        {
          "internalType": "string",
          "name": "name",
          "type": "string"
        },
        {
          "internalType": "string",
          "name": "description",
          "type": "string"
        },
        {
          "internalType": "string",
          "name": "image",
          "type": "string"
        },
        {
          "internalType": "uint256",
          "name": "tokenId",
          "type": "uint256"
        },
        {
          "internalType": "address",
          "name": "seller",
          "type": "address"
        },
        {
          "internalType": "address",
          "name": "owner",
          "type": "address"
        },
        {
          "internalType": "address",
          "name": "winner",
          "type": "address"
        },
        {
          "internalType": "uint256",
          "name": "price",
          "type": "uint256"
        },
        {
          "internalType": "bool",
          "name": "sold",
          "type": "bool"
        },
        {
          "internalType": "bool",
          "name": "live",
          "type": "bool"
        },
        {
          "internalType": "bool",
          "name": "biddable",
          "type": "bool"
        },
        {
          "internalType": "uint256",
          "name": "bids",
          "type": "uint256"
        },
        {
          "internalType": "uint256",
          "name": "duration",
          "type": "uint256"
        }
      ],
      "stateMutability": "view",
      "type": "function"
    },
    {
      "inputs": [
        {
          "internalType": "address",
          "name": "owner",
          "type": "address"
        }
      ],
      "name": "balanceOf",
      "outputs": [
        {
          "internalType": "uint256",
          "name": "",
          "type": "uint256"
        }
      ],
      "stateMutability": "view",
      "type": "function"
    },
    {
      "inputs": [
        {
          "internalType": "uint256",
          "name": "_tokenId",
          "type": "uint256"
        }
      ],
      "name": "buyAuctionedItem",
      "outputs": [],
      "stateMutability": "payable",
      "type": "function"
    },
    {
      "inputs": [
        {
          "internalType": "uint256",
          "name": "tokenId",
          "type": "uint256"
        },
        {
          "internalType": "uint256",
          "name": "price",
          "type": "uint256"
        }
      ],
      "name": "changePrice",
      "outputs": [],
      "stateMutability": "nonpayable",
      "type": "function"
    },
    {
      "inputs": [
        {
          "internalType": "uint256",
          "name": "_tokenId",
          "type": "uint256"
        },
        {
          "internalType": "uint256",
          "name": "_bidNo",
          "type": "uint256"
        }
      ],
      "name": "claimPrize",
      "outputs": [],
      "stateMutability": "nonpayable",
      "type": "function"
    },
    {
      "inputs": [
        {
          "internalType": "string",
          "name": "_name",
          "type": "string"
        },
        {
          "internalType": "string",
          "name": "_description",
          "type": "string"
        },
        {
          "internalType": "string",
          "name": "_image",
          "type": "string"
        },
        {
          "internalType": "string",
          "name": "_tokenURI",
          "type": "string"
        },
        {
          "internalType": "uint256",
          "name": "_price",
          "type": "uint256"
        }
      ],
      "name": "createAuction",
      "outputs": [],
      "stateMutability": "payable",
      "type": "function"
    },
    {
      "inputs": [],
      "name": "getAllAuctions",
      "outputs": [
        {
          "components": [
            {
              "internalType": "string",
              "name": "name",
              "type": "string"
            },
            {
              "internalType": "string",
              "name": "description",
              "type": "string"
            },
            {
              "internalType": "string",
              "name": "image",
              "type": "string"
            },
            {
              "internalType": "uint256",
              "name": "tokenId",
              "type": "uint256"
            },
            {
              "internalType": "address",
              "name": "seller",
              "type": "address"
            },
            {
              "internalType": "address",
              "name": "owner",
              "type": "address"
            },
            {
              "internalType": "address",
              "name": "winner",
              "type": "address"
            },
            {
              "internalType": "uint256",
              "name": "price",
              "type": "uint256"
            },
            {
              "internalType": "bool",
              "name": "sold",
              "type": "bool"
            },
            {
              "internalType": "bool",
              "name": "live",
              "type": "bool"
            },
            {
              "internalType": "bool",
              "name": "biddable",
              "type": "bool"
            },
            {
              "internalType": "uint256",
              "name": "bids",
              "type": "uint256"
            },
            {
              "internalType": "uint256",
              "name": "duration",
              "type": "uint256"
            }
          ],
          "internalType": "struct Auction.AuctionStruct[]",
          "name": "Auctions",
          "type": "tuple[]"
        }
      ],
      "stateMutability": "view",
      "type": "function"
    },
    {
      "inputs": [
        {
          "internalType": "uint256",
          "name": "tokenId",
          "type": "uint256"
        }
      ],
      "name": "getApproved",
      "outputs": [
        {
          "internalType": "address",
          "name": "",
          "type": "address"
        }
      ],
      "stateMutability": "view",
      "type": "function"
    },
    {
      "inputs": [
        {
          "internalType": "uint256",
          "name": "_id",
          "type": "uint256"
        }
      ],
      "name": "getAuction",
      "outputs": [
        {
          "components": [
            {
              "internalType": "string",
              "name": "name",
              "type": "string"
            },
            {
              "internalType": "string",
              "name": "description",
              "type": "string"
            },
            {
              "internalType": "string",
              "name": "image",
              "type": "string"
            },
            {
              "internalType": "uint256",
              "name": "tokenId",
              "type": "uint256"
            },
            {
              "internalType": "address",
              "name": "seller",
              "type": "address"
            },
            {
              "internalType": "address",
              "name": "owner",
              "type": "address"
            },
            {
              "internalType": "address",
              "name": "winner",
              "type": "address"
            },
            {
              "internalType": "uint256",
              "name": "price",
              "type": "uint256"
            },
            {
              "internalType": "bool",
              "name": "sold",
              "type": "bool"
            },
            {
              "internalType": "bool",
              "name": "live",
              "type": "bool"
            },
            {
              "internalType": "bool",
              "name": "biddable",
              "type": "bool"
            },
            {
              "internalType": "uint256",
              "name": "bids",
              "type": "uint256"
            },
            {
              "internalType": "uint256",
              "name": "duration",
              "type": "uint256"
            }
          ],
          "internalType": "struct Auction.AuctionStruct",
          "name": "",
          "type": "tuple"
        }
      ],
      "stateMutability": "view",
      "type": "function"
    },
    {
      "inputs": [],
      "name": "getListingPrice",
      "outputs": [
        {
          "internalType": "uint256",
          "name": "",
          "type": "uint256"
        }
      ],
      "stateMutability": "view",
      "type": "function"
    },
    {
      "inputs": [
        {
          "internalType": "uint256",
          "name": "_seconds",
          "type": "uint256"
        },
        {
          "internalType": "uint256",
          "name": "_minutes",
          "type": "uint256"
        },
        {
          "internalType": "uint256",
          "name": "_hour",
          "type": "uint256"
        },
        {
          "internalType": "uint256",
          "name": "_day",
          "type": "uint256"
        }
      ],
      "name": "getTimeSTamp",
      "outputs": [
        {
          "internalType": "uint256",
          "name": "",
          "type": "uint256"
        }
      ],
      "stateMutability": "view",
      "type": "function"
    },
    {
      "inputs": [
        {
          "internalType": "address",
          "name": "owner",
          "type": "address"
        },
        {
          "internalType": "address",
          "name": "operator",
          "type": "address"
        }
      ],
      "name": "isApprovedForAll",
      "outputs": [
        {
          "internalType": "bool",
          "name": "",
          "type": "bool"
        }
      ],
      "stateMutability": "view",
      "type": "function"
    },
    {
      "inputs": [],
      "name": "name",
      "outputs": [
        {
          "internalType": "string",
          "name": "",
          "type": "string"
        }
      ],
      "stateMutability": "view",
      "type": "function"
    },
    {
      "inputs": [
        {
          "internalType": "uint256",
          "name": "_tokenId",
          "type": "uint256"
        },
        {
          "internalType": "bool",
          "name": "biddable",
          "type": "bool"
        },
        {
          "internalType": "uint256",
          "name": "sec",
          "type": "uint256"
        },
        {
          "internalType": "uint256",
          "name": "min",
          "type": "uint256"
        },
        {
          "internalType": "uint256",
          "name": "hour",
          "type": "uint256"
        },
        {
          "internalType": "uint256",
          "name": "day",
          "type": "uint256"
        }
      ],
      "name": "offerAuction",
      "outputs": [],
      "stateMutability": "nonpayable",
      "type": "function"
    },
    {
      "inputs": [
        {
          "internalType": "uint256",
          "name": "tokenId",
          "type": "uint256"
        }
      ],
      "name": "ownerOf",
      "outputs": [
        {
          "internalType": "address",
          "name": "",
          "type": "address"
        }
      ],
      "stateMutability": "view",
      "type": "function"
    },
    {
      "inputs": [
        {
          "internalType": "uint256",
          "name": "_tokenId",
          "type": "uint256"
        }
      ],
      "name": "placeBid",
      "outputs": [],
      "stateMutability": "payable",
      "type": "function"
    },
    {
      "inputs": [
        {
          "internalType": "address",
          "name": "from",
          "type": "address"
        },
        {
          "internalType": "address",
          "name": "to",
          "type": "address"
        },
        {
          "internalType": "uint256",
          "name": "tokenId",
          "type": "uint256"
        }
      ],
      "name": "safeTransferFrom",
      "outputs": [],
      "stateMutability": "nonpayable",
      "type": "function"
    },
    {
      "inputs": [
        {
          "internalType": "address",
          "name": "from",
          "type": "address"
        },
        {
          "internalType": "address",
          "name": "to",
          "type": "address"
        },
        {
          "internalType": "uint256",
          "name": "tokenId",
          "type": "uint256"
        },
        {
          "internalType": "bytes",
          "name": "data",
          "type": "bytes"
        }
      ],
      "name": "safeTransferFrom",
      "outputs": [],
      "stateMutability": "nonpayable",
      "type": "function"
    },
    {
      "inputs": [
        {
          "internalType": "address",
          "name": "operator",
          "type": "address"
        },
        {
          "internalType": "bool",
          "name": "approved",
          "type": "bool"
        }
      ],
      "name": "setApprovalForAll",
      "outputs": [],
      "stateMutability": "nonpayable",
      "type": "function"
    },
    {
      "inputs": [
        {
          "internalType": "uint256",
          "name": "_price",
          "type": "uint256"
        }
      ],
      "name": "setListingPrice",
      "outputs": [],
      "stateMutability": "nonpayable",
      "type": "function"
    },
    {
      "inputs": [
        {
          "internalType": "bytes4",
          "name": "interfaceId",
          "type": "bytes4"
        }
      ],
      "name": "supportsInterface",
      "outputs": [
        {
          "internalType": "bool",
          "name": "",
          "type": "bool"
        }
      ],
      "stateMutability": "view",
      "type": "function"
    },
    {
      "inputs": [],
      "name": "symbol",
      "outputs": [
        {
          "internalType": "string",
          "name": "",
          "type": "string"
        }
      ],
      "stateMutability": "view",
      "type": "function"
    },
    {
      "inputs": [
        {
          "internalType": "uint256",
          "name": "tokenId",
          "type": "uint256"
        }
      ],
      "name": "tokenURI",
      "outputs": [
        {
          "internalType": "string",
          "name": "",
          "type": "string"
        }
      ],
      "stateMutability": "view",
      "type": "function"
    },
    {
      "inputs": [
        {
          "internalType": "address",
          "name": "from",
          "type": "address"
        },
        {
          "internalType": "address",
          "name": "to",
          "type": "address"
        },
        {
          "internalType": "uint256",
          "name": "tokenId",
          "type": "uint256"
        }
      ],
      "name": "transferFrom",
      "outputs": [],
      "stateMutability": "nonpayable",
      "type": "function"
    }
  ],
  "bytecode": "0x6080346200033657601f1990601f906001600160401b0362002ddf38819003848101861684018381118582101762000258578492829160405283396020938491810103126200033657519260ff84168094036200033657620000606200033a565b9260078452664372656174436f60c81b818501526200007e6200033a565b95600387526210d49560ea1b82880152845184811162000258575f546001968782811c921680156200032b575b8583101462000239578186849311620002d8575b50849086831160011462000278575f926200026c575b50505f19600383901b1c191690861b175f555b8651938411620002585784548581811c911680156200024d575b838210146200023957838111620001f1575b50819284116001146200018e575050819293945f9262000182575b50505f19600383901b1c191690821b1781555b60075566470de4df820000600a55600980546001600160a81b0319169091173360081b610100600160a81b0316179055604051612a8490816200035b8239f35b015190505f806200012f565b5f858152828120918516979193925b888210620001d95750508385969710620001c0575b505050811b01815562000142565b01515f1960f88460031b161c191690555f8080620001b2565b8087859682949686015181550195019301906200019d565b855f52825f208480870160051c8201928588106200022f575b0160051c019086905b8281106200022357505062000114565b5f815501869062000213565b925081926200020a565b634e487b7160e01b5f52602260045260245ffd5b90607f169062000102565b634e487b7160e01b5f52604160045260245ffd5b015190505f80620000d5565b9084899416915f8052865f20925f5b88828210620002c15750508411620002a8575b505050811b015f55620000e8565b01515f1960f88460031b161c191690555f80806200029a565b8385015186558c9790950194938401930162000287565b9091505f8052845f208680850160051c82019287861062000321575b918a91869594930160051c01915b82811062000312575050620000bf565b5f81558594508a910162000302565b92508192620002f4565b91607f1691620000ab565b5f80fd5b60408051919082016001600160401b03811183821017620002585760405256fe6080806040526004361015610012575f80fd5b5f9060e05f3560e01c91826301ffc9a714611f775750816306fdde0314611ed0578163081812fc14611eb257816308c4116914611da8578163095ea7b314611c3457816312e8558514611c1757816323b872dd14611bee57816333748dcb146111f357816342842e0e146111ca5781636352211e1461119a57816370a082311461110557816378bd793514610fb75781637b15414014610cea5781637c726b6914610cb957816395d89b4114610bdb5781639979ef45146109a85781639ab4a00e14610979578163a22cb465146108a9578163a923f18c14610710578163b3de019c14610630578163b88d4fde146105c9578163c87b56dd14610556578163cbd2bdfd1461037b57508063e985e9c5146103295763f5a06acf14610134575f80fd5b6020908160031936011261028e5760043561014d612819565b808252600b835261016760076040842001543410156124e2565b808252600b8352600a6040832001544210156102e457808252600b835260ff600860408420015460101c1661029f57600b8293828452526102316040832061022b61021961022560018060a01b039384600482015416946005820180549260088101600161ffff198254161790558a6009820155600a42910155336001600160601b0360a01b8416179055606461020360ff6009541634612551565b04938492826102128534612639565b911661289e565b60095460081c1661289e565b34612639565b9061289e565b303b1561029c576040516323b872dd60e01b8152306004820152336024820152604481019190915281818060648101038183305af180156102915761027a575b50600160075580f35b6102839061208e565b61028e57805f610271565b80fd5b6040513d84823e3d90fd5b50fd5b60405162461bcd60e51b815260048101849052601c60248201527f41756374696f6e206d757374206e6f74206265206269646461626c65000000006044820152606490fd5b60405162461bcd60e51b815260048101849052601f60248201527f41756374696f6e6564204974656d206973206e6f7420617661696c61626c65006044820152606490fd5b503461028e57604036600319011261028e5761034361217f565b604061034d612195565b9260018060a01b03809316815260056020522091165f52602052602060ff60405f2054166040519015158152f35b9050346105525781600319360112610552579060089160085461039d8161260e565b916103ab60405193846120bc565b8183526103b78261260e565b60209590601f1901855b818110610537575050845b838110610433575050505060405191838301848452825180915260408401948060408360051b870101940192955b8287106104075785850386f35b909192938280610423600193603f198a8203018652885161224f565b96019201960195929190926103fa565b60019695968082018083116105235790600192918952600b8852600a60408a206104756040519361046385612072565b61046c836120dd565b855282016120dd565b8a840152610485600282016120dd565b604084015260038101546060840152848060a01b038060048301541660808501528060058301541660a085015260068201541660c08401526007810154878401528581015460ff9081811615156101008601528181891c16151561012086015260101c1615156101408401526009810154610160840152015461018082015261050e8288612625565b526105198187612625565b50019594956103cc565b634e487b7160e01b89526011600452602489fd5b968096976105436123d0565b828289010152019695966103c1565b5080fd5b823461028e57602036600319011261028e576004355f8181526002602052604090205461058d906001600160a01b03161515612432565b5f5260066020526105c56105a360405f206120dd565b5f6040516105b0816120a1565b52604051918291602083526020830190611ffc565b0390f35b823461028e57608036600319011261028e576105e361217f565b6105eb612195565b606435916001600160401b03831161062c573660238401121561062c5761061f6106299336906024816004013591016121fb565b91604435916125c6565b80f35b8380fd5b823461028e5761063f3661230d565b90808352600b60205261066260018060a01b0360056040862001541633146124a0565b808352600b602052600a6040842001544211156106d6578115610691578252600b602052600760408320015580f35b60405162461bcd60e51b815260206004820152601f60248201527f5072696365206d7573742062652067726561746572207468616e207a65726f006044820152606490fd5b60405162461bcd60e51b815260206004820152601260248201527141756374696f6e207374696c6c204c69766560701b6044820152606490fd5b82346108645760c03660031901126108645760043561072d612323565b815f52602090600b825260ff600860405f20015460081c16156107a4575b828452600b8083526040852060098101869055600801805462ffffff191692151560101b62ff0000169290921761010017909155905b61079560a435608435606435604435612571565b92845252600a60408320015580f35b30331461086857335f526005825260405f20305f52825260405f20600160ff198254161790556040516001815230907f17307eab39ab6107e8899845ad3d59bd9653f200f220920489ca2b5937696c31843392a3303b15610864576040516323b872dd60e01b8152336004820152306024820152604481018490525f818060648101038183305af180156108595761083d575b5061074b565b600b9291945061084c9061208e565b6107815f94919250610837565b6040513d5f823e3d90fd5b5f80fd5b60405162461bcd60e51b815260048101839052601960248201527822a9219b99189d1030b8383937bb32903a379031b0b63632b960391b6044820152606490fd5b34610864576040366003190112610864576108c261217f565b6108ca612323565b6001600160a01b039091169033821461093857335f52600560205260405f20825f526020526109088160405f209060ff801983541691151516179055565b60405190151581527f17307eab39ab6107e8899845ad3d59bd9653f200f220920489ca2b5937696c3160203392a3005b60405162461bcd60e51b815260206004820152601960248201527822a9219b99189d1030b8383937bb32903a379031b0b63632b960391b6044820152606490fd5b346108645760803660031901126108645760206109a0606435604435602435600435612571565b604051908152f35b60208060031936011261086457600435805f52600b82526109d2600760405f2001543410156124e2565b805f52600b8252600a60405f200154421015610b9657805f52600b825260ff600860405f20015460101c1615610b51576040519160a083018381106001600160401b03821117610b3d57604052808301926040810160608201905f825260808301905f8252338452348752428152855f52600d855260405f20805468010000000000000000811015610b3d57610a6d91600182018155612524565b949094610b2a57610ad794610ac09260039260018060a01b03905116996001600160601b0360a01b9a8b8454161783555160018301555160028201550192511515839060ff801983541691151516179055565b51815461ff00191690151560081b61ff0016179055565b815f52600b8152600960405f2001918254925f198414610b16576001600b940190555f5252600660405f20346007820155019033908254161790555f80f35b634e487b7160e01b5f52601160045260245ffd5b634e487b7160e01b5f525f60045260245ffd5b634e487b7160e01b5f52604160045260245ffd5b60405162461bcd60e51b815260048101839052601860248201527f41756374696f6e206d757374206265206269646461626c6500000000000000006044820152606490fd5b60405162461bcd60e51b815260048101839052601c60248201527f41756374696f6e6564204974656d206e6f7420617661696c61626c65000000006044820152606490fd5b34610864575f366003190112610864576040515f60018260015492610bff8461203a565b92838352602094856001821691825f14610c99575050600114610c3e575b50610c2a925003836120bc565b6105c5604051928284938452830190611ffc565b84915060015f527fb10e2d527612073b26eecdfd717e6a320cf44b4afac2b0732d9fcbe2b7fa0cf6905f915b858310610c81575050610c2a935082010185610c1d565b80548389018501528794508693909201918101610c6a565b60ff191685820152610c2a95151560051b8501019250879150610c1d9050565b3461086457602036600319011261086457610ce260018060a01b0360095460081c1633146124a0565b600435600a55005b3461086457610cf83661230d565b815f52600b91602091838352600a60405f200154421115610f7a57815f5283835260018060a01b03600681600660405f200154163303610f3c57835f5285855260405f2091600883019360019788958661ffff198254161790555f600986015542600a860155610d9c600786015461022b858060056009549a610d9360ff9c6064610d8660ff83168a612551565b0495869160081c1661289e565b01541692612639565b865f52808852610db68784600660405f200154163061270a565b865f5280885260405f206005846006830154169101906001600160601b0360a01b825416179055855f905b610e49575b505050505050505f52600d815260405f20918254915f845582610e0557005b6002936001600160fe1b0384168403610b16575f525f209160021b8201915b828110610e2d57005b805f600492555f838201555f858201555f600382015501610e24565b875f52600d90818a5260405f20918254821015610f355785610e6c838b95612524565b50545f8c8152868e52604090208901548816911614610f1057895f52808b52610e988260405f20612524565b5090886003809301541615610eb2575b50505b0186610de1565b610f09918b5f52818d52610ec98460405f20612524565b50018460ff198254161790558a5f52808c5286610ee98460405f20612524565b505416908b5f528c5283610f008460405f20612524565b5001549061289e565b8b80610ea8565b8a526003610f218560405f20612524565b5001805461ff001916610100179055610eab565b5050610de6565b60405162461bcd60e51b81526004810186905260166024820152752cb7ba9030b932903737ba103a3432903bb4b73732b960511b6044820152606490fd5b60405162461bcd60e51b815260048101849052601560248201527441756374696f6e206973207374696c6c204c69766560581b6044820152606490fd5b346108645760208060031936011261086457600435610fd46123d0565b50805f52600c825260ff60405f205416156110c0575f52600b815260405f2090600a6040519261100384612072565b61100c816120dd565b845261101a600182016120dd565b8385015261102a600282016120dd565b60408501526003810154606085015260018060a01b038060048301541660808601528060058301541660a086015260068201541660c0850152600781015460e085015260ff60088201548181161515610100870152818160081c16151561012087015260101c161515610140850152600981015461016085015201546101808301526105c560405192828493845283019061224f565b60405162461bcd60e51b815260048101839052601860248201527f41756374696f6e6564204974656d206e6f7420666f756e6400000000000000006044820152606490fd5b34610864576020366003190112610864576001600160a01b0361112661217f565b168015611143575f526003602052602060405f2054604051908152f35b60405162461bcd60e51b815260206004820152602960248201527f4552433732313a2061646472657373207a65726f206973206e6f7420612076616044820152683634b21037bbb732b960b91b6064820152608490fd5b346108645760203660031901126108645760206111b860043561247e565b6040516001600160a01b039091168152f35b34610864576111f16111db366121ab565b90604051926111e9846120a1565b5f84526125c6565b005b60a0366003190112610864576004356001600160401b0381116108645761121e903690600401612231565b6024356001600160401b0381116108645761123d903690600401612231565b90604480356001600160401b0381116108645761125e903690600401612231565b9060649081356001600160401b03811161086457611280903690600401612231565b90611289612819565b60843515611bab57600a543410611b5757845115611b1d57855115611ada57835115611a975760085492600184018411610b1657600184016008553315611a5557600184015f908152600260205260409020546112f2906001600160a01b031615155b15612914565b600184015f90815260026020526040902054611318906001600160a01b031615156112ec565b335f52600360205260405f2060018154019055600184015f52600260205260405f20336001600160601b0360a01b82541617905560018401335f7fddf252ad1be2c89b69c2b068fc378daa952ba7f163c4a11628f55a4df523b3ef8180a4600184015f908152600260205260409020546001600160a01b0316156119fb575050600182015f52600660205260405f20908051906001600160401b038211610b3d576113c3835461203a565b601f81116119ba575b50602090601f831160011461192f579180602094927ff8e1a15aba9398e019f0b49df1a4fde98ee17ae345cb5f6b5e2c27f5033e8ce796945f92611924575b50508160011b915f199060031b1c19161790555b600160405191018152a1600854926114356123d0565b9284606085015283526020830152604082015260843560e0820152426101808201523360808201523360a0820152815f52600b60205260405f2081519283516001600160401b038111610b3d5761148c835461203a565b601f81116118e3575b506020601f821160011461187e5781929394955f92611873575b50508160011b915f199060031b1c19161782555b60208301519283516001600160401b038111610b3d576114e6600185015461203a565b601f811161182f575b506020601f82116001146117c45781929394955f926117b9575b50508160011b915f199060031b1c19161760018401555b60408101519283516001600160401b038111610b3d57611543600283015461203a565b601f8111611775575b506020601f82116001146116e457908060809493927fa693a8f68fe4df789541ddd1b84d32ccaea90adddcc88406b4bbbf6466328d3c96975f926116d9575b50508160011b915f199060031b1c19161760028201555b60608201516003820155600481019060018060a01b03918285850151166001600160601b0360a01b825416179055600581018260a0850151166001600160601b0360a01b825416179055600681018260c0850151166001600160601b0360a01b82541617905560e0830151600782015561166e600882016116366101008601511515829060ff801983541691151516179055565b610120850151815461ff00191690151560081b61ff0016178155610140850151815462ff0000191690151560101b62ff000016179055565b6101608301516009820155600a610180840151910155845f52600c60205260405f20600160ff198254161790556116ac348260095460081c1661289e565b60a081848401511692015116604051918252602082015260843560408201525f6060820152a26001600755005b01519050878061158b565b600283015f5260205f20955f5b601f198416811061175d5750917fa693a8f68fe4df789541ddd1b84d32ccaea90adddcc88406b4bbbf6466328d3c9596600192608096959483601f19811610611745575b505050811b0160028201556115a2565b01515f1960f88460031b161c19169055878080611735565b828201518855600190970196602092830192016116f1565b600283015f5260205f20601f830160051c8101602084106117b2575b601f830160051c820181106117a757505061154c565b5f8155600101611791565b5080611791565b015190508580611509565b600185015f5260205f20905f5b601f1984168110611817575060019394959683601f198116106117ff575b505050811b016001840155611520565b01515f1960f88460031b161c191690558580806117ef565b9091602060018192858b0151815501930191016117d1565b600185015f5260205f20601f830160051c81016020841061186c575b601f830160051c820181106118615750506114ef565b5f815560010161184b565b508061184b565b0151905085806114af565b835f5260205f20905f5b601f19841681106118cb575060019394959683601f198116106118b3575b505050811b0182556114c3565b01515f1960f88460031b161c191690558580806118a6565b9091602060018192858b015181550193019101611888565b835f5260205f20601f830160051c81016020841061191d575b601f830160051c82018110611912575050611495565b5f81556001016118fc565b50806118fc565b01519050898061140b565b90835f5260205f20915f5b601f19851681106119a2575092602094926001927ff8e1a15aba9398e019f0b49df1a4fde98ee17ae345cb5f6b5e2c27f5033e8ce7979583601f1981161061198a575b505050811b01905561141f565b01515f1960f88460031b161c1916905589808061197d565b9192602060018192868501518155019401920161193a565b835f5260205f20601f840160051c8101602085106119f4575b601f830160051c820181106119e95750506113cc565b5f81556001016119d3565b50806119d3565b906d32bc34b9ba32b73a103a37b5b2b760911b6084927f45524337323155524953746f726167653a2055524920736574206f66206e6f6e6040519362461bcd60e51b855260206004860152602e6024860152840152820152fd5b907f4552433732313a206d696e7420746f20746865207a65726f20616464726573736040519162461bcd60e51b83526020600484015260206024840152820152fd5b90507f696d616765206d757374206265207370656369666965640000000000000000006040519162461bcd60e51b83526020600484015260176024840152820152fd5b90507f6465736372697074696f6e2063616e6e6f7420626520656d70747900000000006040519162461bcd60e51b835260206004840152601b6024840152820152fd5b9050736e616d652063616e6e6f7420626520656d70747960601b6040519162461bcd60e51b83526020600484015260146024840152820152fd5b608490676e6720707269636560c01b847f5072696365206d7573742062652067726561746572207468616e206c697374696040519362461bcd60e51b85526020600486015260286024860152840152820152fd5b90507f546869732073616c657320707269636573206973206e6f742076616c696400006040519162461bcd60e51b835260206004840152601e6024840152820152fd5b34610864576111f1611bff366121ab565b91611c12611c0d8433612646565b61236e565b61270a565b34610864575f366003190112610864576020600a54604051908152f35b3461086457604036600319011261086457611c4d61217f565b602435906001600160a01b038080611c648561247e565b16921691808314611d5957803314908115611d38575b5015611ccd575f83815260046020526040902080546001600160a01b03191683179055611ca68361247e565b167f8c5be1e5ebec7d5bd14f71427d1e84f3dd0314c0f7b2291e5b200ac8c7c3b9255f80a4005b60405162461bcd60e51b815260206004820152603d60248201527f4552433732313a20617070726f76652063616c6c6572206973206e6f7420746f60448201527f6b656e206f776e6572206f7220617070726f76656420666f7220616c6c0000006064820152608490fd5b90505f52600560205260405f20335f5260205260ff60405f20541684611c7a565b60405162461bcd60e51b815260206004820152602160248201527f4552433732313a20617070726f76616c20746f2063757272656e74206f776e656044820152603960f91b6064820152608490fd5b34610864576020366003190112610864576004355f52600b60205260405f20611e47611dd3826120dd565b91611de0600182016120dd565b92611ded600283016120dd565b9160ff60038201549360018060a01b038060048501541690806005860154169060068601541690600786015492611e63600888015495611e55600a60098b01549a01549a6040519e8f9e8f926101a0808552840190611ffc565b916020818403910152611ffc565b8c810360408e015290611ffc565b9860608b015260808a015260a089015260c088015260e08701528181161515610100870152818160081c16151561012087015260101c1615156101408501526101608401526101808301520390f35b346108645760203660031901126108645760206111b8600435612332565b34610864575f366003190112610864576040515f80549082611ef18361203a565b91828252602093600190856001821691825f14610c99575050600114611f1e5750610c2a925003836120bc565b5f808052859250907f290decd9548b62a8d60345a988386fc84ba6bc95484008f6362f93160ef3e5635b858310611f5f575050610c2a935082010185610c1d565b80548389018501528794508693909201918101611f48565b34610864576020366003190112610864576004359063ffffffff60e01b821680920361086457602091632483248360e11b8114908115611fb9575b5015158152f35b6380ac58cd60e01b811491508115611feb575b8115611fda575b5083611fb2565b6301ffc9a760e01b14905083611fd3565b635b5e139f60e01b81149150611fcc565b91908251928382525f5b848110612026575050825f602080949584010152601f8019910116010190565b602081830181015184830182015201612006565b90600182811c92168015612068575b602083101461205457565b634e487b7160e01b5f52602260045260245ffd5b91607f1691612049565b6101a081019081106001600160401b03821117610b3d57604052565b6001600160401b038111610b3d57604052565b602081019081106001600160401b03821117610b3d57604052565b90601f801991011681019081106001600160401b03821117610b3d57604052565b9060405191825f82546120ef8161203a565b908184526020946001916001811690815f1461215d575060011461211f575b50505061211d925003836120bc565b565b5f90815285812095935091905b81831061214557505061211d93508201015f808061210e565b8554888401850152948501948794509183019161212c565b9250505061211d94925060ff191682840152151560051b8201015f808061210e565b600435906001600160a01b038216820361086457565b602435906001600160a01b038216820361086457565b6060906003190112610864576001600160a01b0390600435828116810361086457916024359081168103610864579060443590565b6001600160401b038111610b3d57601f01601f191660200190565b929192612207826121e0565b9161221560405193846120bc565b829481845281830111610864578281602093845f960137010152565b9080601f830112156108645781602061224c933591016121fb565b90565b9061228e61227c61226a6101a0855190808652850190611ffc565b60208501518482036020860152611ffc565b60408401518382036040850152611ffc565b9160608101516060830152608081015160018060a01b0380911660808401528060a08301511660a084015260c08201511660c083015260e081015160e083015261010080820151151590830152610120808201511515908301526101408082015115159083015261016080820151908301526101808091015191015290565b6040906003190112610864576004359060243590565b60243590811515820361086457565b5f81815260026020526040902054612354906001600160a01b03161515612432565b5f908152600460205260409020546001600160a01b031690565b1561237557565b60405162461bcd60e51b815260206004820152602d60248201527f4552433732313a2063616c6c6572206973206e6f7420746f6b656e206f776e6560448201526c1c881bdc88185c1c1c9bdd9959609a1b6064820152608490fd5b604051906123dd82612072565b5f610180836060815260606020820152606060408201528260608201528260808201528260a08201528260c08201528260e0820152826101008201528261012082015282610140820152826101608201520152565b1561243957565b60405162461bcd60e51b815260206004820152601860248201527f4552433732313a20696e76616c696420746f6b656e20494400000000000000006044820152606490fd5b5f908152600260205260409020546001600160a01b031661224c811515612432565b156124a757565b60405162461bcd60e51b8152602060048201526013602482015272556e617574686f72697a656420656e7469747960681b6044820152606490fd5b156124e957565b60405162461bcd60e51b8152602060048201526013602482015272125b9cdd59999a58da595b9d08105b5bdd5b9d606a1b6044820152606490fd5b805482101561253d575f5260205f209060021b01905f90565b634e487b7160e01b5f52603260045260245ffd5b81810292918115918404141715610b1657565b91908201809211610b1657565b61257b9042612564565b9080603c0290603c820403610b165761259391612564565b90610e109080820291820403610b16576125ac91612564565b90620151809080820291820403610b165761224c91612564565b906125ea9392916125da611c0d8433612646565b6125e583838361270a565b612960565b156125f157565b60405162461bcd60e51b81528061260a600482016128c1565b0390fd5b6001600160401b038111610b3d5760051b60200190565b805182101561253d5760209160051b010190565b91908203918211610b1657565b906001600160a01b03808061265a8461247e565b1693169183831493841561268d575b508315612677575b50505090565b61268391929350612332565b16145f8080612671565b9093505f52600560205260405f20825f5260205260ff60405f205416925f612669565b156126b757565b60405162461bcd60e51b815260206004820152602560248201527f4552433732313a207472616e736665722066726f6d20696e636f72726563742060448201526437bbb732b960d91b6064820152608490fd5b90612732916127188461247e565b6001600160a01b03939184169284929091831684146126b0565b169182156127c8578161274f916127488661247e565b16146126b0565b825f52600460205260405f206001600160601b0360a01b90818154169055815f52600360205260405f205f198154019055825f5260405f2060018154019055835f5260026020528260405f20918254161790557fddf252ad1be2c89b69c2b068fc378daa952ba7f163c4a11628f55a4df523b3ef5f80a4565b60405162461bcd60e51b8152602060048201526024808201527f4552433732313a207472616e7366657220746f20746865207a65726f206164646044820152637265737360e01b6064820152608490fd5b60026007541461282a576002600755565b60405162461bcd60e51b815260206004820152601f60248201527f5265656e7472616e637947756172643a207265656e7472616e742063616c6c006044820152606490fd5b3d15612899573d90612880826121e0565b9161288e60405193846120bc565b82523d5f602084013e565b606090565b5f918291829182916001600160a01b03165af16128b961286f565b501561086457565b60809060208152603260208201527f4552433732313a207472616e7366657220746f206e6f6e20455243373231526560408201527131b2b4bb32b91034b6b83632b6b2b73a32b960711b60608201520190565b1561291b57565b60405162461bcd60e51b815260206004820152601c60248201527f4552433732313a20746f6b656e20616c7265616479206d696e746564000000006044820152606490fd5b92909190823b15612a45576129b2926020925f60018060a01b0360405180978196829584630a85bd0160e11b9c8d86523360048701521660248501526044840152608060648401526084830190611ffc565b0393165af15f9181612a00575b506129f2576129cc61286f565b805190816129ed5760405162461bcd60e51b81528061260a600482016128c1565b602001fd5b6001600160e01b0319161490565b9091506020813d602011612a3d575b81612a1c602093836120bc565b8101031261086457516001600160e01b03198116810361086457905f6129bf565b3d9150612a0f565b5050505060019056fea2646970667358221220c8247df0c09ff4b02c14b79acca418026ca86bb2f7129cb2382c180a428d164164736f6c63430008180033",
  "linkReferences": {},
  "deployedLinkReferences": {}
}