{"src/contracts/Auction.sol":{"Auction":{"abi":[{"inputs":[{"internalType":"uint8","name":"_royaltyFee","type":"uint8"}],"stateMutability":"nonpayable","type":"constructor"},{"inputs":[],"name":"UnAuthorized_Entity","type":"error"},{"anonymous":false,"inputs":[{"indexed":true,"internalType":"address","name":"owner","type":"address"},{"indexed":true,"internalType":"address","name":"approved","type":"address"},{"indexed":true,"internalType":"uint256","name":"tokenId","type":"uint256"}],"name":"Approval","type":"event"},{"anonymous":false,"inputs":[{"indexed":true,"internalType":"address","name":"owner","type":"address"},{"indexed":true,"internalType":"address","name":"operator","type":"address"},{"indexed":false,"internalType":"bool","name":"approved","type":"bool"}],"name":"ApprovalForAll","type":"event"},{"anonymous":false,"inputs":[{"indexed":true,"internalType":"uint256","name":"tokenId","type":"uint256"},{"indexed":false,"internalType":"address","name":"seller","type":"address"},{"indexed":false,"internalType":"address","name":"owner","type":"address"},{"indexed":false,"internalType":"uint256","name":"price","type":"uint256"},{"indexed":false,"internalType":"bool","name":"sold","type":"bool"}],"name":"AuctionItemCreated","type":"event"},{"anonymous":false,"inputs":[{"indexed":false,"internalType":"uint256","name":"_fromTokenId","type":"uint256"},{"indexed":false,"internalType":"uint256","name":"_toTokenId","type":"uint256"}],"name":"BatchMetadataUpdate","type":"event"},{"anonymous":false,"inputs":[{"indexed":false,"internalType":"uint256","name":"_tokenId","type":"uint256"}],"name":"MetadataUpdate","type":"event"},{"anonymous":false,"inputs":[{"indexed":true,"internalType":"address","name":"from","type":"address"},{"indexed":true,"internalType":"address","name":"to","type":"address"},{"indexed":true,"internalType":"uint256","name":"tokenId","type":"uint256"}],"name":"Transfer","type":"event"},{"inputs":[{"internalType":"address","name":"to","type":"address"},{"internalType":"uint256","name":"tokenId","type":"uint256"}],"name":"approve","outputs":[],"stateMutability":"nonpayable","type":"function"},{"inputs":[{"internalType":"uint256","name":"","type":"uint256"}],"name":"auctionedItem","outputs":[{"internalType":"string","name":"name","type":"string"},{"internalType":"string","name":"description","type":"string"},{"internalType":"string","name":"image","type":"string"},{"internalType":"uint256","name":"tokenId","type":"uint256"},{"internalType":"address","name":"seller","type":"address"},{"internalType":"address","name":"owner","type":"address"},{"internalType":"address","name":"winner","type":"address"},{"internalType":"uint256","name":"price","type":"uint256"},{"internalType":"bool","name":"sold","type":"bool"},{"internalType":"bool","name":"live","type":"bool"},{"internalType":"bool","name":"biddable","type":"bool"},{"internalType":"uint256","name":"bids","type":"uint256"},{"internalType":"uint256","name":"duration","type":"uint256"}],"stateMutability":"view","type":"function"},{"inputs":[{"internalType":"address","name":"owner","type":"address"}],"name":"balanceOf","outputs":[{"internalType":"uint256","name":"","type":"uint256"}],"stateMutability":"view","type":"function"},{"inputs":[{"internalType":"uint256","name":"_tokenId","type":"uint256"}],"name":"buyAuctionedItem","outputs":[],"stateMutability":"payable","type":"function"},{"inputs":[{"internalType":"uint256","name":"tokenId","type":"uint256"},{"internalType":"uint256","name":"price","type":"uint256"}],"name":"changePrice","outputs":[],"stateMutability":"nonpayable","type":"function"},{"inputs":[{"internalType":"uint256","name":"_tokenId","type":"uint256"},{"internalType":"uint256","name":"_bidNo","type":"uint256"}],"name":"claimPrize","outputs":[],"stateMutability":"nonpayable","type":"function"},{"inputs":[{"internalType":"string","name":"_name","type":"string"},{"internalType":"string","name":"_description","type":"string"},{"internalType":"string","name":"_image","type":"string"},{"internalType":"string","name":"_tokenURI","type":"string"},{"internalType":"uint256","name":"_price","type":"uint256"}],"name":"createAuction","outputs":[],"stateMutability":"payable","type":"function"},{"inputs":[],"name":"getAllAuctions","outputs":[{"components":[{"internalType":"string","name":"name","type":"string"},{"internalType":"string","name":"description","type":"string"},{"internalType":"string","name":"image","type":"string"},{"internalType":"uint256","name":"tokenId","type":"uint256"},{"internalType":"address","name":"seller","type":"address"},{"internalType":"address","name":"owner","type":"address"},{"internalType":"address","name":"winner","type":"address"},{"internalType":"uint256","name":"price","type":"uint256"},{"internalType":"bool","name":"sold","type":"bool"},{"internalType":"bool","name":"live","type":"bool"},{"internalType":"bool","name":"biddable","type":"bool"},{"internalType":"uint256","name":"bids","type":"uint256"},{"internalType":"uint256","name":"duration","type":"uint256"}],"internalType":"struct Auction.AuctionStruct[]","name":"Auctions","type":"tuple[]"}],"stateMutability":"view","type":"function"},{"inputs":[{"internalType":"uint256","name":"tokenId","type":"uint256"}],"name":"getApproved","outputs":[{"internalType":"address","name":"","type":"address"}],"stateMutability":"view","type":"function"},{"inputs":[{"internalType":"uint256","name":"_id","type":"uint256"}],"name":"getAuction","outputs":[{"components":[{"internalType":"string","name":"name","type":"string"},{"internalType":"string","name":"description","type":"string"},{"internalType":"string","name":"image","type":"string"},{"internalType":"uint256","name":"tokenId","type":"uint256"},{"internalType":"address","name":"seller","type":"address"},{"internalType":"address","name":"owner","type":"address"},{"internalType":"address","name":"winner","type":"address"},{"internalType":"uint256","name":"price","type":"uint256"},{"internalType":"bool","name":"sold","type":"bool"},{"internalType":"bool","name":"live","type":"bool"},{"internalType":"bool","name":"biddable","type":"bool"},{"internalType":"uint256","name":"bids","type":"uint256"},{"internalType":"uint256","name":"duration","type":"uint256"}],"internalType":"struct Auction.AuctionStruct","name":"","type":"tuple"}],"stateMutability":"view","type":"function"},{"inputs":[{"internalType":"uint256","name":"tokenId","type":"uint256"}],"name":"getBidders","outputs":[{"components":[{"internalType":"address","name":"bidder","type":"address"},{"internalType":"uint256","name":"price","type":"uint256"},{"internalType":"uint256","name":"timestamp","type":"uint256"},{"internalType":"bool","name":"refunded","type":"bool"},{"internalType":"bool","name":"won","type":"bool"}],"internalType":"struct Auction.BiddableStruct[]","name":"","type":"tuple[]"}],"stateMutability":"view","type":"function"},{"inputs":[],"name":"getListingPrice","outputs":[{"internalType":"uint256","name":"","type":"uint256"}],"stateMutability":"view","type":"function"},{"inputs":[],"name":"getLiveAuctions","outputs":[{"components":[{"internalType":"string","name":"name","type":"string"},{"internalType":"string","name":"description","type":"string"},{"internalType":"string","name":"image","type":"string"},{"internalType":"uint256","name":"tokenId","type":"uint256"},{"internalType":"address","name":"seller","type":"address"},{"internalType":"address","name":"owner","type":"address"},{"internalType":"address","name":"winner","type":"address"},{"internalType":"uint256","name":"price","type":"uint256"},{"internalType":"bool","name":"sold","type":"bool"},{"internalType":"bool","name":"live","type":"bool"},{"internalType":"bool","name":"biddable","type":"bool"},{"internalType":"uint256","name":"bids","type":"uint256"},{"internalType":"uint256","name":"duration","type":"uint256"}],"internalType":"struct Auction.AuctionStruct[]","name":"Auctions","type":"tuple[]"}],"stateMutability":"view","type":"function"},{"inputs":[],"name":"getMyAuctions","outputs":[{"components":[{"internalType":"string","name":"name","type":"string"},{"internalType":"string","name":"description","type":"string"},{"internalType":"string","name":"image","type":"string"},{"internalType":"uint256","name":"tokenId","type":"uint256"},{"internalType":"address","name":"seller","type":"address"},{"internalType":"address","name":"owner","type":"address"},{"internalType":"address","name":"winner","type":"address"},{"internalType":"uint256","name":"price","type":"uint256"},{"internalType":"bool","name":"sold","type":"bool"},{"internalType":"bool","name":"live","type":"bool"},{"internalType":"bool","name":"biddable","type":"bool"},{"internalType":"uint256","name":"bids","type":"uint256"},{"internalType":"uint256","name":"duration","type":"uint256"}],"internalType":"struct Auction.AuctionStruct[]","name":"Auctions","type":"tuple[]"}],"stateMutability":"view","type":"function"},{"inputs":[],"name":"getSoldAuction","outputs":[{"components":[{"internalType":"string","name":"name","type":"string"},{"internalType":"string","name":"description","type":"string"},{"internalType":"string","name":"image","type":"string"},{"internalType":"uint256","name":"tokenId","type":"uint256"},{"internalType":"address","name":"seller","type":"address"},{"internalType":"address","name":"owner","type":"address"},{"internalType":"address","name":"winner","type":"address"},{"internalType":"uint256","name":"price","type":"uint256"},{"internalType":"bool","name":"sold","type":"bool"},{"internalType":"bool","name":"live","type":"bool"},{"internalType":"bool","name":"biddable","type":"bool"},{"internalType":"uint256","name":"bids","type":"uint256"},{"internalType":"uint256","name":"duration","type":"uint256"}],"internalType":"struct Auction.AuctionStruct[]","name":"Auctions","type":"tuple[]"}],"stateMutability":"view","type":"function"},{"inputs":[{"internalType":"uint256","name":"_seconds","type":"uint256"},{"internalType":"uint256","name":"_minutes","type":"uint256"},{"internalType":"uint256","name":"_hour","type":"uint256"},{"internalType":"uint256","name":"_day","type":"uint256"}],"name":"getTimeSTamp","outputs":[{"internalType":"uint256","name":"","type":"uint256"}],"stateMutability":"view","type":"function"},{"inputs":[],"name":"getUnsoldAuction","outputs":[{"components":[{"internalType":"string","name":"name","type":"string"},{"internalType":"string","name":"description","type":"string"},{"internalType":"string","name":"image","type":"string"},{"internalType":"uint256","name":"tokenId","type":"uint256"},{"internalType":"address","name":"seller","type":"address"},{"internalType":"address","name":"owner","type":"address"},{"internalType":"address","name":"winner","type":"address"},{"internalType":"uint256","name":"price","type":"uint256"},{"internalType":"bool","name":"sold","type":"bool"},{"internalType":"bool","name":"live","type":"bool"},{"internalType":"bool","name":"biddable","type":"bool"},{"internalType":"uint256","name":"bids","type":"uint256"},{"internalType":"uint256","name":"duration","type":"uint256"}],"internalType":"struct Auction.AuctionStruct[]","name":"Auctions","type":"tuple[]"}],"stateMutability":"view","type":"function"},{"inputs":[{"internalType":"address","name":"owner","type":"address"},{"internalType":"address","name":"operator","type":"address"}],"name":"isApprovedForAll","outputs":[{"internalType":"bool","name":"","type":"bool"}],"stateMutability":"view","type":"function"},{"inputs":[],"name":"name","outputs":[{"internalType":"string","name":"","type":"string"}],"stateMutability":"view","type":"function"},{"inputs":[{"internalType":"uint256","name":"_tokenId","type":"uint256"},{"internalType":"bool","name":"biddable","type":"bool"},{"internalType":"uint256","name":"sec","type":"uint256"},{"internalType":"uint256","name":"min","type":"uint256"},{"internalType":"uint256","name":"hour","type":"uint256"},{"internalType":"uint256","name":"day","type":"uint256"}],"name":"offerAuction","outputs":[],"stateMutability":"nonpayable","type":"function"},{"inputs":[{"internalType":"uint256","name":"tokenId","type":"uint256"}],"name":"ownerOf","outputs":[{"internalType":"address","name":"","type":"address"}],"stateMutability":"view","type":"function"},{"inputs":[{"internalType":"uint256","name":"_tokenId","type":"uint256"}],"name":"placeBid","outputs":[],"stateMutability":"payable","type":"function"},{"inputs":[{"internalType":"address","name":"from","type":"address"},{"internalType":"address","name":"to","type":"address"},{"internalType":"uint256","name":"tokenId","type":"uint256"}],"name":"safeTransferFrom","outputs":[],"stateMutability":"nonpayable","type":"function"},{"inputs":[{"internalType":"address","name":"from","type":"address"},{"internalType":"address","name":"to","type":"address"},{"internalType":"uint256","name":"tokenId","type":"uint256"},{"internalType":"bytes","name":"data","type":"bytes"}],"name":"safeTransferFrom","outputs":[],"stateMutability":"nonpayable","type":"function"},{"inputs":[{"internalType":"address","name":"operator","type":"address"},{"internalType":"bool","name":"approved","type":"bool"}],"name":"setApprovalForAll","outputs":[],"stateMutability":"nonpayable","type":"function"},{"inputs":[{"internalType":"uint256","name":"_price","type":"uint256"}],"name":"setListingPrice","outputs":[],"stateMutability":"nonpayable","type":"function"},{"inputs":[{"internalType":"bytes4","name":"interfaceId","type":"bytes4"}],"name":"supportsInterface","outputs":[{"internalType":"bool","name":"","type":"bool"}],"stateMutability":"view","type":"function"},{"inputs":[],"name":"symbol","outputs":[{"internalType":"string","name":"","type":"string"}],"stateMutability":"view","type":"function"},{"inputs":[{"internalType":"uint256","name":"tokenId","type":"uint256"}],"name":"tokenURI","outputs":[{"internalType":"string","name":"","type":"string"}],"stateMutability":"view","type":"function"},{"inputs":[{"internalType":"address","name":"from","type":"address"},{"internalType":"address","name":"to","type":"address"},{"internalType":"uint256","name":"tokenId","type":"uint256"}],"name":"transferFrom","outputs":[],"stateMutability":"nonpayable","type":"function"}],"evm":{"bytecode":{"linkReferences":{},"object":"6080346200033657601f1990601f906001600160401b03620035ae38819003848101861684018381118582101762000258578492829160405283396020938491810103126200033657519260ff84168094036200033657620000606200033a565b9260078452664372656174436f60c81b818501526200007e6200033a565b95600387526210d49560ea1b82880152845184811162000258575f546001968782811c921680156200032b575b8583101462000239578186849311620002d8575b50849086831160011462000278575f926200026c575b50505f19600383901b1c191690861b175f555b8651938411620002585784548581811c911680156200024d575b838210146200023957838111620001f1575b50819284116001146200018e575050819293945f9262000182575b50505f19600383901b1c191690821b1781555b60075566470de4df820000600a55600980546001600160a81b0319169091173360081b610100600160a81b031617905560405161325390816200035b8239f35b015190505f806200012f565b5f858152828120918516979193925b888210620001d95750508385969710620001c0575b505050811b01815562000142565b01515f1960f88460031b161c191690555f8080620001b2565b8087859682949686015181550195019301906200019d565b855f52825f208480870160051c8201928588106200022f575b0160051c019086905b8281106200022357505062000114565b5f815501869062000213565b925081926200020a565b634e487b7160e01b5f52602260045260245ffd5b90607f169062000102565b634e487b7160e01b5f52604160045260245ffd5b015190505f80620000d5565b9084899416915f8052865f20925f5b88828210620002c15750508411620002a8575b505050811b015f55620000e8565b01515f1960f88460031b161c191690555f80806200029a565b8385015186558c9790950194938401930162000287565b9091505f8052845f208680850160051c82019287861062000321575b918a91869594930160051c01915b82811062000312575050620000bf565b5f81558594508a910162000302565b92508192620002f4565b91607f1691620000ab565b5f80fd5b60408051919082016001600160401b03811183821017620002585760405256fe6080806040526004361015610012575f80fd5b5f905f3560e01c90816301ffc9a71461266b5750806306fdde03146125c4578063081812fc146125a657806308c411691461249c578063095ea7b31461232857806312e855851461230b5780631d8df68f1461219a57806323b872dd1461217157806333748dcb1461177657806342842e0e1461174d5780634fa7b507146116345780636352211e1461160457806370a082311461156f57806378bd7935146114215780637b154140146111545780637c726b691461112357806395d89b41146110455780639979ef4514610e405780639ab4a00e14610e115780639e78efd614610c8b578063a22cb46514610bbb578063a923f18c14610a22578063b3de019c14610942578063b88d4fde146108db578063bf65a33314610714578063c87b56dd146106a5578063cbd2bdfd1461057f578063db0bd5c9146103af578063e985e9c51461035d5763f5a06acf14610168575f80fd5b602090816003193601126102c257600435610181612fe8565b808252600b835261019b6007604084200154341015612cfd565b808252600b8352600a60408320015442101561031857808252600b835260ff600860408420015460101c166102d357600b8293828452526102656040832061025f61024d61025960018060a01b039384600482015416946005820180549260088101600161ffff198254161790558a6009820155600a42910155336001600160601b0360a01b8416179055606461023760ff6009541634612d58565b04938492826102468534612e08565b911661306d565b60095460081c1661306d565b34612e08565b9061306d565b303b156102d0576040516323b872dd60e01b8152306004820152336024820152604481019190915281818060648101038183305af180156102c5576102ae575b50600160075580f35b6102b79061279d565b6102c257805f6102a5565b80fd5b6040513d84823e3d90fd5b50fd5b60405162461bcd60e51b815260048101849052601c60248201527f41756374696f6e206d757374206e6f74206265206269646461626c65000000006044820152606490fd5b60405162461bcd60e51b815260048101849052601f60248201527f41756374696f6e6564204974656d206973206e6f7420617661696c61626c65006044820152606490fd5b50346102c25760403660031901126102c25761037761288e565b60406103816128a4565b9260018060a01b03809316815260056020522091165f52602052602060ff60405f2054166040519015158152f35b50346102c257806003193601126102c25760089060085481825b82811061052e57506103da90612b74565b9180805b8381106103f757604051806103f38782612978565b0390f35b600180820180831161051a57808452600b602090808252600a9242846040892001541161042c575b50505050506001016103de565b9160019597939161050f95938852815260408720906104636040519461045186612766565b61045a846127ec565b865283016127ec565b90840152610473600282016127ec565b604084015260038101546060840152858060a01b038060048301541660808501528060058301541660a085015260068201541660c0840152600781015460e08401528a810154808c60ff92839182821615156101008901521c16151561012086015260101c161515610140840152600981015461016084015201546101808201526104fe8289612bc3565b526105098188612bc3565b50612aed565b92905f80808061041f565b634e487b7160e01b84526011600452602484fd5b6001810180821161056b578452600b60205242600a60408620015411610557575b6001016103c9565b90610563600191612aed565b91905061054f565b634e487b7160e01b85526011600452602485fd5b50346102c257806003193601126102c2576008805461059d81612b74565b91835b8281106105b557604051806103f38682612978565b60018082018083116106915790600192918752600a6020600b815260408920906105e56040519461045186612766565b908401526105f5600282016127ec565b604084015260038101546060840152848060a01b038060048301541660808501528060058301541660a085015260068201541660c0840152600781015460e08401528581015460ff9081811615156101008601528181891c16151561012086015260101c1615156101408401526009810154610160840152015461018082015261067f8287612bc3565b5261068a8186612bc3565b50016105a0565b634e487b7160e01b87526011600452602487fd5b50346102c25760203660031901126102c2576004355f818152600260205260409020546106dc906001600160a01b03161515612c4d565b5f5260066020526103f36106f260405f206127ec565b5f6040516106ff816127b0565b526040519182916020835260208301906126f0565b50346102c257806003193601126102c2576008906008549080815b838110610895575061074090612b74565b928190825b84811061075a57604051806103f38882612978565b600180820180831161088157808652600b60208181526040882060059081015491936001600160a01b039391928416331461079e575b505050505050600101610745565b9280600a936001989a969361087598968d52845260408c20936107d9604051976107c789612766565b6107d0876127ec565b895286016127ec565b908701526107e9600285016127ec565b6040870152600384015460608701528160048501541660808701528301541660a085015260068201541660c0840152600781015460e08401528681015460ff90818116151561010086015281818a1c16151561012086015260101c1615156101408401526009810154610160840152015461018082015261086a828a612bc3565b526105098189612bc3565b92905f80808080610790565b634e487b7160e01b86526011600452602486fd5b6001810180821161051a578352600b60205260408320600501546001600160a01b031633146108c7575b60010161072f565b906108d3600191612aed565b9190506108bf565b50346102c25760803660031901126102c2576108f561288e565b6108fd6128a4565b606435916001600160401b03831161093e573660238401121561093e5761093161093b933690602481600401359101612a2b565b9160443591612dc0565b80f35b8380fd5b50346102c25761095136612a7f565b90808352600b60205261097460018060a01b036005604086200154163314612cbb565b808352600b602052600a6040842001544211156109e85781156109a3578252600b602052600760408320015580f35b60405162461bcd60e51b815260206004820152601f60248201527f5072696365206d7573742062652067726561746572207468616e207a65726f006044820152606490fd5b60405162461bcd60e51b815260206004820152601260248201527141756374696f6e207374696c6c204c69766560701b6044820152606490fd5b5034610b765760c0366003190112610b7657600435610a3f612a95565b815f52602090600b825260ff600860405f20015460081c1615610ab6575b828452600b8083526040852060098101869055600801805462ffffff191692151560101b62ff0000169290921761010017909155905b610aa760a435608435606435604435612d6b565b92845252600a60408320015580f35b303314610b7a57335f526005825260405f20305f52825260405f20600160ff198254161790556040516001815230907f17307eab39ab6107e8899845ad3d59bd9653f200f220920489ca2b5937696c31843392a3303b15610b76576040516323b872dd60e01b8152336004820152306024820152604481018490525f818060648101038183305af18015610b6b57610b4f575b50610a5d565b600b92919450610b5e9061279d565b610a935f94919250610b49565b6040513d5f823e3d90fd5b5f80fd5b60405162461bcd60e51b815260048101839052601960248201527822a9219b99189d1030b8383937bb32903a379031b0b63632b960391b6044820152606490fd5b34610b76576040366003190112610b7657610bd461288e565b610bdc612a95565b6001600160a01b0390911690338214610c4a57335f52600560205260405f20825f52602052610c1a8160405f209060ff801983541691151516179055565b60405190151581527f17307eab39ab6107e8899845ad3d59bd9653f200f220920489ca2b5937696c3160203392a3005b60405162461bcd60e51b815260206004820152601960248201527822a9219b99189d1030b8383937bb32903a379031b0b63632b960391b6044820152606490fd5b34610b76575f366003190112610b7657600880545f805b828110610dd35750610cb390612b74565b915f805b838110610ccc57604051806103f38782612978565b6001808201808311610dbf575f526020600b815260405f20908582015460ff91828216159081610d05575b505050505050600101610cb7565b92600a92600197989592610db39795610d24604051976107c789612766565b90870152610d34600285016127ec565b604087015260038401546060870152888060a01b038060048601541660808801528060058601541660a088015260068501541660c0870152600784015460e08701521561010086015281818b1c16151561012086015260101c161515610140840152600981015461016084015201546101808201526104fe8289612bc3565b91908680808080610cf7565b634e487b7160e01b5f52601160045260245ffd5b60018101808211610dbf575f52600b60205260ff8460405f2001541615610dfd575b600101610ca2565b90610e09600191612aed565b919050610df5565b34610b76576080366003190112610b76576020610e38606435604435602435600435612d6b565b604051908152f35b602080600319360112610b765760043590815f52600b8152610e6b600760405f200154341015612cfd565b815f52600b8152600a60405f20015442101561100157815f52600b815260ff600860405f20015460101c1615610fbd5760405190610ea882612782565b8082019260408301606084015f8152608085015f8152338652348752428352835f52600d855260405f20805468010000000000000000811015610fa957610ef491600182018155612d3f565b939093610f96576003610f6094610f4992600b9960018060a01b039051169a6001600160601b0360a01b9b8c8454161783555160018301555160028201550192511515839060ff801983541691151516179055565b51815461ff00191690151560081b61ff0016179055565b805f52828252600960405f2001610f778154612aed565b90555f5252600660405f20346007820155019033908254161790555f80f35b634e487b7160e01b5f525f60045260245ffd5b634e487b7160e01b5f52604160045260245ffd5b6064906040519062461bcd60e51b82526004820152601860248201527f41756374696f6e206d757374206265206269646461626c6500000000000000006044820152fd5b6064906040519062461bcd60e51b82526004820152601c60248201527f41756374696f6e6564204974656d206e6f7420617661696c61626c65000000006044820152fd5b34610b76575f366003190112610b76576040515f600182600154926110698461272e565b92838352602094856001821691825f146111035750506001146110a8575b50611094925003836127cb565b6103f36040519282849384528301906126f0565b84915060015f527fb10e2d527612073b26eecdfd717e6a320cf44b4afac2b0732d9fcbe2b7fa0cf6905f915b8583106110eb575050611094935082010185611087565b805483890185015287945086939092019181016110d4565b60ff19168582015261109495151560051b85010192508791506110879050565b34610b76576020366003190112610b765761114c60018060a01b0360095460081c163314612cbb565b600435600a55005b34610b765761116236612a7f565b815f52600b91602091838352600a60405f2001544211156113e457815f5283835260018060a01b03600681600660405f2001541633036113a657835f5285855260405f2091600883019360019788958661ffff198254161790555f600986015542600a860155611206600786015461025f858060056009549a6111fd60ff9c60646111f060ff83168a612d58565b0495869160081c1661306d565b01541692612e08565b865f528088526112208784600660405f2001541630612ed9565b865f5280885260405f206005846006830154169101906001600160601b0360a01b825416179055855f905b6112b3575b505050505050505f52600d815260405f20918254915f84558261126f57005b6002936001600160fe1b0384168403610dbf575f525f209160021b8201915b82811061129757005b805f600492555f838201555f858201555f60038201550161128e565b875f52600d90818a5260405f2091825482101561139f57856112d6838b95612d3f565b50545f8c8152868e5260409020890154881691161461137a57895f52808b526113028260405f20612d3f565b509088600380930154161561131c575b50505b018661124b565b611373918b5f52818d526113338460405f20612d3f565b50018460ff198254161790558a5f52808c52866113538460405f20612d3f565b505416908b5f528c528361136a8460405f20612d3f565b5001549061306d565b8b80611312565b8a52600361138b8560405f20612d3f565b5001805461ff001916610100179055611315565b5050611250565b60405162461bcd60e51b81526004810186905260166024820152752cb7ba9030b932903737ba103a3432903bb4b73732b960511b6044820152606490fd5b60405162461bcd60e51b815260048101849052601560248201527441756374696f6e206973207374696c6c204c69766560581b6044820152606490fd5b34610b7657602080600319360112610b765760043561143e612b12565b50805f52600c825260ff60405f2054161561152a575f52600b815260405f2090600a6040519261146d84612766565b611476816127ec565b8452611484600182016127ec565b83850152611494600282016127ec565b60408501526003810154606085015260018060a01b038060048301541660808601528060058301541660a086015260068201541660c0850152600781015460e085015260ff60088201548181161515610100870152818160081c16151561012087015260101c161515610140850152600981015461016085015201546101808301526103f36040519282849384528301906128ba565b60405162461bcd60e51b815260048101839052601860248201527f41756374696f6e6564204974656d206e6f7420666f756e6400000000000000006044820152606490fd5b34610b76576020366003190112610b76576001600160a01b0361159061288e565b1680156115ad575f526003602052602060405f2054604051908152f35b60405162461bcd60e51b815260206004820152602960248201527f4552433732313a2061646472657373207a65726f206973206e6f7420612076616044820152683634b21037bbb732b960b91b6064820152608490fd5b34610b76576020366003190112610b76576020611622600435612c99565b6040516001600160a01b039091168152f35b34610b7657602080600319360112610b76576004355f52600d815260405f2090815461165f81612afb565b9061166d60405192836127cb565b80825282820180945f52835f205f915b8383106116f3576040805187815286518189018190528992820190895f5b8281106116a85784840385f35b855180516001600160a01b031685528083015185840152604080820151908601526060808201511515908601526080908101511515908501529481019460a09093019260010161169b565b60048660019260405161170581612782565b848060a01b038654168152848601548382015260028601546040820152600386015460ff908181161515606084015260081c161515608082015281520192019201919061167d565b34610b765761177461175e366129db565b906040519261176c846127b0565b5f8452612dc0565b005b60a0366003190112610b76576004356001600160401b038111610b76576117a1903690600401612a61565b6024356001600160401b038111610b76576117c0903690600401612a61565b90604480356001600160401b038111610b76576117e1903690600401612a61565b9060649081356001600160401b038111610b7657611803903690600401612a61565b9061180c612fe8565b6084351561212e57600a5434106120da578451156120a05785511561205d5783511561201a5760085492600184018411610dbf57600184016008553315611fd857600184015f90815260026020526040902054611875906001600160a01b031615155b156130e3565b600184015f9081526002602052604090205461189b906001600160a01b0316151561186f565b335f52600360205260405f2060018154019055600184015f52600260205260405f20336001600160601b0360a01b82541617905560018401335f7fddf252ad1be2c89b69c2b068fc378daa952ba7f163c4a11628f55a4df523b3ef8180a4600184015f908152600260205260409020546001600160a01b031615611f7e575050600182015f52600660205260405f20908051906001600160401b038211610fa957611946835461272e565b601f8111611f3d575b50602090601f8311600114611eb2579180602094927ff8e1a15aba9398e019f0b49df1a4fde98ee17ae345cb5f6b5e2c27f5033e8ce796945f92611ea7575b50508160011b915f199060031b1c19161790555b600160405191018152a1600854926119b8612b12565b9284606085015283526020830152604082015260843560e0820152426101808201523360808201523360a0820152815f52600b60205260405f2081519283516001600160401b038111610fa957611a0f835461272e565b601f8111611e66575b506020601f8211600114611e015781929394955f92611df6575b50508160011b915f199060031b1c19161782555b60208301519283516001600160401b038111610fa957611a69600185015461272e565b601f8111611db2575b506020601f8211600114611d475781929394955f92611d3c575b50508160011b915f199060031b1c19161760018401555b60408101519283516001600160401b038111610fa957611ac6600283015461272e565b601f8111611cf8575b506020601f8211600114611c6757908060809493927fa693a8f68fe4df789541ddd1b84d32ccaea90adddcc88406b4bbbf6466328d3c96975f92611c5c575b50508160011b915f199060031b1c19161760028201555b60608201516003820155600481019060018060a01b03918285850151166001600160601b0360a01b825416179055600581018260a0850151166001600160601b0360a01b825416179055600681018260c0850151166001600160601b0360a01b82541617905560e08301516007820155611bf160088201611bb96101008601511515829060ff801983541691151516179055565b610120850151815461ff00191690151560081b61ff0016178155610140850151815462ff0000191690151560101b62ff000016179055565b6101608301516009820155600a610180840151910155845f52600c60205260405f20600160ff19825416179055611c2f348260095460081c1661306d565b60a081848401511692015116604051918252602082015260843560408201525f6060820152a26001600755005b015190508780611b0e565b600283015f5260205f20955f5b601f1984168110611ce05750917fa693a8f68fe4df789541ddd1b84d32ccaea90adddcc88406b4bbbf6466328d3c9596600192608096959483601f19811610611cc8575b505050811b016002820155611b25565b01515f1960f88460031b161c19169055878080611cb8565b82820151885560019097019660209283019201611c74565b600283015f5260205f20601f830160051c810160208410611d35575b601f830160051c82018110611d2a575050611acf565b5f8155600101611d14565b5080611d14565b015190508580611a8c565b600185015f5260205f20905f5b601f1984168110611d9a575060019394959683601f19811610611d82575b505050811b016001840155611aa3565b01515f1960f88460031b161c19169055858080611d72565b9091602060018192858b015181550193019101611d54565b600185015f5260205f20601f830160051c810160208410611def575b601f830160051c82018110611de4575050611a72565b5f8155600101611dce565b5080611dce565b015190508580611a32565b835f5260205f20905f5b601f1984168110611e4e575060019394959683601f19811610611e36575b505050811b018255611a46565b01515f1960f88460031b161c19169055858080611e29565b9091602060018192858b015181550193019101611e0b565b835f5260205f20601f830160051c810160208410611ea0575b601f830160051c82018110611e95575050611a18565b5f8155600101611e7f565b5080611e7f565b01519050898061198e565b90835f5260205f20915f5b601f1985168110611f25575092602094926001927ff8e1a15aba9398e019f0b49df1a4fde98ee17ae345cb5f6b5e2c27f5033e8ce7979583601f19811610611f0d575b505050811b0190556119a2565b01515f1960f88460031b161c19169055898080611f00565b91926020600181928685015181550194019201611ebd565b835f5260205f20601f840160051c810160208510611f77575b601f830160051c82018110611f6c57505061194f565b5f8155600101611f56565b5080611f56565b906d32bc34b9ba32b73a103a37b5b2b760911b6084927f45524337323155524953746f726167653a2055524920736574206f66206e6f6e6040519362461bcd60e51b855260206004860152602e6024860152840152820152fd5b907f4552433732313a206d696e7420746f20746865207a65726f20616464726573736040519162461bcd60e51b83526020600484015260206024840152820152fd5b90507f696d616765206d757374206265207370656369666965640000000000000000006040519162461bcd60e51b83526020600484015260176024840152820152fd5b90507f6465736372697074696f6e2063616e6e6f7420626520656d70747900000000006040519162461bcd60e51b835260206004840152601b6024840152820152fd5b9050736e616d652063616e6e6f7420626520656d70747960601b6040519162461bcd60e51b83526020600484015260146024840152820152fd5b608490676e6720707269636560c01b847f5072696365206d7573742062652067726561746572207468616e206c697374696040519362461bcd60e51b85526020600486015260286024860152840152820152fd5b90507f546869732073616c657320707269636573206973206e6f742076616c696400006040519162461bcd60e51b835260206004840152601e6024840152820152fd5b34610b7657611774612182366129db565b916121956121908433612e15565b612beb565b612ed9565b34610b76575f366003190112610b7657600880545f805b8281106122ce57506121c290612b74565b915f805b8381106121db57604051806103f38782612978565b6001808201808311610dbf575f526020600b815260405f20908582015460ff918282169081612213575b5050505050506001016121c6565b92600a926001979895926122c29795612232604051976107c789612766565b90870152612242600285016127ec565b604087015260038401546060870152888060a01b038060048601541660808801528060058601541660a088015260068501541660c0870152600784015460e0870152151561010086015281818b1c16151561012086015260101c161515610140840152600981015461016084015201546101808201526104fe8289612bc3565b91908680808080612205565b60018101808211610dbf575f52600b60205260ff8460405f200154166122f7575b6001016121b1565b90612303600191612aed565b9190506122ef565b34610b76575f366003190112610b76576020600a54604051908152f35b34610b76576040366003190112610b765761234161288e565b602435906001600160a01b03808061235885612c99565b1692169180831461244d5780331490811561242c575b50156123c1575f83815260046020526040902080546001600160a01b0319168317905561239a83612c99565b167f8c5be1e5ebec7d5bd14f71427d1e84f3dd0314c0f7b2291e5b200ac8c7c3b9255f80a4005b60405162461bcd60e51b815260206004820152603d60248201527f4552433732313a20617070726f76652063616c6c6572206973206e6f7420746f60448201527f6b656e206f776e6572206f7220617070726f76656420666f7220616c6c0000006064820152608490fd5b90505f52600560205260405f20335f5260205260ff60405f2054168461236e565b60405162461bcd60e51b815260206004820152602160248201527f4552433732313a20617070726f76616c20746f2063757272656e74206f776e656044820152603960f91b6064820152608490fd5b34610b76576020366003190112610b76576004355f52600b60205260405f2061253b6124c7826127ec565b916124d4600182016127ec565b926124e1600283016127ec565b9160ff60038201549360018060a01b038060048501541690806005860154169060068601541690600786015492612557600888015495612549600a60098b01549a01549a6040519e8f9e8f926101a08085528401906126f0565b9160208184039101526126f0565b8c810360408e0152906126f0565b9860608b015260808a015260a089015260c088015260e08701528181161515610100870152818160081c16151561012087015260101c1615156101408501526101608401526101808301520390f35b34610b76576020366003190112610b76576020611622600435612aa4565b34610b76575f366003190112610b76576040515f805490826125e58361272e565b91828252602093600190856001821691825f146111035750506001146126125750611094925003836127cb565b5f808052859250907f290decd9548b62a8d60345a988386fc84ba6bc95484008f6362f93160ef3e5635b858310612653575050611094935082010185611087565b8054838901850152879450869390920191810161263c565b34610b76576020366003190112610b76576004359063ffffffff60e01b8216809203610b7657602091632483248360e11b81149081156126ad575b5015158152f35b6380ac58cd60e01b8114915081156126df575b81156126ce575b50836126a6565b6301ffc9a760e01b149050836126c7565b635b5e139f60e01b811491506126c0565b91908251928382525f5b84811061271a575050825f602080949584010152601f8019910116010190565b6020818301810151848301820152016126fa565b90600182811c9216801561275c575b602083101461274857565b634e487b7160e01b5f52602260045260245ffd5b91607f169161273d565b6101a081019081106001600160401b03821117610fa957604052565b60a081019081106001600160401b03821117610fa957604052565b6001600160401b038111610fa957604052565b602081019081106001600160401b03821117610fa957604052565b90601f801991011681019081106001600160401b03821117610fa957604052565b9060405191825f82546127fe8161272e565b908184526020946001916001811690815f1461286c575060011461282e575b50505061282c925003836127cb565b565b5f90815285812095935091905b81831061285457505061282c93508201015f808061281d565b8554888401850152948501948794509183019161283b565b9250505061282c94925060ff191682840152151560051b8201015f808061281d565b600435906001600160a01b0382168203610b7657565b602435906001600160a01b0382168203610b7657565b906128f96128e76128d56101a08551908086528501906126f0565b602085015184820360208601526126f0565b604084015183820360408501526126f0565b9160608101516060830152608081015160018060a01b0380911660808401528060a08301511660a084015260c08201511660c083015260e081015160e083015261010080820151151590830152610120808201511515908301526101408082015115159083015261016080820151908301526101808091015191015290565b6020808201906020835283518092526040830192602060408460051b8301019501935f915b8483106129ad5750505050505090565b90919293949584806129cb600193603f198682030187528a516128ba565b980193019301919493929061299d565b6060906003190112610b76576001600160a01b03906004358281168103610b7657916024359081168103610b76579060443590565b6001600160401b038111610fa957601f01601f191660200190565b929192612a3782612a10565b91612a4560405193846127cb565b829481845281830111610b76578281602093845f960137010152565b9080601f83011215610b7657816020612a7c93359101612a2b565b90565b6040906003190112610b76576004359060243590565b602435908115158203610b7657565b5f81815260026020526040902054612ac6906001600160a01b03161515612c4d565b5f908152600460205260409020546001600160a01b031690565b91908201809211610dbf57565b5f198114610dbf5760010190565b6001600160401b038111610fa95760051b60200190565b60405190612b1f82612766565b5f610180836060815260606020820152606060408201528260608201528260808201528260a08201528260c08201528260e0820152826101008201528261012082015282610140820152826101608201520152565b90612b7e82612afb565b612b8b60405191826127cb565b8281528092612b9c601f1991612afb565b01905f5b828110612bac57505050565b602090612bb7612b12565b82828501015201612ba0565b8051821015612bd75760209160051b010190565b634e487b7160e01b5f52603260045260245ffd5b15612bf257565b60405162461bcd60e51b815260206004820152602d60248201527f4552433732313a2063616c6c6572206973206e6f7420746f6b656e206f776e6560448201526c1c881bdc88185c1c1c9bdd9959609a1b6064820152608490fd5b15612c5457565b60405162461bcd60e51b815260206004820152601860248201527f4552433732313a20696e76616c696420746f6b656e20494400000000000000006044820152606490fd5b5f908152600260205260409020546001600160a01b0316612a7c811515612c4d565b15612cc257565b60405162461bcd60e51b8152602060048201526013602482015272556e617574686f72697a656420656e7469747960681b6044820152606490fd5b15612d0457565b60405162461bcd60e51b8152602060048201526013602482015272125b9cdd59999a58da595b9d08105b5bdd5b9d606a1b6044820152606490fd5b8054821015612bd7575f5260205f209060021b01905f90565b81810292918115918404141715610dbf57565b612d759042612ae0565b9080603c0290603c820403610dbf57612d8d91612ae0565b90610e109080820291820403610dbf57612da691612ae0565b90620151809080820291820403610dbf57612a7c91612ae0565b90612de4939291612dd46121908433612e15565b612ddf838383612ed9565b61312f565b15612deb57565b60405162461bcd60e51b815280612e0460048201613090565b0390fd5b91908203918211610dbf57565b906001600160a01b038080612e2984612c99565b16931691838314938415612e5c575b508315612e46575b50505090565b612e5291929350612aa4565b16145f8080612e40565b9093505f52600560205260405f20825f5260205260ff60405f205416925f612e38565b15612e8657565b60405162461bcd60e51b815260206004820152602560248201527f4552433732313a207472616e736665722066726f6d20696e636f72726563742060448201526437bbb732b960d91b6064820152608490fd5b90612f0191612ee784612c99565b6001600160a01b0393918416928492909183168414612e7f565b16918215612f975781612f1e91612f1786612c99565b1614612e7f565b825f52600460205260405f206001600160601b0360a01b90818154169055815f52600360205260405f205f198154019055825f5260405f2060018154019055835f5260026020528260405f20918254161790557fddf252ad1be2c89b69c2b068fc378daa952ba7f163c4a11628f55a4df523b3ef5f80a4565b60405162461bcd60e51b8152602060048201526024808201527f4552433732313a207472616e7366657220746f20746865207a65726f206164646044820152637265737360e01b6064820152608490fd5b600260075414612ff9576002600755565b60405162461bcd60e51b815260206004820152601f60248201527f5265656e7472616e637947756172643a207265656e7472616e742063616c6c006044820152606490fd5b3d15613068573d9061304f82612a10565b9161305d60405193846127cb565b82523d5f602084013e565b606090565b5f918291829182916001600160a01b03165af161308861303e565b5015610b7657565b60809060208152603260208201527f4552433732313a207472616e7366657220746f206e6f6e20455243373231526560408201527131b2b4bb32b91034b6b83632b6b2b73a32b960711b60608201520190565b156130ea57565b60405162461bcd60e51b815260206004820152601c60248201527f4552433732313a20746f6b656e20616c7265616479206d696e746564000000006044820152606490fd5b92909190823b1561321457613181926020925f60018060a01b0360405180978196829584630a85bd0160e11b9c8d865233600487015216602485015260448401526080606484015260848301906126f0565b0393165af15f91816131cf575b506131c15761319b61303e565b805190816131bc5760405162461bcd60e51b815280612e0460048201613090565b602001fd5b6001600160e01b0319161490565b9091506020813d60201161320c575b816131eb602093836127cb565b81010312610b7657516001600160e01b031981168103610b7657905f61318e565b3d91506131de565b5050505060019056fea2646970667358221220cd3e84e04690b8a1c0b2d178a001d2727a4f0bf7a2b9bfd862988dbb1945242e64736f6c63430008180033","opcodes":"PUSH1 0x80 CALLVALUE PUSH3 0x336 JUMPI PUSH1 0x1F NOT SWAP1 PUSH1 0x1F SWAP1 PUSH1 0x1 PUSH1 0x1 PUSH1 0x40 SHL SUB PUSH3 0x35AE CODESIZE DUP2 SWAP1 SUB DUP5 DUP2 ADD DUP7 AND DUP5 ADD DUP4 DUP2 GT DUP6 DUP3 LT OR PUSH3 0x258 JUMPI DUP5 SWAP3 DUP3 SWAP2 PUSH1 0x40 MSTORE DUP4 CODECOPY PUSH1 0x20 SWAP4 DUP5 SWAP2 DUP2 ADD SUB SLT PUSH3 0x336 JUMPI MLOAD SWAP3 PUSH1 0xFF DUP5 AND DUP1 SWAP5 SUB PUSH3 0x336 JUMPI PUSH3 0x60 PUSH3 0x33A JUMP JUMPDEST SWAP3 PUSH1 0x7 DUP5 MSTORE PUSH7 0x4372656174436F PUSH1 0xC8 SHL DUP2 DUP6 ADD MSTORE PUSH3 0x7E PUSH3 0x33A JUMP JUMPDEST SWAP6 PUSH1 0x3 DUP8 MSTORE PUSH3 0x10D495 PUSH1 0xEA SHL DUP3 DUP9 ADD MSTORE DUP5 MLOAD DUP5 DUP2 GT PUSH3 0x258 JUMPI PUSH0 SLOAD PUSH1 0x1 SWAP7 DUP8 DUP3 DUP2 SHR SWAP3 AND DUP1 ISZERO PUSH3 0x32B JUMPI JUMPDEST DUP6 DUP4 LT EQ PUSH3 0x239 JUMPI DUP2 DUP7 DUP5 SWAP4 GT PUSH3 0x2D8 JUMPI JUMPDEST POP DUP5 SWAP1 DUP7 DUP4 GT PUSH1 0x1 EQ PUSH3 0x278 JUMPI PUSH0 SWAP3 PUSH3 0x26C JUMPI JUMPDEST POP POP PUSH0 NOT PUSH1 0x3 DUP4 SWAP1 SHL SHR NOT AND SWAP1 DUP7 SHL OR PUSH0 SSTORE JUMPDEST DUP7 MLOAD SWAP4 DUP5 GT PUSH3 0x258 JUMPI DUP5 SLOAD DUP6 DUP2 DUP2 SHR SWAP2 AND DUP1 ISZERO PUSH3 0x24D JUMPI JUMPDEST DUP4 DUP3 LT EQ PUSH3 0x239 JUMPI DUP4 DUP2 GT PUSH3 0x1F1 JUMPI JUMPDEST POP DUP2 SWAP3 DUP5 GT PUSH1 0x1 EQ PUSH3 0x18E JUMPI POP POP DUP2 SWAP3 SWAP4 SWAP5 PUSH0 SWAP3 PUSH3 0x182 JUMPI JUMPDEST POP POP PUSH0 NOT PUSH1 0x3 DUP4 SWAP1 SHL SHR NOT AND SWAP1 DUP3 SHL OR DUP2 SSTORE JUMPDEST PUSH1 0x7 SSTORE PUSH7 0x470DE4DF820000 PUSH1 0xA SSTORE PUSH1 0x9 DUP1 SLOAD PUSH1 0x1 PUSH1 0x1 PUSH1 0xA8 SHL SUB NOT AND SWAP1 SWAP2 OR CALLER PUSH1 0x8 SHL PUSH2 0x100 PUSH1 0x1 PUSH1 0xA8 SHL SUB AND OR SWAP1 SSTORE PUSH1 0x40 MLOAD PUSH2 0x3253 SWAP1 DUP2 PUSH3 0x35B DUP3 CODECOPY RETURN JUMPDEST ADD MLOAD SWAP1 POP PUSH0 DUP1 PUSH3 0x12F JUMP JUMPDEST PUSH0 DUP6 DUP2 MSTORE DUP3 DUP2 KECCAK256 SWAP2 DUP6 AND SWAP8 SWAP2 SWAP4 SWAP3 JUMPDEST DUP9 DUP3 LT PUSH3 0x1D9 JUMPI POP POP DUP4 DUP6 SWAP7 SWAP8 LT PUSH3 0x1C0 JUMPI JUMPDEST POP POP POP DUP2 SHL ADD DUP2 SSTORE PUSH3 0x142 JUMP JUMPDEST ADD MLOAD PUSH0 NOT PUSH1 0xF8 DUP5 PUSH1 0x3 SHL AND SHR NOT AND SWAP1 SSTORE PUSH0 DUP1 DUP1 PUSH3 0x1B2 JUMP JUMPDEST DUP1 DUP8 DUP6 SWAP7 DUP3 SWAP5 SWAP7 DUP7 ADD MLOAD DUP2 SSTORE ADD SWAP6 ADD SWAP4 ADD SWAP1 PUSH3 0x19D JUMP JUMPDEST DUP6 PUSH0 MSTORE DUP3 PUSH0 KECCAK256 DUP5 DUP1 DUP8 ADD PUSH1 0x5 SHR DUP3 ADD SWAP3 DUP6 DUP9 LT PUSH3 0x22F JUMPI JUMPDEST ADD PUSH1 0x5 SHR ADD SWAP1 DUP7 SWAP1 JUMPDEST DUP3 DUP2 LT PUSH3 0x223 JUMPI POP POP PUSH3 0x114 JUMP JUMPDEST PUSH0 DUP2 SSTORE ADD DUP7 SWAP1 PUSH3 0x213 JUMP JUMPDEST SWAP3 POP DUP2 SWAP3 PUSH3 0x20A JUMP JUMPDEST PUSH4 0x4E487B71 PUSH1 0xE0 SHL PUSH0 MSTORE PUSH1 0x22 PUSH1 0x4 MSTORE PUSH1 0x24 PUSH0 REVERT JUMPDEST SWAP1 PUSH1 0x7F AND SWAP1 PUSH3 0x102 JUMP JUMPDEST PUSH4 0x4E487B71 PUSH1 0xE0 SHL PUSH0 MSTORE PUSH1 0x41 PUSH1 0x4 MSTORE PUSH1 0x24 PUSH0 REVERT JUMPDEST ADD MLOAD SWAP1 POP PUSH0 DUP1 PUSH3 0xD5 JUMP JUMPDEST SWAP1 DUP5 DUP10 SWAP5 AND SWAP2 PUSH0 DUP1 MSTORE DUP7 PUSH0 KECCAK256 SWAP3 PUSH0 JUMPDEST DUP9 DUP3 DUP3 LT PUSH3 0x2C1 JUMPI POP POP DUP5 GT PUSH3 0x2A8 JUMPI JUMPDEST POP POP POP DUP2 SHL ADD PUSH0 SSTORE PUSH3 0xE8 JUMP JUMPDEST ADD MLOAD PUSH0 NOT PUSH1 0xF8 DUP5 PUSH1 0x3 SHL AND SHR NOT AND SWAP1 SSTORE PUSH0 DUP1 DUP1 PUSH3 0x29A JUMP JUMPDEST DUP4 DUP6 ADD MLOAD DUP7 SSTORE DUP13 SWAP8 SWAP1 SWAP6 ADD SWAP5 SWAP4 DUP5 ADD SWAP4 ADD PUSH3 0x287 JUMP JUMPDEST SWAP1 SWAP2 POP PUSH0 DUP1 MSTORE DUP5 PUSH0 KECCAK256 DUP7 DUP1 DUP6 ADD PUSH1 0x5 SHR DUP3 ADD SWAP3 DUP8 DUP7 LT PUSH3 0x321 JUMPI JUMPDEST SWAP2 DUP11 SWAP2 DUP7 SWAP6 SWAP5 SWAP4 ADD PUSH1 0x5 SHR ADD SWAP2 JUMPDEST DUP3 DUP2 LT PUSH3 0x312 JUMPI POP POP PUSH3 0xBF JUMP JUMPDEST PUSH0 DUP2 SSTORE DUP6 SWAP5 POP DUP11 SWAP2 ADD PUSH3 0x302 JUMP JUMPDEST SWAP3 POP DUP2 SWAP3 PUSH3 0x2F4 JUMP JUMPDEST SWAP2 PUSH1 0x7F AND SWAP2 PUSH3 0xAB JUMP JUMPDEST PUSH0 DUP1 REVERT JUMPDEST PUSH1 0x40 DUP1 MLOAD SWAP2 SWAP1 DUP3 ADD PUSH1 0x1 PUSH1 0x1 PUSH1 0x40 SHL SUB DUP2 GT DUP4 DUP3 LT OR PUSH3 0x258 JUMPI PUSH1 0x40 MSTORE JUMP INVALID PUSH1 0x80 DUP1 PUSH1 0x40 MSTORE PUSH1 0x4 CALLDATASIZE LT ISZERO PUSH2 0x12 JUMPI PUSH0 DUP1 REVERT JUMPDEST PUSH0 SWAP1 PUSH0 CALLDATALOAD PUSH1 0xE0 SHR SWAP1 DUP2 PUSH4 0x1FFC9A7 EQ PUSH2 0x266B JUMPI POP DUP1 PUSH4 0x6FDDE03 EQ PUSH2 0x25C4 JUMPI DUP1 PUSH4 0x81812FC EQ PUSH2 0x25A6 JUMPI DUP1 PUSH4 0x8C41169 EQ PUSH2 0x249C JUMPI DUP1 PUSH4 0x95EA7B3 EQ PUSH2 0x2328 JUMPI DUP1 PUSH4 0x12E85585 EQ PUSH2 0x230B JUMPI DUP1 PUSH4 0x1D8DF68F EQ PUSH2 0x219A JUMPI DUP1 PUSH4 0x23B872DD EQ PUSH2 0x2171 JUMPI DUP1 PUSH4 0x33748DCB EQ PUSH2 0x1776 JUMPI DUP1 PUSH4 0x42842E0E EQ PUSH2 0x174D JUMPI DUP1 PUSH4 0x4FA7B507 EQ PUSH2 0x1634 JUMPI DUP1 PUSH4 0x6352211E EQ PUSH2 0x1604 JUMPI DUP1 PUSH4 0x70A08231 EQ PUSH2 0x156F JUMPI DUP1 PUSH4 0x78BD7935 EQ PUSH2 0x1421 JUMPI DUP1 PUSH4 0x7B154140 EQ PUSH2 0x1154 JUMPI DUP1 PUSH4 0x7C726B69 EQ PUSH2 0x1123 JUMPI DUP1 PUSH4 0x95D89B41 EQ PUSH2 0x1045 JUMPI DUP1 PUSH4 0x9979EF45 EQ PUSH2 0xE40 JUMPI DUP1 PUSH4 0x9AB4A00E EQ PUSH2 0xE11 JUMPI DUP1 PUSH4 0x9E78EFD6 EQ PUSH2 0xC8B JUMPI DUP1 PUSH4 0xA22CB465 EQ PUSH2 0xBBB JUMPI DUP1 PUSH4 0xA923F18C EQ PUSH2 0xA22 JUMPI DUP1 PUSH4 0xB3DE019C EQ PUSH2 0x942 JUMPI DUP1 PUSH4 0xB88D4FDE EQ PUSH2 0x8DB JUMPI DUP1 PUSH4 0xBF65A333 EQ PUSH2 0x714 JUMPI DUP1 PUSH4 0xC87B56DD EQ PUSH2 0x6A5 JUMPI DUP1 PUSH4 0xCBD2BDFD EQ PUSH2 0x57F JUMPI DUP1 PUSH4 0xDB0BD5C9 EQ PUSH2 0x3AF JUMPI DUP1 PUSH4 0xE985E9C5 EQ PUSH2 0x35D JUMPI PUSH4 0xF5A06ACF EQ PUSH2 0x168 JUMPI PUSH0 DUP1 REVERT JUMPDEST PUSH1 0x20 SWAP1 DUP2 PUSH1 0x3 NOT CALLDATASIZE ADD SLT PUSH2 0x2C2 JUMPI PUSH1 0x4 CALLDATALOAD PUSH2 0x181 PUSH2 0x2FE8 JUMP JUMPDEST DUP1 DUP3 MSTORE PUSH1 0xB DUP4 MSTORE PUSH2 0x19B PUSH1 0x7 PUSH1 0x40 DUP5 KECCAK256 ADD SLOAD CALLVALUE LT ISZERO PUSH2 0x2CFD JUMP JUMPDEST DUP1 DUP3 MSTORE PUSH1 0xB DUP4 MSTORE PUSH1 0xA PUSH1 0x40 DUP4 KECCAK256 ADD SLOAD TIMESTAMP LT ISZERO PUSH2 0x318 JUMPI DUP1 DUP3 MSTORE PUSH1 0xB DUP4 MSTORE PUSH1 0xFF PUSH1 0x8 PUSH1 0x40 DUP5 KECCAK256 ADD SLOAD PUSH1 0x10 SHR AND PUSH2 0x2D3 JUMPI PUSH1 0xB DUP3 SWAP4 DUP3 DUP5 MSTORE MSTORE PUSH2 0x265 PUSH1 0x40 DUP4 KECCAK256 PUSH2 0x25F PUSH2 0x24D PUSH2 0x259 PUSH1 0x1 DUP1 PUSH1 0xA0 SHL SUB SWAP4 DUP5 PUSH1 0x4 DUP3 ADD SLOAD AND SWAP5 PUSH1 0x5 DUP3 ADD DUP1 SLOAD SWAP3 PUSH1 0x8 DUP2 ADD PUSH1 0x1 PUSH2 0xFFFF NOT DUP3 SLOAD AND OR SWAP1 SSTORE DUP11 PUSH1 0x9 DUP3 ADD SSTORE PUSH1 0xA TIMESTAMP SWAP2 ADD SSTORE CALLER PUSH1 0x1 PUSH1 0x1 PUSH1 0x60 SHL SUB PUSH1 0xA0 SHL DUP5 AND OR SWAP1 SSTORE PUSH1 0x64 PUSH2 0x237 PUSH1 0xFF PUSH1 0x9 SLOAD AND CALLVALUE PUSH2 0x2D58 JUMP JUMPDEST DIV SWAP4 DUP5 SWAP3 DUP3 PUSH2 0x246 DUP6 CALLVALUE PUSH2 0x2E08 JUMP JUMPDEST SWAP2 AND PUSH2 0x306D JUMP JUMPDEST PUSH1 0x9 SLOAD PUSH1 0x8 SHR AND PUSH2 0x306D JUMP JUMPDEST CALLVALUE PUSH2 0x2E08 JUMP JUMPDEST SWAP1 PUSH2 0x306D JUMP JUMPDEST ADDRESS EXTCODESIZE ISZERO PUSH2 0x2D0 JUMPI PUSH1 0x40 MLOAD PUSH4 0x23B872DD PUSH1 0xE0 SHL DUP2 MSTORE ADDRESS PUSH1 0x4 DUP3 ADD MSTORE CALLER PUSH1 0x24 DUP3 ADD MSTORE PUSH1 0x44 DUP2 ADD SWAP2 SWAP1 SWAP2 MSTORE DUP2 DUP2 DUP1 PUSH1 0x64 DUP2 ADD SUB DUP2 DUP4 ADDRESS GAS CALL DUP1 ISZERO PUSH2 0x2C5 JUMPI PUSH2 0x2AE JUMPI JUMPDEST POP PUSH1 0x1 PUSH1 0x7 SSTORE DUP1 RETURN JUMPDEST PUSH2 0x2B7 SWAP1 PUSH2 0x279D JUMP JUMPDEST PUSH2 0x2C2 JUMPI DUP1 PUSH0 PUSH2 0x2A5 JUMP JUMPDEST DUP1 REVERT JUMPDEST PUSH1 0x40 MLOAD RETURNDATASIZE DUP5 DUP3 RETURNDATACOPY RETURNDATASIZE SWAP1 REVERT JUMPDEST POP REVERT JUMPDEST PUSH1 0x40 MLOAD PUSH3 0x461BCD PUSH1 0xE5 SHL DUP2 MSTORE PUSH1 0x4 DUP2 ADD DUP5 SWAP1 MSTORE PUSH1 0x1C PUSH1 0x24 DUP3 ADD MSTORE PUSH32 0x41756374696F6E206D757374206E6F74206265206269646461626C6500000000 PUSH1 0x44 DUP3 ADD MSTORE PUSH1 0x64 SWAP1 REVERT JUMPDEST PUSH1 0x40 MLOAD PUSH3 0x461BCD PUSH1 0xE5 SHL DUP2 MSTORE PUSH1 0x4 DUP2 ADD DUP5 SWAP1 MSTORE PUSH1 0x1F PUSH1 0x24 DUP3 ADD MSTORE PUSH32 0x41756374696F6E6564204974656D206973206E6F7420617661696C61626C6500 PUSH1 0x44 DUP3 ADD MSTORE PUSH1 0x64 SWAP1 REVERT JUMPDEST POP CALLVALUE PUSH2 0x2C2 JUMPI PUSH1 0x40 CALLDATASIZE PUSH1 0x3 NOT ADD SLT PUSH2 0x2C2 JUMPI PUSH2 0x377 PUSH2 0x288E JUMP JUMPDEST PUSH1 0x40 PUSH2 0x381 PUSH2 0x28A4 JUMP JUMPDEST SWAP3 PUSH1 0x1 DUP1 PUSH1 0xA0 SHL SUB DUP1 SWAP4 AND DUP2 MSTORE PUSH1 0x5 PUSH1 0x20 MSTORE KECCAK256 SWAP2 AND PUSH0 MSTORE PUSH1 0x20 MSTORE PUSH1 0x20 PUSH1 0xFF PUSH1 0x40 PUSH0 KECCAK256 SLOAD AND PUSH1 0x40 MLOAD SWAP1 ISZERO ISZERO DUP2 MSTORE RETURN JUMPDEST POP CALLVALUE PUSH2 0x2C2 JUMPI DUP1 PUSH1 0x3 NOT CALLDATASIZE ADD SLT PUSH2 0x2C2 JUMPI PUSH1 0x8 SWAP1 PUSH1 0x8 SLOAD DUP2 DUP3 JUMPDEST DUP3 DUP2 LT PUSH2 0x52E JUMPI POP PUSH2 0x3DA SWAP1 PUSH2 0x2B74 JUMP JUMPDEST SWAP2 DUP1 DUP1 JUMPDEST DUP4 DUP2 LT PUSH2 0x3F7 JUMPI PUSH1 0x40 MLOAD DUP1 PUSH2 0x3F3 DUP8 DUP3 PUSH2 0x2978 JUMP JUMPDEST SUB SWAP1 RETURN JUMPDEST PUSH1 0x1 DUP1 DUP3 ADD DUP1 DUP4 GT PUSH2 0x51A JUMPI DUP1 DUP5 MSTORE PUSH1 0xB PUSH1 0x20 SWAP1 DUP1 DUP3 MSTORE PUSH1 0xA SWAP3 TIMESTAMP DUP5 PUSH1 0x40 DUP10 KECCAK256 ADD SLOAD GT PUSH2 0x42C JUMPI JUMPDEST POP POP POP POP POP PUSH1 0x1 ADD PUSH2 0x3DE JUMP JUMPDEST SWAP2 PUSH1 0x1 SWAP6 SWAP8 SWAP4 SWAP2 PUSH2 0x50F SWAP6 SWAP4 DUP9 MSTORE DUP2 MSTORE PUSH1 0x40 DUP8 KECCAK256 SWAP1 PUSH2 0x463 PUSH1 0x40 MLOAD SWAP5 PUSH2 0x451 DUP7 PUSH2 0x2766 JUMP JUMPDEST PUSH2 0x45A DUP5 PUSH2 0x27EC JUMP JUMPDEST DUP7 MSTORE DUP4 ADD PUSH2 0x27EC JUMP JUMPDEST SWAP1 DUP5 ADD MSTORE PUSH2 0x473 PUSH1 0x2 DUP3 ADD PUSH2 0x27EC JUMP JUMPDEST PUSH1 0x40 DUP5 ADD MSTORE PUSH1 0x3 DUP2 ADD SLOAD PUSH1 0x60 DUP5 ADD MSTORE DUP6 DUP1 PUSH1 0xA0 SHL SUB DUP1 PUSH1 0x4 DUP4 ADD SLOAD AND PUSH1 0x80 DUP6 ADD MSTORE DUP1 PUSH1 0x5 DUP4 ADD SLOAD AND PUSH1 0xA0 DUP6 ADD MSTORE PUSH1 0x6 DUP3 ADD SLOAD AND PUSH1 0xC0 DUP5 ADD MSTORE PUSH1 0x7 DUP2 ADD SLOAD PUSH1 0xE0 DUP5 ADD MSTORE DUP11 DUP2 ADD SLOAD DUP1 DUP13 PUSH1 0xFF SWAP3 DUP4 SWAP2 DUP3 DUP3 AND ISZERO ISZERO PUSH2 0x100 DUP10 ADD MSTORE SHR AND ISZERO ISZERO PUSH2 0x120 DUP7 ADD MSTORE PUSH1 0x10 SHR AND ISZERO ISZERO PUSH2 0x140 DUP5 ADD MSTORE PUSH1 0x9 DUP2 ADD SLOAD PUSH2 0x160 DUP5 ADD MSTORE ADD SLOAD PUSH2 0x180 DUP3 ADD MSTORE PUSH2 0x4FE DUP3 DUP10 PUSH2 0x2BC3 JUMP JUMPDEST MSTORE PUSH2 0x509 DUP2 DUP9 PUSH2 0x2BC3 JUMP JUMPDEST POP PUSH2 0x2AED JUMP JUMPDEST SWAP3 SWAP1 PUSH0 DUP1 DUP1 DUP1 PUSH2 0x41F JUMP JUMPDEST PUSH4 0x4E487B71 PUSH1 0xE0 SHL DUP5 MSTORE PUSH1 0x11 PUSH1 0x4 MSTORE PUSH1 0x24 DUP5 REVERT JUMPDEST PUSH1 0x1 DUP2 ADD DUP1 DUP3 GT PUSH2 0x56B JUMPI DUP5 MSTORE PUSH1 0xB PUSH1 0x20 MSTORE TIMESTAMP PUSH1 0xA PUSH1 0x40 DUP7 KECCAK256 ADD SLOAD GT PUSH2 0x557 JUMPI JUMPDEST PUSH1 0x1 ADD PUSH2 0x3C9 JUMP JUMPDEST SWAP1 PUSH2 0x563 PUSH1 0x1 SWAP2 PUSH2 0x2AED JUMP JUMPDEST SWAP2 SWAP1 POP PUSH2 0x54F JUMP JUMPDEST PUSH4 0x4E487B71 PUSH1 0xE0 SHL DUP6 MSTORE PUSH1 0x11 PUSH1 0x4 MSTORE PUSH1 0x24 DUP6 REVERT JUMPDEST POP CALLVALUE PUSH2 0x2C2 JUMPI DUP1 PUSH1 0x3 NOT CALLDATASIZE ADD SLT PUSH2 0x2C2 JUMPI PUSH1 0x8 DUP1 SLOAD PUSH2 0x59D DUP2 PUSH2 0x2B74 JUMP JUMPDEST SWAP2 DUP4 JUMPDEST DUP3 DUP2 LT PUSH2 0x5B5 JUMPI PUSH1 0x40 MLOAD DUP1 PUSH2 0x3F3 DUP7 DUP3 PUSH2 0x2978 JUMP JUMPDEST PUSH1 0x1 DUP1 DUP3 ADD DUP1 DUP4 GT PUSH2 0x691 JUMPI SWAP1 PUSH1 0x1 SWAP3 SWAP2 DUP8 MSTORE PUSH1 0xA PUSH1 0x20 PUSH1 0xB DUP2 MSTORE PUSH1 0x40 DUP10 KECCAK256 SWAP1 PUSH2 0x5E5 PUSH1 0x40 MLOAD SWAP5 PUSH2 0x451 DUP7 PUSH2 0x2766 JUMP JUMPDEST SWAP1 DUP5 ADD MSTORE PUSH2 0x5F5 PUSH1 0x2 DUP3 ADD PUSH2 0x27EC JUMP JUMPDEST PUSH1 0x40 DUP5 ADD MSTORE PUSH1 0x3 DUP2 ADD SLOAD PUSH1 0x60 DUP5 ADD MSTORE DUP5 DUP1 PUSH1 0xA0 SHL SUB DUP1 PUSH1 0x4 DUP4 ADD SLOAD AND PUSH1 0x80 DUP6 ADD MSTORE DUP1 PUSH1 0x5 DUP4 ADD SLOAD AND PUSH1 0xA0 DUP6 ADD MSTORE PUSH1 0x6 DUP3 ADD SLOAD AND PUSH1 0xC0 DUP5 ADD MSTORE PUSH1 0x7 DUP2 ADD SLOAD PUSH1 0xE0 DUP5 ADD MSTORE DUP6 DUP2 ADD SLOAD PUSH1 0xFF SWAP1 DUP2 DUP2 AND ISZERO ISZERO PUSH2 0x100 DUP7 ADD MSTORE DUP2 DUP2 DUP10 SHR AND ISZERO ISZERO PUSH2 0x120 DUP7 ADD MSTORE PUSH1 0x10 SHR AND ISZERO ISZERO PUSH2 0x140 DUP5 ADD MSTORE PUSH1 0x9 DUP2 ADD SLOAD PUSH2 0x160 DUP5 ADD MSTORE ADD SLOAD PUSH2 0x180 DUP3 ADD MSTORE PUSH2 0x67F DUP3 DUP8 PUSH2 0x2BC3 JUMP JUMPDEST MSTORE PUSH2 0x68A DUP2 DUP7 PUSH2 0x2BC3 JUMP JUMPDEST POP ADD PUSH2 0x5A0 JUMP JUMPDEST PUSH4 0x4E487B71 PUSH1 0xE0 SHL DUP8 MSTORE PUSH1 0x11 PUSH1 0x4 MSTORE PUSH1 0x24 DUP8 REVERT JUMPDEST POP CALLVALUE PUSH2 0x2C2 JUMPI PUSH1 0x20 CALLDATASIZE PUSH1 0x3 NOT ADD SLT PUSH2 0x2C2 JUMPI PUSH1 0x4 CALLDATALOAD PUSH0 DUP2 DUP2 MSTORE PUSH1 0x2 PUSH1 0x20 MSTORE PUSH1 0x40 SWAP1 KECCAK256 SLOAD PUSH2 0x6DC SWAP1 PUSH1 0x1 PUSH1 0x1 PUSH1 0xA0 SHL SUB AND ISZERO ISZERO PUSH2 0x2C4D JUMP JUMPDEST PUSH0 MSTORE PUSH1 0x6 PUSH1 0x20 MSTORE PUSH2 0x3F3 PUSH2 0x6F2 PUSH1 0x40 PUSH0 KECCAK256 PUSH2 0x27EC JUMP JUMPDEST PUSH0 PUSH1 0x40 MLOAD PUSH2 0x6FF DUP2 PUSH2 0x27B0 JUMP JUMPDEST MSTORE PUSH1 0x40 MLOAD SWAP2 DUP3 SWAP2 PUSH1 0x20 DUP4 MSTORE PUSH1 0x20 DUP4 ADD SWAP1 PUSH2 0x26F0 JUMP JUMPDEST POP CALLVALUE PUSH2 0x2C2 JUMPI DUP1 PUSH1 0x3 NOT CALLDATASIZE ADD SLT PUSH2 0x2C2 JUMPI PUSH1 0x8 SWAP1 PUSH1 0x8 SLOAD SWAP1 DUP1 DUP2 JUMPDEST DUP4 DUP2 LT PUSH2 0x895 JUMPI POP PUSH2 0x740 SWAP1 PUSH2 0x2B74 JUMP JUMPDEST SWAP3 DUP2 SWAP1 DUP3 JUMPDEST DUP5 DUP2 LT PUSH2 0x75A JUMPI PUSH1 0x40 MLOAD DUP1 PUSH2 0x3F3 DUP9 DUP3 PUSH2 0x2978 JUMP JUMPDEST PUSH1 0x1 DUP1 DUP3 ADD DUP1 DUP4 GT PUSH2 0x881 JUMPI DUP1 DUP7 MSTORE PUSH1 0xB PUSH1 0x20 DUP2 DUP2 MSTORE PUSH1 0x40 DUP9 KECCAK256 PUSH1 0x5 SWAP1 DUP2 ADD SLOAD SWAP2 SWAP4 PUSH1 0x1 PUSH1 0x1 PUSH1 0xA0 SHL SUB SWAP4 SWAP2 SWAP3 DUP5 AND CALLER EQ PUSH2 0x79E JUMPI JUMPDEST POP POP POP POP POP POP PUSH1 0x1 ADD PUSH2 0x745 JUMP JUMPDEST SWAP3 DUP1 PUSH1 0xA SWAP4 PUSH1 0x1 SWAP9 SWAP11 SWAP7 SWAP4 PUSH2 0x875 SWAP9 SWAP7 DUP14 MSTORE DUP5 MSTORE PUSH1 0x40 DUP13 KECCAK256 SWAP4 PUSH2 0x7D9 PUSH1 0x40 MLOAD SWAP8 PUSH2 0x7C7 DUP10 PUSH2 0x2766 JUMP JUMPDEST PUSH2 0x7D0 DUP8 PUSH2 0x27EC JUMP JUMPDEST DUP10 MSTORE DUP7 ADD PUSH2 0x27EC JUMP JUMPDEST SWAP1 DUP8 ADD MSTORE PUSH2 0x7E9 PUSH1 0x2 DUP6 ADD PUSH2 0x27EC JUMP JUMPDEST PUSH1 0x40 DUP8 ADD MSTORE PUSH1 0x3 DUP5 ADD SLOAD PUSH1 0x60 DUP8 ADD MSTORE DUP2 PUSH1 0x4 DUP6 ADD SLOAD AND PUSH1 0x80 DUP8 ADD MSTORE DUP4 ADD SLOAD AND PUSH1 0xA0 DUP6 ADD MSTORE PUSH1 0x6 DUP3 ADD SLOAD AND PUSH1 0xC0 DUP5 ADD MSTORE PUSH1 0x7 DUP2 ADD SLOAD PUSH1 0xE0 DUP5 ADD MSTORE DUP7 DUP2 ADD SLOAD PUSH1 0xFF SWAP1 DUP2 DUP2 AND ISZERO ISZERO PUSH2 0x100 DUP7 ADD MSTORE DUP2 DUP2 DUP11 SHR AND ISZERO ISZERO PUSH2 0x120 DUP7 ADD MSTORE PUSH1 0x10 SHR AND ISZERO ISZERO PUSH2 0x140 DUP5 ADD MSTORE PUSH1 0x9 DUP2 ADD SLOAD PUSH2 0x160 DUP5 ADD MSTORE ADD SLOAD PUSH2 0x180 DUP3 ADD MSTORE PUSH2 0x86A DUP3 DUP11 PUSH2 0x2BC3 JUMP JUMPDEST MSTORE PUSH2 0x509 DUP2 DUP10 PUSH2 0x2BC3 JUMP JUMPDEST SWAP3 SWAP1 PUSH0 DUP1 DUP1 DUP1 DUP1 PUSH2 0x790 JUMP JUMPDEST PUSH4 0x4E487B71 PUSH1 0xE0 SHL DUP7 MSTORE PUSH1 0x11 PUSH1 0x4 MSTORE PUSH1 0x24 DUP7 REVERT JUMPDEST PUSH1 0x1 DUP2 ADD DUP1 DUP3 GT PUSH2 0x51A JUMPI DUP4 MSTORE PUSH1 0xB PUSH1 0x20 MSTORE PUSH1 0x40 DUP4 KECCAK256 PUSH1 0x5 ADD SLOAD PUSH1 0x1 PUSH1 0x1 PUSH1 0xA0 SHL SUB AND CALLER EQ PUSH2 0x8C7 JUMPI JUMPDEST PUSH1 0x1 ADD PUSH2 0x72F JUMP JUMPDEST SWAP1 PUSH2 0x8D3 PUSH1 0x1 SWAP2 PUSH2 0x2AED JUMP JUMPDEST SWAP2 SWAP1 POP PUSH2 0x8BF JUMP JUMPDEST POP CALLVALUE PUSH2 0x2C2 JUMPI PUSH1 0x80 CALLDATASIZE PUSH1 0x3 NOT ADD SLT PUSH2 0x2C2 JUMPI PUSH2 0x8F5 PUSH2 0x288E JUMP JUMPDEST PUSH2 0x8FD PUSH2 0x28A4 JUMP JUMPDEST PUSH1 0x64 CALLDATALOAD SWAP2 PUSH1 0x1 PUSH1 0x1 PUSH1 0x40 SHL SUB DUP4 GT PUSH2 0x93E JUMPI CALLDATASIZE PUSH1 0x23 DUP5 ADD SLT ISZERO PUSH2 0x93E JUMPI PUSH2 0x931 PUSH2 0x93B SWAP4 CALLDATASIZE SWAP1 PUSH1 0x24 DUP2 PUSH1 0x4 ADD CALLDATALOAD SWAP2 ADD PUSH2 0x2A2B JUMP JUMPDEST SWAP2 PUSH1 0x44 CALLDATALOAD SWAP2 PUSH2 0x2DC0 JUMP JUMPDEST DUP1 RETURN JUMPDEST DUP4 DUP1 REVERT JUMPDEST POP CALLVALUE PUSH2 0x2C2 JUMPI PUSH2 0x951 CALLDATASIZE PUSH2 0x2A7F JUMP JUMPDEST SWAP1 DUP1 DUP4 MSTORE PUSH1 0xB PUSH1 0x20 MSTORE PUSH2 0x974 PUSH1 0x1 DUP1 PUSH1 0xA0 SHL SUB PUSH1 0x5 PUSH1 0x40 DUP7 KECCAK256 ADD SLOAD AND CALLER EQ PUSH2 0x2CBB JUMP JUMPDEST DUP1 DUP4 MSTORE PUSH1 0xB PUSH1 0x20 MSTORE PUSH1 0xA PUSH1 0x40 DUP5 KECCAK256 ADD SLOAD TIMESTAMP GT ISZERO PUSH2 0x9E8 JUMPI DUP2 ISZERO PUSH2 0x9A3 JUMPI DUP3 MSTORE PUSH1 0xB PUSH1 0x20 MSTORE PUSH1 0x7 PUSH1 0x40 DUP4 KECCAK256 ADD SSTORE DUP1 RETURN JUMPDEST PUSH1 0x40 MLOAD PUSH3 0x461BCD PUSH1 0xE5 SHL DUP2 MSTORE PUSH1 0x20 PUSH1 0x4 DUP3 ADD MSTORE PUSH1 0x1F PUSH1 0x24 DUP3 ADD MSTORE PUSH32 0x5072696365206D7573742062652067726561746572207468616E207A65726F00 PUSH1 0x44 DUP3 ADD MSTORE PUSH1 0x64 SWAP1 REVERT JUMPDEST PUSH1 0x40 MLOAD PUSH3 0x461BCD PUSH1 0xE5 SHL DUP2 MSTORE PUSH1 0x20 PUSH1 0x4 DUP3 ADD MSTORE PUSH1 0x12 PUSH1 0x24 DUP3 ADD MSTORE PUSH18 0x41756374696F6E207374696C6C204C697665 PUSH1 0x70 SHL PUSH1 0x44 DUP3 ADD MSTORE PUSH1 0x64 SWAP1 REVERT JUMPDEST POP CALLVALUE PUSH2 0xB76 JUMPI PUSH1 0xC0 CALLDATASIZE PUSH1 0x3 NOT ADD SLT PUSH2 0xB76 JUMPI PUSH1 0x4 CALLDATALOAD PUSH2 0xA3F PUSH2 0x2A95 JUMP JUMPDEST DUP2 PUSH0 MSTORE PUSH1 0x20 SWAP1 PUSH1 0xB DUP3 MSTORE PUSH1 0xFF PUSH1 0x8 PUSH1 0x40 PUSH0 KECCAK256 ADD SLOAD PUSH1 0x8 SHR AND ISZERO PUSH2 0xAB6 JUMPI JUMPDEST DUP3 DUP5 MSTORE PUSH1 0xB DUP1 DUP4 MSTORE PUSH1 0x40 DUP6 KECCAK256 PUSH1 0x9 DUP2 ADD DUP7 SWAP1 SSTORE PUSH1 0x8 ADD DUP1 SLOAD PUSH3 0xFFFFFF NOT AND SWAP3 ISZERO ISZERO PUSH1 0x10 SHL PUSH3 0xFF0000 AND SWAP3 SWAP1 SWAP3 OR PUSH2 0x100 OR SWAP1 SWAP2 SSTORE SWAP1 JUMPDEST PUSH2 0xAA7 PUSH1 0xA4 CALLDATALOAD PUSH1 0x84 CALLDATALOAD PUSH1 0x64 CALLDATALOAD PUSH1 0x44 CALLDATALOAD PUSH2 0x2D6B JUMP JUMPDEST SWAP3 DUP5 MSTORE MSTORE PUSH1 0xA PUSH1 0x40 DUP4 KECCAK256 ADD SSTORE DUP1 RETURN JUMPDEST ADDRESS CALLER EQ PUSH2 0xB7A JUMPI CALLER PUSH0 MSTORE PUSH1 0x5 DUP3 MSTORE PUSH1 0x40 PUSH0 KECCAK256 ADDRESS PUSH0 MSTORE DUP3 MSTORE PUSH1 0x40 PUSH0 KECCAK256 PUSH1 0x1 PUSH1 0xFF NOT DUP3 SLOAD AND OR SWAP1 SSTORE PUSH1 0x40 MLOAD PUSH1 0x1 DUP2 MSTORE ADDRESS SWAP1 PUSH32 0x17307EAB39AB6107E8899845AD3D59BD9653F200F220920489CA2B5937696C31 DUP5 CALLER SWAP3 LOG3 ADDRESS EXTCODESIZE ISZERO PUSH2 0xB76 JUMPI PUSH1 0x40 MLOAD PUSH4 0x23B872DD PUSH1 0xE0 SHL DUP2 MSTORE CALLER PUSH1 0x4 DUP3 ADD MSTORE ADDRESS PUSH1 0x24 DUP3 ADD MSTORE PUSH1 0x44 DUP2 ADD DUP5 SWAP1 MSTORE PUSH0 DUP2 DUP1 PUSH1 0x64 DUP2 ADD SUB DUP2 DUP4 ADDRESS GAS CALL DUP1 ISZERO PUSH2 0xB6B JUMPI PUSH2 0xB4F JUMPI JUMPDEST POP PUSH2 0xA5D JUMP JUMPDEST PUSH1 0xB SWAP3 SWAP2 SWAP5 POP PUSH2 0xB5E SWAP1 PUSH2 0x279D JUMP JUMPDEST PUSH2 0xA93 PUSH0 SWAP5 SWAP2 SWAP3 POP PUSH2 0xB49 JUMP JUMPDEST PUSH1 0x40 MLOAD RETURNDATASIZE PUSH0 DUP3 RETURNDATACOPY RETURNDATASIZE SWAP1 REVERT JUMPDEST PUSH0 DUP1 REVERT JUMPDEST PUSH1 0x40 MLOAD PUSH3 0x461BCD PUSH1 0xE5 SHL DUP2 MSTORE PUSH1 0x4 DUP2 ADD DUP4 SWAP1 MSTORE PUSH1 0x19 PUSH1 0x24 DUP3 ADD MSTORE PUSH25 0x22A9219B99189D1030B8383937BB32903A379031B0B63632B9 PUSH1 0x39 SHL PUSH1 0x44 DUP3 ADD MSTORE PUSH1 0x64 SWAP1 REVERT JUMPDEST CALLVALUE PUSH2 0xB76 JUMPI PUSH1 0x40 CALLDATASIZE PUSH1 0x3 NOT ADD SLT PUSH2 0xB76 JUMPI PUSH2 0xBD4 PUSH2 0x288E JUMP JUMPDEST PUSH2 0xBDC PUSH2 0x2A95 JUMP JUMPDEST PUSH1 0x1 PUSH1 0x1 PUSH1 0xA0 SHL SUB SWAP1 SWAP2 AND SWAP1 CALLER DUP3 EQ PUSH2 0xC4A JUMPI CALLER PUSH0 MSTORE PUSH1 0x5 PUSH1 0x20 MSTORE PUSH1 0x40 PUSH0 KECCAK256 DUP3 PUSH0 MSTORE PUSH1 0x20 MSTORE PUSH2 0xC1A DUP2 PUSH1 0x40 PUSH0 KECCAK256 SWAP1 PUSH1 0xFF DUP1 NOT DUP4 SLOAD AND SWAP2 ISZERO ISZERO AND OR SWAP1 SSTORE JUMP JUMPDEST PUSH1 0x40 MLOAD SWAP1 ISZERO ISZERO DUP2 MSTORE PUSH32 0x17307EAB39AB6107E8899845AD3D59BD9653F200F220920489CA2B5937696C31 PUSH1 0x20 CALLER SWAP3 LOG3 STOP JUMPDEST PUSH1 0x40 MLOAD PUSH3 0x461BCD PUSH1 0xE5 SHL DUP2 MSTORE PUSH1 0x20 PUSH1 0x4 DUP3 ADD MSTORE PUSH1 0x19 PUSH1 0x24 DUP3 ADD MSTORE PUSH25 0x22A9219B99189D1030B8383937BB32903A379031B0B63632B9 PUSH1 0x39 SHL PUSH1 0x44 DUP3 ADD MSTORE PUSH1 0x64 SWAP1 REVERT JUMPDEST CALLVALUE PUSH2 0xB76 JUMPI PUSH0 CALLDATASIZE PUSH1 0x3 NOT ADD SLT PUSH2 0xB76 JUMPI PUSH1 0x8 DUP1 SLOAD PUSH0 DUP1 JUMPDEST DUP3 DUP2 LT PUSH2 0xDD3 JUMPI POP PUSH2 0xCB3 SWAP1 PUSH2 0x2B74 JUMP JUMPDEST SWAP2 PUSH0 DUP1 JUMPDEST DUP4 DUP2 LT PUSH2 0xCCC JUMPI PUSH1 0x40 MLOAD DUP1 PUSH2 0x3F3 DUP8 DUP3 PUSH2 0x2978 JUMP JUMPDEST PUSH1 0x1 DUP1 DUP3 ADD DUP1 DUP4 GT PUSH2 0xDBF JUMPI PUSH0 MSTORE PUSH1 0x20 PUSH1 0xB DUP2 MSTORE PUSH1 0x40 PUSH0 KECCAK256 SWAP1 DUP6 DUP3 ADD SLOAD PUSH1 0xFF SWAP2 DUP3 DUP3 AND ISZERO SWAP1 DUP2 PUSH2 0xD05 JUMPI JUMPDEST POP POP POP POP POP POP PUSH1 0x1 ADD PUSH2 0xCB7 JUMP JUMPDEST SWAP3 PUSH1 0xA SWAP3 PUSH1 0x1 SWAP8 SWAP9 SWAP6 SWAP3 PUSH2 0xDB3 SWAP8 SWAP6 PUSH2 0xD24 PUSH1 0x40 MLOAD SWAP8 PUSH2 0x7C7 DUP10 PUSH2 0x2766 JUMP JUMPDEST SWAP1 DUP8 ADD MSTORE PUSH2 0xD34 PUSH1 0x2 DUP6 ADD PUSH2 0x27EC JUMP JUMPDEST PUSH1 0x40 DUP8 ADD MSTORE PUSH1 0x3 DUP5 ADD SLOAD PUSH1 0x60 DUP8 ADD MSTORE DUP9 DUP1 PUSH1 0xA0 SHL SUB DUP1 PUSH1 0x4 DUP7 ADD SLOAD AND PUSH1 0x80 DUP9 ADD MSTORE DUP1 PUSH1 0x5 DUP7 ADD SLOAD AND PUSH1 0xA0 DUP9 ADD MSTORE PUSH1 0x6 DUP6 ADD SLOAD AND PUSH1 0xC0 DUP8 ADD MSTORE PUSH1 0x7 DUP5 ADD SLOAD PUSH1 0xE0 DUP8 ADD MSTORE ISZERO PUSH2 0x100 DUP7 ADD MSTORE DUP2 DUP2 DUP12 SHR AND ISZERO ISZERO PUSH2 0x120 DUP7 ADD MSTORE PUSH1 0x10 SHR AND ISZERO ISZERO PUSH2 0x140 DUP5 ADD MSTORE PUSH1 0x9 DUP2 ADD SLOAD PUSH2 0x160 DUP5 ADD MSTORE ADD SLOAD PUSH2 0x180 DUP3 ADD MSTORE PUSH2 0x4FE DUP3 DUP10 PUSH2 0x2BC3 JUMP JUMPDEST SWAP2 SWAP1 DUP7 DUP1 DUP1 DUP1 DUP1 PUSH2 0xCF7 JUMP JUMPDEST PUSH4 0x4E487B71 PUSH1 0xE0 SHL PUSH0 MSTORE PUSH1 0x11 PUSH1 0x4 MSTORE PUSH1 0x24 PUSH0 REVERT JUMPDEST PUSH1 0x1 DUP2 ADD DUP1 DUP3 GT PUSH2 0xDBF JUMPI PUSH0 MSTORE PUSH1 0xB PUSH1 0x20 MSTORE PUSH1 0xFF DUP5 PUSH1 0x40 PUSH0 KECCAK256 ADD SLOAD AND ISZERO PUSH2 0xDFD JUMPI JUMPDEST PUSH1 0x1 ADD PUSH2 0xCA2 JUMP JUMPDEST SWAP1 PUSH2 0xE09 PUSH1 0x1 SWAP2 PUSH2 0x2AED JUMP JUMPDEST SWAP2 SWAP1 POP PUSH2 0xDF5 JUMP JUMPDEST CALLVALUE PUSH2 0xB76 JUMPI PUSH1 0x80 CALLDATASIZE PUSH1 0x3 NOT ADD SLT PUSH2 0xB76 JUMPI PUSH1 0x20 PUSH2 0xE38 PUSH1 0x64 CALLDATALOAD PUSH1 0x44 CALLDATALOAD PUSH1 0x24 CALLDATALOAD PUSH1 0x4 CALLDATALOAD PUSH2 0x2D6B JUMP JUMPDEST PUSH1 0x40 MLOAD SWAP1 DUP2 MSTORE RETURN JUMPDEST PUSH1 0x20 DUP1 PUSH1 0x3 NOT CALLDATASIZE ADD SLT PUSH2 0xB76 JUMPI PUSH1 0x4 CALLDATALOAD SWAP1 DUP2 PUSH0 MSTORE PUSH1 0xB DUP2 MSTORE PUSH2 0xE6B PUSH1 0x7 PUSH1 0x40 PUSH0 KECCAK256 ADD SLOAD CALLVALUE LT ISZERO PUSH2 0x2CFD JUMP JUMPDEST DUP2 PUSH0 MSTORE PUSH1 0xB DUP2 MSTORE PUSH1 0xA PUSH1 0x40 PUSH0 KECCAK256 ADD SLOAD TIMESTAMP LT ISZERO PUSH2 0x1001 JUMPI DUP2 PUSH0 MSTORE PUSH1 0xB DUP2 MSTORE PUSH1 0xFF PUSH1 0x8 PUSH1 0x40 PUSH0 KECCAK256 ADD SLOAD PUSH1 0x10 SHR AND ISZERO PUSH2 0xFBD JUMPI PUSH1 0x40 MLOAD SWAP1 PUSH2 0xEA8 DUP3 PUSH2 0x2782 JUMP JUMPDEST DUP1 DUP3 ADD SWAP3 PUSH1 0x40 DUP4 ADD PUSH1 0x60 DUP5 ADD PUSH0 DUP2 MSTORE PUSH1 0x80 DUP6 ADD PUSH0 DUP2 MSTORE CALLER DUP7 MSTORE CALLVALUE DUP8 MSTORE TIMESTAMP DUP4 MSTORE DUP4 PUSH0 MSTORE PUSH1 0xD DUP6 MSTORE PUSH1 0x40 PUSH0 KECCAK256 DUP1 SLOAD PUSH9 0x10000000000000000 DUP2 LT ISZERO PUSH2 0xFA9 JUMPI PUSH2 0xEF4 SWAP2 PUSH1 0x1 DUP3 ADD DUP2 SSTORE PUSH2 0x2D3F JUMP JUMPDEST SWAP4 SWAP1 SWAP4 PUSH2 0xF96 JUMPI PUSH1 0x3 PUSH2 0xF60 SWAP5 PUSH2 0xF49 SWAP3 PUSH1 0xB SWAP10 PUSH1 0x1 DUP1 PUSH1 0xA0 SHL SUB SWAP1 MLOAD AND SWAP11 PUSH1 0x1 PUSH1 0x1 PUSH1 0x60 SHL SUB PUSH1 0xA0 SHL SWAP12 DUP13 DUP5 SLOAD AND OR DUP4 SSTORE MLOAD PUSH1 0x1 DUP4 ADD SSTORE MLOAD PUSH1 0x2 DUP3 ADD SSTORE ADD SWAP3 MLOAD ISZERO ISZERO DUP4 SWAP1 PUSH1 0xFF DUP1 NOT DUP4 SLOAD AND SWAP2 ISZERO ISZERO AND OR SWAP1 SSTORE JUMP JUMPDEST MLOAD DUP2 SLOAD PUSH2 0xFF00 NOT AND SWAP1 ISZERO ISZERO PUSH1 0x8 SHL PUSH2 0xFF00 AND OR SWAP1 SSTORE JUMP JUMPDEST DUP1 PUSH0 MSTORE DUP3 DUP3 MSTORE PUSH1 0x9 PUSH1 0x40 PUSH0 KECCAK256 ADD PUSH2 0xF77 DUP2 SLOAD PUSH2 0x2AED JUMP JUMPDEST SWAP1 SSTORE PUSH0 MSTORE MSTORE PUSH1 0x6 PUSH1 0x40 PUSH0 KECCAK256 CALLVALUE PUSH1 0x7 DUP3 ADD SSTORE ADD SWAP1 CALLER SWAP1 DUP3 SLOAD AND OR SWAP1 SSTORE PUSH0 DUP1 RETURN JUMPDEST PUSH4 0x4E487B71 PUSH1 0xE0 SHL PUSH0 MSTORE PUSH0 PUSH1 0x4 MSTORE PUSH1 0x24 PUSH0 REVERT JUMPDEST PUSH4 0x4E487B71 PUSH1 0xE0 SHL PUSH0 MSTORE PUSH1 0x41 PUSH1 0x4 MSTORE PUSH1 0x24 PUSH0 REVERT JUMPDEST PUSH1 0x64 SWAP1 PUSH1 0x40 MLOAD SWAP1 PUSH3 0x461BCD PUSH1 0xE5 SHL DUP3 MSTORE PUSH1 0x4 DUP3 ADD MSTORE PUSH1 0x18 PUSH1 0x24 DUP3 ADD MSTORE PUSH32 0x41756374696F6E206D757374206265206269646461626C650000000000000000 PUSH1 0x44 DUP3 ADD MSTORE REVERT JUMPDEST PUSH1 0x64 SWAP1 PUSH1 0x40 MLOAD SWAP1 PUSH3 0x461BCD PUSH1 0xE5 SHL DUP3 MSTORE PUSH1 0x4 DUP3 ADD MSTORE PUSH1 0x1C PUSH1 0x24 DUP3 ADD MSTORE PUSH32 0x41756374696F6E6564204974656D206E6F7420617661696C61626C6500000000 PUSH1 0x44 DUP3 ADD MSTORE REVERT JUMPDEST CALLVALUE PUSH2 0xB76 JUMPI PUSH0 CALLDATASIZE PUSH1 0x3 NOT ADD SLT PUSH2 0xB76 JUMPI PUSH1 0x40 MLOAD PUSH0 PUSH1 0x1 DUP3 PUSH1 0x1 SLOAD SWAP3 PUSH2 0x1069 DUP5 PUSH2 0x272E JUMP JUMPDEST SWAP3 DUP4 DUP4 MSTORE PUSH1 0x20 SWAP5 DUP6 PUSH1 0x1 DUP3 AND SWAP2 DUP3 PUSH0 EQ PUSH2 0x1103 JUMPI POP POP PUSH1 0x1 EQ PUSH2 0x10A8 JUMPI JUMPDEST POP PUSH2 0x1094 SWAP3 POP SUB DUP4 PUSH2 0x27CB JUMP JUMPDEST PUSH2 0x3F3 PUSH1 0x40 MLOAD SWAP3 DUP3 DUP5 SWAP4 DUP5 MSTORE DUP4 ADD SWAP1 PUSH2 0x26F0 JUMP JUMPDEST DUP5 SWAP2 POP PUSH1 0x1 PUSH0 MSTORE PUSH32 0xB10E2D527612073B26EECDFD717E6A320CF44B4AFAC2B0732D9FCBE2B7FA0CF6 SWAP1 PUSH0 SWAP2 JUMPDEST DUP6 DUP4 LT PUSH2 0x10EB JUMPI POP POP PUSH2 0x1094 SWAP4 POP DUP3 ADD ADD DUP6 PUSH2 0x1087 JUMP JUMPDEST DUP1 SLOAD DUP4 DUP10 ADD DUP6 ADD MSTORE DUP8 SWAP5 POP DUP7 SWAP4 SWAP1 SWAP3 ADD SWAP2 DUP2 ADD PUSH2 0x10D4 JUMP JUMPDEST PUSH1 0xFF NOT AND DUP6 DUP3 ADD MSTORE PUSH2 0x1094 SWAP6 ISZERO ISZERO PUSH1 0x5 SHL DUP6 ADD ADD SWAP3 POP DUP8 SWAP2 POP PUSH2 0x1087 SWAP1 POP JUMP JUMPDEST CALLVALUE PUSH2 0xB76 JUMPI PUSH1 0x20 CALLDATASIZE PUSH1 0x3 NOT ADD SLT PUSH2 0xB76 JUMPI PUSH2 0x114C PUSH1 0x1 DUP1 PUSH1 0xA0 SHL SUB PUSH1 0x9 SLOAD PUSH1 0x8 SHR AND CALLER EQ PUSH2 0x2CBB JUMP JUMPDEST PUSH1 0x4 CALLDATALOAD PUSH1 0xA SSTORE STOP JUMPDEST CALLVALUE PUSH2 0xB76 JUMPI PUSH2 0x1162 CALLDATASIZE PUSH2 0x2A7F JUMP JUMPDEST DUP2 PUSH0 MSTORE PUSH1 0xB SWAP2 PUSH1 0x20 SWAP2 DUP4 DUP4 MSTORE PUSH1 0xA PUSH1 0x40 PUSH0 KECCAK256 ADD SLOAD TIMESTAMP GT ISZERO PUSH2 0x13E4 JUMPI DUP2 PUSH0 MSTORE DUP4 DUP4 MSTORE PUSH1 0x1 DUP1 PUSH1 0xA0 SHL SUB PUSH1 0x6 DUP2 PUSH1 0x6 PUSH1 0x40 PUSH0 KECCAK256 ADD SLOAD AND CALLER SUB PUSH2 0x13A6 JUMPI DUP4 PUSH0 MSTORE DUP6 DUP6 MSTORE PUSH1 0x40 PUSH0 KECCAK256 SWAP2 PUSH1 0x8 DUP4 ADD SWAP4 PUSH1 0x1 SWAP8 DUP9 SWAP6 DUP7 PUSH2 0xFFFF NOT DUP3 SLOAD AND OR SWAP1 SSTORE PUSH0 PUSH1 0x9 DUP7 ADD SSTORE TIMESTAMP PUSH1 0xA DUP7 ADD SSTORE PUSH2 0x1206 PUSH1 0x7 DUP7 ADD SLOAD PUSH2 0x25F DUP6 DUP1 PUSH1 0x5 PUSH1 0x9 SLOAD SWAP11 PUSH2 0x11FD PUSH1 0xFF SWAP13 PUSH1 0x64 PUSH2 0x11F0 PUSH1 0xFF DUP4 AND DUP11 PUSH2 0x2D58 JUMP JUMPDEST DIV SWAP6 DUP7 SWAP2 PUSH1 0x8 SHR AND PUSH2 0x306D JUMP JUMPDEST ADD SLOAD AND SWAP3 PUSH2 0x2E08 JUMP JUMPDEST DUP7 PUSH0 MSTORE DUP1 DUP9 MSTORE PUSH2 0x1220 DUP8 DUP5 PUSH1 0x6 PUSH1 0x40 PUSH0 KECCAK256 ADD SLOAD AND ADDRESS PUSH2 0x2ED9 JUMP JUMPDEST DUP7 PUSH0 MSTORE DUP1 DUP9 MSTORE PUSH1 0x40 PUSH0 KECCAK256 PUSH1 0x5 DUP5 PUSH1 0x6 DUP4 ADD SLOAD AND SWAP2 ADD SWAP1 PUSH1 0x1 PUSH1 0x1 PUSH1 0x60 SHL SUB PUSH1 0xA0 SHL DUP3 SLOAD AND OR SWAP1 SSTORE DUP6 PUSH0 SWAP1 JUMPDEST PUSH2 0x12B3 JUMPI JUMPDEST POP POP POP POP POP POP POP PUSH0 MSTORE PUSH1 0xD DUP2 MSTORE PUSH1 0x40 PUSH0 KECCAK256 SWAP2 DUP3 SLOAD SWAP2 PUSH0 DUP5 SSTORE DUP3 PUSH2 0x126F JUMPI STOP JUMPDEST PUSH1 0x2 SWAP4 PUSH1 0x1 PUSH1 0x1 PUSH1 0xFE SHL SUB DUP5 AND DUP5 SUB PUSH2 0xDBF JUMPI PUSH0 MSTORE PUSH0 KECCAK256 SWAP2 PUSH1 0x2 SHL DUP3 ADD SWAP2 JUMPDEST DUP3 DUP2 LT PUSH2 0x1297 JUMPI STOP JUMPDEST DUP1 PUSH0 PUSH1 0x4 SWAP3 SSTORE PUSH0 DUP4 DUP3 ADD SSTORE PUSH0 DUP6 DUP3 ADD SSTORE PUSH0 PUSH1 0x3 DUP3 ADD SSTORE ADD PUSH2 0x128E JUMP JUMPDEST DUP8 PUSH0 MSTORE PUSH1 0xD SWAP1 DUP2 DUP11 MSTORE PUSH1 0x40 PUSH0 KECCAK256 SWAP2 DUP3 SLOAD DUP3 LT ISZERO PUSH2 0x139F JUMPI DUP6 PUSH2 0x12D6 DUP4 DUP12 SWAP6 PUSH2 0x2D3F JUMP JUMPDEST POP SLOAD PUSH0 DUP13 DUP2 MSTORE DUP7 DUP15 MSTORE PUSH1 0x40 SWAP1 KECCAK256 DUP10 ADD SLOAD DUP9 AND SWAP2 AND EQ PUSH2 0x137A JUMPI DUP10 PUSH0 MSTORE DUP1 DUP12 MSTORE PUSH2 0x1302 DUP3 PUSH1 0x40 PUSH0 KECCAK256 PUSH2 0x2D3F JUMP JUMPDEST POP SWAP1 DUP9 PUSH1 0x3 DUP1 SWAP4 ADD SLOAD AND ISZERO PUSH2 0x131C JUMPI JUMPDEST POP POP JUMPDEST ADD DUP7 PUSH2 0x124B JUMP JUMPDEST PUSH2 0x1373 SWAP2 DUP12 PUSH0 MSTORE DUP2 DUP14 MSTORE PUSH2 0x1333 DUP5 PUSH1 0x40 PUSH0 KECCAK256 PUSH2 0x2D3F JUMP JUMPDEST POP ADD DUP5 PUSH1 0xFF NOT DUP3 SLOAD AND OR SWAP1 SSTORE DUP11 PUSH0 MSTORE DUP1 DUP13 MSTORE DUP7 PUSH2 0x1353 DUP5 PUSH1 0x40 PUSH0 KECCAK256 PUSH2 0x2D3F JUMP JUMPDEST POP SLOAD AND SWAP1 DUP12 PUSH0 MSTORE DUP13 MSTORE DUP4 PUSH2 0x136A DUP5 PUSH1 0x40 PUSH0 KECCAK256 PUSH2 0x2D3F JUMP JUMPDEST POP ADD SLOAD SWAP1 PUSH2 0x306D JUMP JUMPDEST DUP12 DUP1 PUSH2 0x1312 JUMP JUMPDEST DUP11 MSTORE PUSH1 0x3 PUSH2 0x138B DUP6 PUSH1 0x40 PUSH0 KECCAK256 PUSH2 0x2D3F JUMP JUMPDEST POP ADD DUP1 SLOAD PUSH2 0xFF00 NOT AND PUSH2 0x100 OR SWAP1 SSTORE PUSH2 0x1315 JUMP JUMPDEST POP POP PUSH2 0x1250 JUMP JUMPDEST PUSH1 0x40 MLOAD PUSH3 0x461BCD PUSH1 0xE5 SHL DUP2 MSTORE PUSH1 0x4 DUP2 ADD DUP7 SWAP1 MSTORE PUSH1 0x16 PUSH1 0x24 DUP3 ADD MSTORE PUSH22 0x2CB7BA9030B932903737BA103A3432903BB4B73732B9 PUSH1 0x51 SHL PUSH1 0x44 DUP3 ADD MSTORE PUSH1 0x64 SWAP1 REVERT JUMPDEST PUSH1 0x40 MLOAD PUSH3 0x461BCD PUSH1 0xE5 SHL DUP2 MSTORE PUSH1 0x4 DUP2 ADD DUP5 SWAP1 MSTORE PUSH1 0x15 PUSH1 0x24 DUP3 ADD MSTORE PUSH21 0x41756374696F6E206973207374696C6C204C697665 PUSH1 0x58 SHL PUSH1 0x44 DUP3 ADD MSTORE PUSH1 0x64 SWAP1 REVERT JUMPDEST CALLVALUE PUSH2 0xB76 JUMPI PUSH1 0x20 DUP1 PUSH1 0x3 NOT CALLDATASIZE ADD SLT PUSH2 0xB76 JUMPI PUSH1 0x4 CALLDATALOAD PUSH2 0x143E PUSH2 0x2B12 JUMP JUMPDEST POP DUP1 PUSH0 MSTORE PUSH1 0xC DUP3 MSTORE PUSH1 0xFF PUSH1 0x40 PUSH0 KECCAK256 SLOAD AND ISZERO PUSH2 0x152A JUMPI PUSH0 MSTORE PUSH1 0xB DUP2 MSTORE PUSH1 0x40 PUSH0 KECCAK256 SWAP1 PUSH1 0xA PUSH1 0x40 MLOAD SWAP3 PUSH2 0x146D DUP5 PUSH2 0x2766 JUMP JUMPDEST PUSH2 0x1476 DUP2 PUSH2 0x27EC JUMP JUMPDEST DUP5 MSTORE PUSH2 0x1484 PUSH1 0x1 DUP3 ADD PUSH2 0x27EC JUMP JUMPDEST DUP4 DUP6 ADD MSTORE PUSH2 0x1494 PUSH1 0x2 DUP3 ADD PUSH2 0x27EC JUMP JUMPDEST PUSH1 0x40 DUP6 ADD MSTORE PUSH1 0x3 DUP2 ADD SLOAD PUSH1 0x60 DUP6 ADD MSTORE PUSH1 0x1 DUP1 PUSH1 0xA0 SHL SUB DUP1 PUSH1 0x4 DUP4 ADD SLOAD AND PUSH1 0x80 DUP7 ADD MSTORE DUP1 PUSH1 0x5 DUP4 ADD SLOAD AND PUSH1 0xA0 DUP7 ADD MSTORE PUSH1 0x6 DUP3 ADD SLOAD AND PUSH1 0xC0 DUP6 ADD MSTORE PUSH1 0x7 DUP2 ADD SLOAD PUSH1 0xE0 DUP6 ADD MSTORE PUSH1 0xFF PUSH1 0x8 DUP3 ADD SLOAD DUP2 DUP2 AND ISZERO ISZERO PUSH2 0x100 DUP8 ADD MSTORE DUP2 DUP2 PUSH1 0x8 SHR AND ISZERO ISZERO PUSH2 0x120 DUP8 ADD MSTORE PUSH1 0x10 SHR AND ISZERO ISZERO PUSH2 0x140 DUP6 ADD MSTORE PUSH1 0x9 DUP2 ADD SLOAD PUSH2 0x160 DUP6 ADD MSTORE ADD SLOAD PUSH2 0x180 DUP4 ADD MSTORE PUSH2 0x3F3 PUSH1 0x40 MLOAD SWAP3 DUP3 DUP5 SWAP4 DUP5 MSTORE DUP4 ADD SWAP1 PUSH2 0x28BA JUMP JUMPDEST PUSH1 0x40 MLOAD PUSH3 0x461BCD PUSH1 0xE5 SHL DUP2 MSTORE PUSH1 0x4 DUP2 ADD DUP4 SWAP1 MSTORE PUSH1 0x18 PUSH1 0x24 DUP3 ADD MSTORE PUSH32 0x41756374696F6E6564204974656D206E6F7420666F756E640000000000000000 PUSH1 0x44 DUP3 ADD MSTORE PUSH1 0x64 SWAP1 REVERT JUMPDEST CALLVALUE PUSH2 0xB76 JUMPI PUSH1 0x20 CALLDATASIZE PUSH1 0x3 NOT ADD SLT PUSH2 0xB76 JUMPI PUSH1 0x1 PUSH1 0x1 PUSH1 0xA0 SHL SUB PUSH2 0x1590 PUSH2 0x288E JUMP JUMPDEST AND DUP1 ISZERO PUSH2 0x15AD JUMPI PUSH0 MSTORE PUSH1 0x3 PUSH1 0x20 MSTORE PUSH1 0x20 PUSH1 0x40 PUSH0 KECCAK256 SLOAD PUSH1 0x40 MLOAD SWAP1 DUP2 MSTORE RETURN JUMPDEST PUSH1 0x40 MLOAD PUSH3 0x461BCD PUSH1 0xE5 SHL DUP2 MSTORE PUSH1 0x20 PUSH1 0x4 DUP3 ADD MSTORE PUSH1 0x29 PUSH1 0x24 DUP3 ADD MSTORE PUSH32 0x4552433732313A2061646472657373207A65726F206973206E6F742061207661 PUSH1 0x44 DUP3 ADD MSTORE PUSH9 0x3634B21037BBB732B9 PUSH1 0xB9 SHL PUSH1 0x64 DUP3 ADD MSTORE PUSH1 0x84 SWAP1 REVERT JUMPDEST CALLVALUE PUSH2 0xB76 JUMPI PUSH1 0x20 CALLDATASIZE PUSH1 0x3 NOT ADD SLT PUSH2 0xB76 JUMPI PUSH1 0x20 PUSH2 0x1622 PUSH1 0x4 CALLDATALOAD PUSH2 0x2C99 JUMP JUMPDEST PUSH1 0x40 MLOAD PUSH1 0x1 PUSH1 0x1 PUSH1 0xA0 SHL SUB SWAP1 SWAP2 AND DUP2 MSTORE RETURN JUMPDEST CALLVALUE PUSH2 0xB76 JUMPI PUSH1 0x20 DUP1 PUSH1 0x3 NOT CALLDATASIZE ADD SLT PUSH2 0xB76 JUMPI PUSH1 0x4 CALLDATALOAD PUSH0 MSTORE PUSH1 0xD DUP2 MSTORE PUSH1 0x40 PUSH0 KECCAK256 SWAP1 DUP2 SLOAD PUSH2 0x165F DUP2 PUSH2 0x2AFB JUMP JUMPDEST SWAP1 PUSH2 0x166D PUSH1 0x40 MLOAD SWAP3 DUP4 PUSH2 0x27CB JUMP JUMPDEST DUP1 DUP3 MSTORE DUP3 DUP3 ADD DUP1 SWAP5 PUSH0 MSTORE DUP4 PUSH0 KECCAK256 PUSH0 SWAP2 JUMPDEST DUP4 DUP4 LT PUSH2 0x16F3 JUMPI PUSH1 0x40 DUP1 MLOAD DUP8 DUP2 MSTORE DUP7 MLOAD DUP2 DUP10 ADD DUP2 SWAP1 MSTORE DUP10 SWAP3 DUP3 ADD SWAP1 DUP10 PUSH0 JUMPDEST DUP3 DUP2 LT PUSH2 0x16A8 JUMPI DUP5 DUP5 SUB DUP6 RETURN JUMPDEST DUP6 MLOAD DUP1 MLOAD PUSH1 0x1 PUSH1 0x1 PUSH1 0xA0 SHL SUB AND DUP6 MSTORE DUP1 DUP4 ADD MLOAD DUP6 DUP5 ADD MSTORE PUSH1 0x40 DUP1 DUP3 ADD MLOAD SWAP1 DUP7 ADD MSTORE PUSH1 0x60 DUP1 DUP3 ADD MLOAD ISZERO ISZERO SWAP1 DUP7 ADD MSTORE PUSH1 0x80 SWAP1 DUP2 ADD MLOAD ISZERO ISZERO SWAP1 DUP6 ADD MSTORE SWAP5 DUP2 ADD SWAP5 PUSH1 0xA0 SWAP1 SWAP4 ADD SWAP3 PUSH1 0x1 ADD PUSH2 0x169B JUMP JUMPDEST PUSH1 0x4 DUP7 PUSH1 0x1 SWAP3 PUSH1 0x40 MLOAD PUSH2 0x1705 DUP2 PUSH2 0x2782 JUMP JUMPDEST DUP5 DUP1 PUSH1 0xA0 SHL SUB DUP7 SLOAD AND DUP2 MSTORE DUP5 DUP7 ADD SLOAD DUP4 DUP3 ADD MSTORE PUSH1 0x2 DUP7 ADD SLOAD PUSH1 0x40 DUP3 ADD MSTORE PUSH1 0x3 DUP7 ADD SLOAD PUSH1 0xFF SWAP1 DUP2 DUP2 AND ISZERO ISZERO PUSH1 0x60 DUP5 ADD MSTORE PUSH1 0x8 SHR AND ISZERO ISZERO PUSH1 0x80 DUP3 ADD MSTORE DUP2 MSTORE ADD SWAP3 ADD SWAP3 ADD SWAP2 SWAP1 PUSH2 0x167D JUMP JUMPDEST CALLVALUE PUSH2 0xB76 JUMPI PUSH2 0x1774 PUSH2 0x175E CALLDATASIZE PUSH2 0x29DB JUMP JUMPDEST SWAP1 PUSH1 0x40 MLOAD SWAP3 PUSH2 0x176C DUP5 PUSH2 0x27B0 JUMP JUMPDEST PUSH0 DUP5 MSTORE PUSH2 0x2DC0 JUMP JUMPDEST STOP JUMPDEST PUSH1 0xA0 CALLDATASIZE PUSH1 0x3 NOT ADD SLT PUSH2 0xB76 JUMPI PUSH1 0x4 CALLDATALOAD PUSH1 0x1 PUSH1 0x1 PUSH1 0x40 SHL SUB DUP2 GT PUSH2 0xB76 JUMPI PUSH2 0x17A1 SWAP1 CALLDATASIZE SWAP1 PUSH1 0x4 ADD PUSH2 0x2A61 JUMP JUMPDEST PUSH1 0x24 CALLDATALOAD PUSH1 0x1 PUSH1 0x1 PUSH1 0x40 SHL SUB DUP2 GT PUSH2 0xB76 JUMPI PUSH2 0x17C0 SWAP1 CALLDATASIZE SWAP1 PUSH1 0x4 ADD PUSH2 0x2A61 JUMP JUMPDEST SWAP1 PUSH1 0x44 DUP1 CALLDATALOAD PUSH1 0x1 PUSH1 0x1 PUSH1 0x40 SHL SUB DUP2 GT PUSH2 0xB76 JUMPI PUSH2 0x17E1 SWAP1 CALLDATASIZE SWAP1 PUSH1 0x4 ADD PUSH2 0x2A61 JUMP JUMPDEST SWAP1 PUSH1 0x64 SWAP1 DUP2 CALLDATALOAD PUSH1 0x1 PUSH1 0x1 PUSH1 0x40 SHL SUB DUP2 GT PUSH2 0xB76 JUMPI PUSH2 0x1803 SWAP1 CALLDATASIZE SWAP1 PUSH1 0x4 ADD PUSH2 0x2A61 JUMP JUMPDEST SWAP1 PUSH2 0x180C PUSH2 0x2FE8 JUMP JUMPDEST PUSH1 0x84 CALLDATALOAD ISZERO PUSH2 0x212E JUMPI PUSH1 0xA SLOAD CALLVALUE LT PUSH2 0x20DA JUMPI DUP5 MLOAD ISZERO PUSH2 0x20A0 JUMPI DUP6 MLOAD ISZERO PUSH2 0x205D JUMPI DUP4 MLOAD ISZERO PUSH2 0x201A JUMPI PUSH1 0x8 SLOAD SWAP3 PUSH1 0x1 DUP5 ADD DUP5 GT PUSH2 0xDBF JUMPI PUSH1 0x1 DUP5 ADD PUSH1 0x8 SSTORE CALLER ISZERO PUSH2 0x1FD8 JUMPI PUSH1 0x1 DUP5 ADD PUSH0 SWAP1 DUP2 MSTORE PUSH1 0x2 PUSH1 0x20 MSTORE PUSH1 0x40 SWAP1 KECCAK256 SLOAD PUSH2 0x1875 SWAP1 PUSH1 0x1 PUSH1 0x1 PUSH1 0xA0 SHL SUB AND ISZERO ISZERO JUMPDEST ISZERO PUSH2 0x30E3 JUMP JUMPDEST PUSH1 0x1 DUP5 ADD PUSH0 SWAP1 DUP2 MSTORE PUSH1 0x2 PUSH1 0x20 MSTORE PUSH1 0x40 SWAP1 KECCAK256 SLOAD PUSH2 0x189B SWAP1 PUSH1 0x1 PUSH1 0x1 PUSH1 0xA0 SHL SUB AND ISZERO ISZERO PUSH2 0x186F JUMP JUMPDEST CALLER PUSH0 MSTORE PUSH1 0x3 PUSH1 0x20 MSTORE PUSH1 0x40 PUSH0 KECCAK256 PUSH1 0x1 DUP2 SLOAD ADD SWAP1 SSTORE PUSH1 0x1 DUP5 ADD PUSH0 MSTORE PUSH1 0x2 PUSH1 0x20 MSTORE PUSH1 0x40 PUSH0 KECCAK256 CALLER PUSH1 0x1 PUSH1 0x1 PUSH1 0x60 SHL SUB PUSH1 0xA0 SHL DUP3 SLOAD AND OR SWAP1 SSTORE PUSH1 0x1 DUP5 ADD CALLER PUSH0 PUSH32 0xDDF252AD1BE2C89B69C2B068FC378DAA952BA7F163C4A11628F55A4DF523B3EF DUP2 DUP1 LOG4 PUSH1 0x1 DUP5 ADD PUSH0 SWAP1 DUP2 MSTORE PUSH1 0x2 PUSH1 0x20 MSTORE PUSH1 0x40 SWAP1 KECCAK256 SLOAD PUSH1 0x1 PUSH1 0x1 PUSH1 0xA0 SHL SUB AND ISZERO PUSH2 0x1F7E JUMPI POP POP PUSH1 0x1 DUP3 ADD PUSH0 MSTORE PUSH1 0x6 PUSH1 0x20 MSTORE PUSH1 0x40 PUSH0 KECCAK256 SWAP1 DUP1 MLOAD SWAP1 PUSH1 0x1 PUSH1 0x1 PUSH1 0x40 SHL SUB DUP3 GT PUSH2 0xFA9 JUMPI PUSH2 0x1946 DUP4 SLOAD PUSH2 0x272E JUMP JUMPDEST PUSH1 0x1F DUP2 GT PUSH2 0x1F3D JUMPI JUMPDEST POP PUSH1 0x20 SWAP1 PUSH1 0x1F DUP4 GT PUSH1 0x1 EQ PUSH2 0x1EB2 JUMPI SWAP2 DUP1 PUSH1 0x20 SWAP5 SWAP3 PUSH32 0xF8E1A15ABA9398E019F0B49DF1A4FDE98EE17AE345CB5F6B5E2C27F5033E8CE7 SWAP7 SWAP5 PUSH0 SWAP3 PUSH2 0x1EA7 JUMPI JUMPDEST POP POP DUP2 PUSH1 0x1 SHL SWAP2 PUSH0 NOT SWAP1 PUSH1 0x3 SHL SHR NOT AND OR SWAP1 SSTORE JUMPDEST PUSH1 0x1 PUSH1 0x40 MLOAD SWAP2 ADD DUP2 MSTORE LOG1 PUSH1 0x8 SLOAD SWAP3 PUSH2 0x19B8 PUSH2 0x2B12 JUMP JUMPDEST SWAP3 DUP5 PUSH1 0x60 DUP6 ADD MSTORE DUP4 MSTORE PUSH1 0x20 DUP4 ADD MSTORE PUSH1 0x40 DUP3 ADD MSTORE PUSH1 0x84 CALLDATALOAD PUSH1 0xE0 DUP3 ADD MSTORE TIMESTAMP PUSH2 0x180 DUP3 ADD MSTORE CALLER PUSH1 0x80 DUP3 ADD MSTORE CALLER PUSH1 0xA0 DUP3 ADD MSTORE DUP2 PUSH0 MSTORE PUSH1 0xB PUSH1 0x20 MSTORE PUSH1 0x40 PUSH0 KECCAK256 DUP2 MLOAD SWAP3 DUP4 MLOAD PUSH1 0x1 PUSH1 0x1 PUSH1 0x40 SHL SUB DUP2 GT PUSH2 0xFA9 JUMPI PUSH2 0x1A0F DUP4 SLOAD PUSH2 0x272E JUMP JUMPDEST PUSH1 0x1F DUP2 GT PUSH2 0x1E66 JUMPI JUMPDEST POP PUSH1 0x20 PUSH1 0x1F DUP3 GT PUSH1 0x1 EQ PUSH2 0x1E01 JUMPI DUP2 SWAP3 SWAP4 SWAP5 SWAP6 PUSH0 SWAP3 PUSH2 0x1DF6 JUMPI JUMPDEST POP POP DUP2 PUSH1 0x1 SHL SWAP2 PUSH0 NOT SWAP1 PUSH1 0x3 SHL SHR NOT AND OR DUP3 SSTORE JUMPDEST PUSH1 0x20 DUP4 ADD MLOAD SWAP3 DUP4 MLOAD PUSH1 0x1 PUSH1 0x1 PUSH1 0x40 SHL SUB DUP2 GT PUSH2 0xFA9 JUMPI PUSH2 0x1A69 PUSH1 0x1 DUP6 ADD SLOAD PUSH2 0x272E JUMP JUMPDEST PUSH1 0x1F DUP2 GT PUSH2 0x1DB2 JUMPI JUMPDEST POP PUSH1 0x20 PUSH1 0x1F DUP3 GT PUSH1 0x1 EQ PUSH2 0x1D47 JUMPI DUP2 SWAP3 SWAP4 SWAP5 SWAP6 PUSH0 SWAP3 PUSH2 0x1D3C JUMPI JUMPDEST POP POP DUP2 PUSH1 0x1 SHL SWAP2 PUSH0 NOT SWAP1 PUSH1 0x3 SHL SHR NOT AND OR PUSH1 0x1 DUP5 ADD SSTORE JUMPDEST PUSH1 0x40 DUP2 ADD MLOAD SWAP3 DUP4 MLOAD PUSH1 0x1 PUSH1 0x1 PUSH1 0x40 SHL SUB DUP2 GT PUSH2 0xFA9 JUMPI PUSH2 0x1AC6 PUSH1 0x2 DUP4 ADD SLOAD PUSH2 0x272E JUMP JUMPDEST PUSH1 0x1F DUP2 GT PUSH2 0x1CF8 JUMPI JUMPDEST POP PUSH1 0x20 PUSH1 0x1F DUP3 GT PUSH1 0x1 EQ PUSH2 0x1C67 JUMPI SWAP1 DUP1 PUSH1 0x80 SWAP5 SWAP4 SWAP3 PUSH32 0xA693A8F68FE4DF789541DDD1B84D32CCAEA90ADDDCC88406B4BBBF6466328D3C SWAP7 SWAP8 PUSH0 SWAP3 PUSH2 0x1C5C JUMPI JUMPDEST POP POP DUP2 PUSH1 0x1 SHL SWAP2 PUSH0 NOT SWAP1 PUSH1 0x3 SHL SHR NOT AND OR PUSH1 0x2 DUP3 ADD SSTORE JUMPDEST PUSH1 0x60 DUP3 ADD MLOAD PUSH1 0x3 DUP3 ADD SSTORE PUSH1 0x4 DUP2 ADD SWAP1 PUSH1 0x1 DUP1 PUSH1 0xA0 SHL SUB SWAP2 DUP3 DUP6 DUP6 ADD MLOAD AND PUSH1 0x1 PUSH1 0x1 PUSH1 0x60 SHL SUB PUSH1 0xA0 SHL DUP3 SLOAD AND OR SWAP1 SSTORE PUSH1 0x5 DUP2 ADD DUP3 PUSH1 0xA0 DUP6 ADD MLOAD AND PUSH1 0x1 PUSH1 0x1 PUSH1 0x60 SHL SUB PUSH1 0xA0 SHL DUP3 SLOAD AND OR SWAP1 SSTORE PUSH1 0x6 DUP2 ADD DUP3 PUSH1 0xC0 DUP6 ADD MLOAD AND PUSH1 0x1 PUSH1 0x1 PUSH1 0x60 SHL SUB PUSH1 0xA0 SHL DUP3 SLOAD AND OR SWAP1 SSTORE PUSH1 0xE0 DUP4 ADD MLOAD PUSH1 0x7 DUP3 ADD SSTORE PUSH2 0x1BF1 PUSH1 0x8 DUP3 ADD PUSH2 0x1BB9 PUSH2 0x100 DUP7 ADD MLOAD ISZERO ISZERO DUP3 SWAP1 PUSH1 0xFF DUP1 NOT DUP4 SLOAD AND SWAP2 ISZERO ISZERO AND OR SWAP1 SSTORE JUMP JUMPDEST PUSH2 0x120 DUP6 ADD MLOAD DUP2 SLOAD PUSH2 0xFF00 NOT AND SWAP1 ISZERO ISZERO PUSH1 0x8 SHL PUSH2 0xFF00 AND OR DUP2 SSTORE PUSH2 0x140 DUP6 ADD MLOAD DUP2 SLOAD PUSH3 0xFF0000 NOT AND SWAP1 ISZERO ISZERO PUSH1 0x10 SHL PUSH3 0xFF0000 AND OR SWAP1 SSTORE JUMP JUMPDEST PUSH2 0x160 DUP4 ADD MLOAD PUSH1 0x9 DUP3 ADD SSTORE PUSH1 0xA PUSH2 0x180 DUP5 ADD MLOAD SWAP2 ADD SSTORE DUP5 PUSH0 MSTORE PUSH1 0xC PUSH1 0x20 MSTORE PUSH1 0x40 PUSH0 KECCAK256 PUSH1 0x1 PUSH1 0xFF NOT DUP3 SLOAD AND OR SWAP1 SSTORE PUSH2 0x1C2F CALLVALUE DUP3 PUSH1 0x9 SLOAD PUSH1 0x8 SHR AND PUSH2 0x306D JUMP JUMPDEST PUSH1 0xA0 DUP2 DUP5 DUP5 ADD MLOAD AND SWAP3 ADD MLOAD AND PUSH1 0x40 MLOAD SWAP2 DUP3 MSTORE PUSH1 0x20 DUP3 ADD MSTORE PUSH1 0x84 CALLDATALOAD PUSH1 0x40 DUP3 ADD MSTORE PUSH0 PUSH1 0x60 DUP3 ADD MSTORE LOG2 PUSH1 0x1 PUSH1 0x7 SSTORE STOP JUMPDEST ADD MLOAD SWAP1 POP DUP8 DUP1 PUSH2 0x1B0E JUMP JUMPDEST PUSH1 0x2 DUP4 ADD PUSH0 MSTORE PUSH1 0x20 PUSH0 KECCAK256 SWAP6 PUSH0 JUMPDEST PUSH1 0x1F NOT DUP5 AND DUP2 LT PUSH2 0x1CE0 JUMPI POP SWAP2 PUSH32 0xA693A8F68FE4DF789541DDD1B84D32CCAEA90ADDDCC88406B4BBBF6466328D3C SWAP6 SWAP7 PUSH1 0x1 SWAP3 PUSH1 0x80 SWAP7 SWAP6 SWAP5 DUP4 PUSH1 0x1F NOT DUP2 AND LT PUSH2 0x1CC8 JUMPI JUMPDEST POP POP POP DUP2 SHL ADD PUSH1 0x2 DUP3 ADD SSTORE PUSH2 0x1B25 JUMP JUMPDEST ADD MLOAD PUSH0 NOT PUSH1 0xF8 DUP5 PUSH1 0x3 SHL AND SHR NOT AND SWAP1 SSTORE DUP8 DUP1 DUP1 PUSH2 0x1CB8 JUMP JUMPDEST DUP3 DUP3 ADD MLOAD DUP9 SSTORE PUSH1 0x1 SWAP1 SWAP8 ADD SWAP7 PUSH1 0x20 SWAP3 DUP4 ADD SWAP3 ADD PUSH2 0x1C74 JUMP JUMPDEST PUSH1 0x2 DUP4 ADD PUSH0 MSTORE PUSH1 0x20 PUSH0 KECCAK256 PUSH1 0x1F DUP4 ADD PUSH1 0x5 SHR DUP2 ADD PUSH1 0x20 DUP5 LT PUSH2 0x1D35 JUMPI JUMPDEST PUSH1 0x1F DUP4 ADD PUSH1 0x5 SHR DUP3 ADD DUP2 LT PUSH2 0x1D2A JUMPI POP POP PUSH2 0x1ACF JUMP JUMPDEST PUSH0 DUP2 SSTORE PUSH1 0x1 ADD PUSH2 0x1D14 JUMP JUMPDEST POP DUP1 PUSH2 0x1D14 JUMP JUMPDEST ADD MLOAD SWAP1 POP DUP6 DUP1 PUSH2 0x1A8C JUMP JUMPDEST PUSH1 0x1 DUP6 ADD PUSH0 MSTORE PUSH1 0x20 PUSH0 KECCAK256 SWAP1 PUSH0 JUMPDEST PUSH1 0x1F NOT DUP5 AND DUP2 LT PUSH2 0x1D9A JUMPI POP PUSH1 0x1 SWAP4 SWAP5 SWAP6 SWAP7 DUP4 PUSH1 0x1F NOT DUP2 AND LT PUSH2 0x1D82 JUMPI JUMPDEST POP POP POP DUP2 SHL ADD PUSH1 0x1 DUP5 ADD SSTORE PUSH2 0x1AA3 JUMP JUMPDEST ADD MLOAD PUSH0 NOT PUSH1 0xF8 DUP5 PUSH1 0x3 SHL AND SHR NOT AND SWAP1 SSTORE DUP6 DUP1 DUP1 PUSH2 0x1D72 JUMP JUMPDEST SWAP1 SWAP2 PUSH1 0x20 PUSH1 0x1 DUP2 SWAP3 DUP6 DUP12 ADD MLOAD DUP2 SSTORE ADD SWAP4 ADD SWAP2 ADD PUSH2 0x1D54 JUMP JUMPDEST PUSH1 0x1 DUP6 ADD PUSH0 MSTORE PUSH1 0x20 PUSH0 KECCAK256 PUSH1 0x1F DUP4 ADD PUSH1 0x5 SHR DUP2 ADD PUSH1 0x20 DUP5 LT PUSH2 0x1DEF JUMPI JUMPDEST PUSH1 0x1F DUP4 ADD PUSH1 0x5 SHR DUP3 ADD DUP2 LT PUSH2 0x1DE4 JUMPI POP POP PUSH2 0x1A72 JUMP JUMPDEST PUSH0 DUP2 SSTORE PUSH1 0x1 ADD PUSH2 0x1DCE JUMP JUMPDEST POP DUP1 PUSH2 0x1DCE JUMP JUMPDEST ADD MLOAD SWAP1 POP DUP6 DUP1 PUSH2 0x1A32 JUMP JUMPDEST DUP4 PUSH0 MSTORE PUSH1 0x20 PUSH0 KECCAK256 SWAP1 PUSH0 JUMPDEST PUSH1 0x1F NOT DUP5 AND DUP2 LT PUSH2 0x1E4E JUMPI POP PUSH1 0x1 SWAP4 SWAP5 SWAP6 SWAP7 DUP4 PUSH1 0x1F NOT DUP2 AND LT PUSH2 0x1E36 JUMPI JUMPDEST POP POP POP DUP2 SHL ADD DUP3 SSTORE PUSH2 0x1A46 JUMP JUMPDEST ADD MLOAD PUSH0 NOT PUSH1 0xF8 DUP5 PUSH1 0x3 SHL AND SHR NOT AND SWAP1 SSTORE DUP6 DUP1 DUP1 PUSH2 0x1E29 JUMP JUMPDEST SWAP1 SWAP2 PUSH1 0x20 PUSH1 0x1 DUP2 SWAP3 DUP6 DUP12 ADD MLOAD DUP2 SSTORE ADD SWAP4 ADD SWAP2 ADD PUSH2 0x1E0B JUMP JUMPDEST DUP4 PUSH0 MSTORE PUSH1 0x20 PUSH0 KECCAK256 PUSH1 0x1F DUP4 ADD PUSH1 0x5 SHR DUP2 ADD PUSH1 0x20 DUP5 LT PUSH2 0x1EA0 JUMPI JUMPDEST PUSH1 0x1F DUP4 ADD PUSH1 0x5 SHR DUP3 ADD DUP2 LT PUSH2 0x1E95 JUMPI POP POP PUSH2 0x1A18 JUMP JUMPDEST PUSH0 DUP2 SSTORE PUSH1 0x1 ADD PUSH2 0x1E7F JUMP JUMPDEST POP DUP1 PUSH2 0x1E7F JUMP JUMPDEST ADD MLOAD SWAP1 POP DUP10 DUP1 PUSH2 0x198E JUMP JUMPDEST SWAP1 DUP4 PUSH0 MSTORE PUSH1 0x20 PUSH0 KECCAK256 SWAP2 PUSH0 JUMPDEST PUSH1 0x1F NOT DUP6 AND DUP2 LT PUSH2 0x1F25 JUMPI POP SWAP3 PUSH1 0x20 SWAP5 SWAP3 PUSH1 0x1 SWAP3 PUSH32 0xF8E1A15ABA9398E019F0B49DF1A4FDE98EE17AE345CB5F6B5E2C27F5033E8CE7 SWAP8 SWAP6 DUP4 PUSH1 0x1F NOT DUP2 AND LT PUSH2 0x1F0D JUMPI JUMPDEST POP POP POP DUP2 SHL ADD SWAP1 SSTORE PUSH2 0x19A2 JUMP JUMPDEST ADD MLOAD PUSH0 NOT PUSH1 0xF8 DUP5 PUSH1 0x3 SHL AND SHR NOT AND SWAP1 SSTORE DUP10 DUP1 DUP1 PUSH2 0x1F00 JUMP JUMPDEST SWAP2 SWAP3 PUSH1 0x20 PUSH1 0x1 DUP2 SWAP3 DUP7 DUP6 ADD MLOAD DUP2 SSTORE ADD SWAP5 ADD SWAP3 ADD PUSH2 0x1EBD JUMP JUMPDEST DUP4 PUSH0 MSTORE PUSH1 0x20 PUSH0 KECCAK256 PUSH1 0x1F DUP5 ADD PUSH1 0x5 SHR DUP2 ADD PUSH1 0x20 DUP6 LT PUSH2 0x1F77 JUMPI JUMPDEST PUSH1 0x1F DUP4 ADD PUSH1 0x5 SHR DUP3 ADD DUP2 LT PUSH2 0x1F6C JUMPI POP POP PUSH2 0x194F JUMP JUMPDEST PUSH0 DUP2 SSTORE PUSH1 0x1 ADD PUSH2 0x1F56 JUMP JUMPDEST POP DUP1 PUSH2 0x1F56 JUMP JUMPDEST SWAP1 PUSH14 0x32BC34B9BA32B73A103A37B5B2B7 PUSH1 0x91 SHL PUSH1 0x84 SWAP3 PUSH32 0x45524337323155524953746F726167653A2055524920736574206F66206E6F6E PUSH1 0x40 MLOAD SWAP4 PUSH3 0x461BCD PUSH1 0xE5 SHL DUP6 MSTORE PUSH1 0x20 PUSH1 0x4 DUP7 ADD MSTORE PUSH1 0x2E PUSH1 0x24 DUP7 ADD MSTORE DUP5 ADD MSTORE DUP3 ADD MSTORE REVERT JUMPDEST SWAP1 PUSH32 0x4552433732313A206D696E7420746F20746865207A65726F2061646472657373 PUSH1 0x40 MLOAD SWAP2 PUSH3 0x461BCD PUSH1 0xE5 SHL DUP4 MSTORE PUSH1 0x20 PUSH1 0x4 DUP5 ADD MSTORE PUSH1 0x20 PUSH1 0x24 DUP5 ADD MSTORE DUP3 ADD MSTORE REVERT JUMPDEST SWAP1 POP PUSH32 0x696D616765206D75737420626520737065636966696564000000000000000000 PUSH1 0x40 MLOAD SWAP2 PUSH3 0x461BCD PUSH1 0xE5 SHL DUP4 MSTORE PUSH1 0x20 PUSH1 0x4 DUP5 ADD MSTORE PUSH1 0x17 PUSH1 0x24 DUP5 ADD MSTORE DUP3 ADD MSTORE REVERT JUMPDEST SWAP1 POP PUSH32 0x6465736372697074696F6E2063616E6E6F7420626520656D7074790000000000 PUSH1 0x40 MLOAD SWAP2 PUSH3 0x461BCD PUSH1 0xE5 SHL DUP4 MSTORE PUSH1 0x20 PUSH1 0x4 DUP5 ADD MSTORE PUSH1 0x1B PUSH1 0x24 DUP5 ADD MSTORE DUP3 ADD MSTORE REVERT JUMPDEST SWAP1 POP PUSH20 0x6E616D652063616E6E6F7420626520656D707479 PUSH1 0x60 SHL PUSH1 0x40 MLOAD SWAP2 PUSH3 0x461BCD PUSH1 0xE5 SHL DUP4 MSTORE PUSH1 0x20 PUSH1 0x4 DUP5 ADD MSTORE PUSH1 0x14 PUSH1 0x24 DUP5 ADD MSTORE DUP3 ADD MSTORE REVERT JUMPDEST PUSH1 0x84 SWAP1 PUSH8 0x6E67207072696365 PUSH1 0xC0 SHL DUP5 PUSH32 0x5072696365206D7573742062652067726561746572207468616E206C69737469 PUSH1 0x40 MLOAD SWAP4 PUSH3 0x461BCD PUSH1 0xE5 SHL DUP6 MSTORE PUSH1 0x20 PUSH1 0x4 DUP7 ADD MSTORE PUSH1 0x28 PUSH1 0x24 DUP7 ADD MSTORE DUP5 ADD MSTORE DUP3 ADD MSTORE REVERT JUMPDEST SWAP1 POP PUSH32 0x546869732073616C657320707269636573206973206E6F742076616C69640000 PUSH1 0x40 MLOAD SWAP2 PUSH3 0x461BCD PUSH1 0xE5 SHL DUP4 MSTORE PUSH1 0x20 PUSH1 0x4 DUP5 ADD MSTORE PUSH1 0x1E PUSH1 0x24 DUP5 ADD MSTORE DUP3 ADD MSTORE REVERT JUMPDEST CALLVALUE PUSH2 0xB76 JUMPI PUSH2 0x1774 PUSH2 0x2182 CALLDATASIZE PUSH2 0x29DB JUMP JUMPDEST SWAP2 PUSH2 0x2195 PUSH2 0x2190 DUP5 CALLER PUSH2 0x2E15 JUMP JUMPDEST PUSH2 0x2BEB JUMP JUMPDEST PUSH2 0x2ED9 JUMP JUMPDEST CALLVALUE PUSH2 0xB76 JUMPI PUSH0 CALLDATASIZE PUSH1 0x3 NOT ADD SLT PUSH2 0xB76 JUMPI PUSH1 0x8 DUP1 SLOAD PUSH0 DUP1 JUMPDEST DUP3 DUP2 LT PUSH2 0x22CE JUMPI POP PUSH2 0x21C2 SWAP1 PUSH2 0x2B74 JUMP JUMPDEST SWAP2 PUSH0 DUP1 JUMPDEST DUP4 DUP2 LT PUSH2 0x21DB JUMPI PUSH1 0x40 MLOAD DUP1 PUSH2 0x3F3 DUP8 DUP3 PUSH2 0x2978 JUMP JUMPDEST PUSH1 0x1 DUP1 DUP3 ADD DUP1 DUP4 GT PUSH2 0xDBF JUMPI PUSH0 MSTORE PUSH1 0x20 PUSH1 0xB DUP2 MSTORE PUSH1 0x40 PUSH0 KECCAK256 SWAP1 DUP6 DUP3 ADD SLOAD PUSH1 0xFF SWAP2 DUP3 DUP3 AND SWAP1 DUP2 PUSH2 0x2213 JUMPI JUMPDEST POP POP POP POP POP POP PUSH1 0x1 ADD PUSH2 0x21C6 JUMP JUMPDEST SWAP3 PUSH1 0xA SWAP3 PUSH1 0x1 SWAP8 SWAP9 SWAP6 SWAP3 PUSH2 0x22C2 SWAP8 SWAP6 PUSH2 0x2232 PUSH1 0x40 MLOAD SWAP8 PUSH2 0x7C7 DUP10 PUSH2 0x2766 JUMP JUMPDEST SWAP1 DUP8 ADD MSTORE PUSH2 0x2242 PUSH1 0x2 DUP6 ADD PUSH2 0x27EC JUMP JUMPDEST PUSH1 0x40 DUP8 ADD MSTORE PUSH1 0x3 DUP5 ADD SLOAD PUSH1 0x60 DUP8 ADD MSTORE DUP9 DUP1 PUSH1 0xA0 SHL SUB DUP1 PUSH1 0x4 DUP7 ADD SLOAD AND PUSH1 0x80 DUP9 ADD MSTORE DUP1 PUSH1 0x5 DUP7 ADD SLOAD AND PUSH1 0xA0 DUP9 ADD MSTORE PUSH1 0x6 DUP6 ADD SLOAD AND PUSH1 0xC0 DUP8 ADD MSTORE PUSH1 0x7 DUP5 ADD SLOAD PUSH1 0xE0 DUP8 ADD MSTORE ISZERO ISZERO PUSH2 0x100 DUP7 ADD MSTORE DUP2 DUP2 DUP12 SHR AND ISZERO ISZERO PUSH2 0x120 DUP7 ADD MSTORE PUSH1 0x10 SHR AND ISZERO ISZERO PUSH2 0x140 DUP5 ADD MSTORE PUSH1 0x9 DUP2 ADD SLOAD PUSH2 0x160 DUP5 ADD MSTORE ADD SLOAD PUSH2 0x180 DUP3 ADD MSTORE PUSH2 0x4FE DUP3 DUP10 PUSH2 0x2BC3 JUMP JUMPDEST SWAP2 SWAP1 DUP7 DUP1 DUP1 DUP1 DUP1 PUSH2 0x2205 JUMP JUMPDEST PUSH1 0x1 DUP2 ADD DUP1 DUP3 GT PUSH2 0xDBF JUMPI PUSH0 MSTORE PUSH1 0xB PUSH1 0x20 MSTORE PUSH1 0xFF DUP5 PUSH1 0x40 PUSH0 KECCAK256 ADD SLOAD AND PUSH2 0x22F7 JUMPI JUMPDEST PUSH1 0x1 ADD PUSH2 0x21B1 JUMP JUMPDEST SWAP1 PUSH2 0x2303 PUSH1 0x1 SWAP2 PUSH2 0x2AED JUMP JUMPDEST SWAP2 SWAP1 POP PUSH2 0x22EF JUMP JUMPDEST CALLVALUE PUSH2 0xB76 JUMPI PUSH0 CALLDATASIZE PUSH1 0x3 NOT ADD SLT PUSH2 0xB76 JUMPI PUSH1 0x20 PUSH1 0xA SLOAD PUSH1 0x40 MLOAD SWAP1 DUP2 MSTORE RETURN JUMPDEST CALLVALUE PUSH2 0xB76 JUMPI PUSH1 0x40 CALLDATASIZE PUSH1 0x3 NOT ADD SLT PUSH2 0xB76 JUMPI PUSH2 0x2341 PUSH2 0x288E JUMP JUMPDEST PUSH1 0x24 CALLDATALOAD SWAP1 PUSH1 0x1 PUSH1 0x1 PUSH1 0xA0 SHL SUB DUP1 DUP1 PUSH2 0x2358 DUP6 PUSH2 0x2C99 JUMP JUMPDEST AND SWAP3 AND SWAP2 DUP1 DUP4 EQ PUSH2 0x244D JUMPI DUP1 CALLER EQ SWAP1 DUP2 ISZERO PUSH2 0x242C JUMPI JUMPDEST POP ISZERO PUSH2 0x23C1 JUMPI PUSH0 DUP4 DUP2 MSTORE PUSH1 0x4 PUSH1 0x20 MSTORE PUSH1 0x40 SWAP1 KECCAK256 DUP1 SLOAD PUSH1 0x1 PUSH1 0x1 PUSH1 0xA0 SHL SUB NOT AND DUP4 OR SWAP1 SSTORE PUSH2 0x239A DUP4 PUSH2 0x2C99 JUMP JUMPDEST AND PUSH32 0x8C5BE1E5EBEC7D5BD14F71427D1E84F3DD0314C0F7B2291E5B200AC8C7C3B925 PUSH0 DUP1 LOG4 STOP JUMPDEST PUSH1 0x40 MLOAD PUSH3 0x461BCD PUSH1 0xE5 SHL DUP2 MSTORE PUSH1 0x20 PUSH1 0x4 DUP3 ADD MSTORE PUSH1 0x3D PUSH1 0x24 DUP3 ADD MSTORE PUSH32 0x4552433732313A20617070726F76652063616C6C6572206973206E6F7420746F PUSH1 0x44 DUP3 ADD MSTORE PUSH32 0x6B656E206F776E6572206F7220617070726F76656420666F7220616C6C000000 PUSH1 0x64 DUP3 ADD MSTORE PUSH1 0x84 SWAP1 REVERT JUMPDEST SWAP1 POP PUSH0 MSTORE PUSH1 0x5 PUSH1 0x20 MSTORE PUSH1 0x40 PUSH0 KECCAK256 CALLER PUSH0 MSTORE PUSH1 0x20 MSTORE PUSH1 0xFF PUSH1 0x40 PUSH0 KECCAK256 SLOAD AND DUP5 PUSH2 0x236E JUMP JUMPDEST PUSH1 0x40 MLOAD PUSH3 0x461BCD PUSH1 0xE5 SHL DUP2 MSTORE PUSH1 0x20 PUSH1 0x4 DUP3 ADD MSTORE PUSH1 0x21 PUSH1 0x24 DUP3 ADD MSTORE PUSH32 0x4552433732313A20617070726F76616C20746F2063757272656E74206F776E65 PUSH1 0x44 DUP3 ADD MSTORE PUSH1 0x39 PUSH1 0xF9 SHL PUSH1 0x64 DUP3 ADD MSTORE PUSH1 0x84 SWAP1 REVERT JUMPDEST CALLVALUE PUSH2 0xB76 JUMPI PUSH1 0x20 CALLDATASIZE PUSH1 0x3 NOT ADD SLT PUSH2 0xB76 JUMPI PUSH1 0x4 CALLDATALOAD PUSH0 MSTORE PUSH1 0xB PUSH1 0x20 MSTORE PUSH1 0x40 PUSH0 KECCAK256 PUSH2 0x253B PUSH2 0x24C7 DUP3 PUSH2 0x27EC JUMP JUMPDEST SWAP2 PUSH2 0x24D4 PUSH1 0x1 DUP3 ADD PUSH2 0x27EC JUMP JUMPDEST SWAP3 PUSH2 0x24E1 PUSH1 0x2 DUP4 ADD PUSH2 0x27EC JUMP JUMPDEST SWAP2 PUSH1 0xFF PUSH1 0x3 DUP3 ADD SLOAD SWAP4 PUSH1 0x1 DUP1 PUSH1 0xA0 SHL SUB DUP1 PUSH1 0x4 DUP6 ADD SLOAD AND SWAP1 DUP1 PUSH1 0x5 DUP7 ADD SLOAD AND SWAP1 PUSH1 0x6 DUP7 ADD SLOAD AND SWAP1 PUSH1 0x7 DUP7 ADD SLOAD SWAP3 PUSH2 0x2557 PUSH1 0x8 DUP9 ADD SLOAD SWAP6 PUSH2 0x2549 PUSH1 0xA PUSH1 0x9 DUP12 ADD SLOAD SWAP11 ADD SLOAD SWAP11 PUSH1 0x40 MLOAD SWAP15 DUP16 SWAP15 DUP16 SWAP3 PUSH2 0x1A0 DUP1 DUP6 MSTORE DUP5 ADD SWAP1 PUSH2 0x26F0 JUMP JUMPDEST SWAP2 PUSH1 0x20 DUP2 DUP5 SUB SWAP2 ADD MSTORE PUSH2 0x26F0 JUMP JUMPDEST DUP13 DUP2 SUB PUSH1 0x40 DUP15 ADD MSTORE SWAP1 PUSH2 0x26F0 JUMP JUMPDEST SWAP9 PUSH1 0x60 DUP12 ADD MSTORE PUSH1 0x80 DUP11 ADD MSTORE PUSH1 0xA0 DUP10 ADD MSTORE PUSH1 0xC0 DUP9 ADD MSTORE PUSH1 0xE0 DUP8 ADD MSTORE DUP2 DUP2 AND ISZERO ISZERO PUSH2 0x100 DUP8 ADD MSTORE DUP2 DUP2 PUSH1 0x8 SHR AND ISZERO ISZERO PUSH2 0x120 DUP8 ADD MSTORE PUSH1 0x10 SHR AND ISZERO ISZERO PUSH2 0x140 DUP6 ADD MSTORE PUSH2 0x160 DUP5 ADD MSTORE PUSH2 0x180 DUP4 ADD MSTORE SUB SWAP1 RETURN JUMPDEST CALLVALUE PUSH2 0xB76 JUMPI PUSH1 0x20 CALLDATASIZE PUSH1 0x3 NOT ADD SLT PUSH2 0xB76 JUMPI PUSH1 0x20 PUSH2 0x1622 PUSH1 0x4 CALLDATALOAD PUSH2 0x2AA4 JUMP JUMPDEST CALLVALUE PUSH2 0xB76 JUMPI PUSH0 CALLDATASIZE PUSH1 0x3 NOT ADD SLT PUSH2 0xB76 JUMPI PUSH1 0x40 MLOAD PUSH0 DUP1 SLOAD SWAP1 DUP3 PUSH2 0x25E5 DUP4 PUSH2 0x272E JUMP JUMPDEST SWAP2 DUP3 DUP3 MSTORE PUSH1 0x20 SWAP4 PUSH1 0x1 SWAP1 DUP6 PUSH1 0x1 DUP3 AND SWAP2 DUP3 PUSH0 EQ PUSH2 0x1103 JUMPI POP POP PUSH1 0x1 EQ PUSH2 0x2612 JUMPI POP PUSH2 0x1094 SWAP3 POP SUB DUP4 PUSH2 0x27CB JUMP JUMPDEST PUSH0 DUP1 DUP1 MSTORE DUP6 SWAP3 POP SWAP1 PUSH32 0x290DECD9548B62A8D60345A988386FC84BA6BC95484008F6362F93160EF3E563 JUMPDEST DUP6 DUP4 LT PUSH2 0x2653 JUMPI POP POP PUSH2 0x1094 SWAP4 POP DUP3 ADD ADD DUP6 PUSH2 0x1087 JUMP JUMPDEST DUP1 SLOAD DUP4 DUP10 ADD DUP6 ADD MSTORE DUP8 SWAP5 POP DUP7 SWAP4 SWAP1 SWAP3 ADD SWAP2 DUP2 ADD PUSH2 0x263C JUMP JUMPDEST CALLVALUE PUSH2 0xB76 JUMPI PUSH1 0x20 CALLDATASIZE PUSH1 0x3 NOT ADD SLT PUSH2 0xB76 JUMPI PUSH1 0x4 CALLDATALOAD SWAP1 PUSH4 0xFFFFFFFF PUSH1 0xE0 SHL DUP3 AND DUP1 SWAP3 SUB PUSH2 0xB76 JUMPI PUSH1 0x20 SWAP2 PUSH4 0x24832483 PUSH1 0xE1 SHL DUP2 EQ SWAP1 DUP2 ISZERO PUSH2 0x26AD JUMPI JUMPDEST POP ISZERO ISZERO DUP2 MSTORE RETURN JUMPDEST PUSH4 0x80AC58CD PUSH1 0xE0 SHL DUP2 EQ SWAP2 POP DUP2 ISZERO PUSH2 0x26DF JUMPI JUMPDEST DUP2 ISZERO PUSH2 0x26CE JUMPI JUMPDEST POP DUP4 PUSH2 0x26A6 JUMP JUMPDEST PUSH4 0x1FFC9A7 PUSH1 0xE0 SHL EQ SWAP1 POP DUP4 PUSH2 0x26C7 JUMP JUMPDEST PUSH4 0x5B5E139F PUSH1 0xE0 SHL DUP2 EQ SWAP2 POP PUSH2 0x26C0 JUMP JUMPDEST SWAP2 SWAP1 DUP3 MLOAD SWAP3 DUP4 DUP3 MSTORE PUSH0 JUMPDEST DUP5 DUP2 LT PUSH2 0x271A JUMPI POP POP DUP3 PUSH0 PUSH1 0x20 DUP1 SWAP5 SWAP6 DUP5 ADD ADD MSTORE PUSH1 0x1F DUP1 NOT SWAP2 ADD AND ADD ADD SWAP1 JUMP JUMPDEST PUSH1 0x20 DUP2 DUP4 ADD DUP2 ADD MLOAD DUP5 DUP4 ADD DUP3 ADD MSTORE ADD PUSH2 0x26FA JUMP JUMPDEST SWAP1 PUSH1 0x1 DUP3 DUP2 SHR SWAP3 AND DUP1 ISZERO PUSH2 0x275C JUMPI JUMPDEST PUSH1 0x20 DUP4 LT EQ PUSH2 0x2748 JUMPI JUMP JUMPDEST PUSH4 0x4E487B71 PUSH1 0xE0 SHL PUSH0 MSTORE PUSH1 0x22 PUSH1 0x4 MSTORE PUSH1 0x24 PUSH0 REVERT JUMPDEST SWAP2 PUSH1 0x7F AND SWAP2 PUSH2 0x273D JUMP JUMPDEST PUSH2 0x1A0 DUP2 ADD SWAP1 DUP2 LT PUSH1 0x1 PUSH1 0x1 PUSH1 0x40 SHL SUB DUP3 GT OR PUSH2 0xFA9 JUMPI PUSH1 0x40 MSTORE JUMP JUMPDEST PUSH1 0xA0 DUP2 ADD SWAP1 DUP2 LT PUSH1 0x1 PUSH1 0x1 PUSH1 0x40 SHL SUB DUP3 GT OR PUSH2 0xFA9 JUMPI PUSH1 0x40 MSTORE JUMP JUMPDEST PUSH1 0x1 PUSH1 0x1 PUSH1 0x40 SHL SUB DUP2 GT PUSH2 0xFA9 JUMPI PUSH1 0x40 MSTORE JUMP JUMPDEST PUSH1 0x20 DUP2 ADD SWAP1 DUP2 LT PUSH1 0x1 PUSH1 0x1 PUSH1 0x40 SHL SUB DUP3 GT OR PUSH2 0xFA9 JUMPI PUSH1 0x40 MSTORE JUMP JUMPDEST SWAP1 PUSH1 0x1F DUP1 NOT SWAP2 ADD AND DUP2 ADD SWAP1 DUP2 LT PUSH1 0x1 PUSH1 0x1 PUSH1 0x40 SHL SUB DUP3 GT OR PUSH2 0xFA9 JUMPI PUSH1 0x40 MSTORE JUMP JUMPDEST SWAP1 PUSH1 0x40 MLOAD SWAP2 DUP3 PUSH0 DUP3 SLOAD PUSH2 0x27FE DUP2 PUSH2 0x272E JUMP JUMPDEST SWAP1 DUP2 DUP5 MSTORE PUSH1 0x20 SWAP5 PUSH1 0x1 SWAP2 PUSH1 0x1 DUP2 AND SWAP1 DUP2 PUSH0 EQ PUSH2 0x286C JUMPI POP PUSH1 0x1 EQ PUSH2 0x282E JUMPI JUMPDEST POP POP POP PUSH2 0x282C SWAP3 POP SUB DUP4 PUSH2 0x27CB JUMP JUMPDEST JUMP JUMPDEST PUSH0 SWAP1 DUP2 MSTORE DUP6 DUP2 KECCAK256 SWAP6 SWAP4 POP SWAP2 SWAP1 JUMPDEST DUP2 DUP4 LT PUSH2 0x2854 JUMPI POP POP PUSH2 0x282C SWAP4 POP DUP3 ADD ADD PUSH0 DUP1 DUP1 PUSH2 0x281D JUMP JUMPDEST DUP6 SLOAD DUP9 DUP5 ADD DUP6 ADD MSTORE SWAP5 DUP6 ADD SWAP5 DUP8 SWAP5 POP SWAP2 DUP4 ADD SWAP2 PUSH2 0x283B JUMP JUMPDEST SWAP3 POP POP POP PUSH2 0x282C SWAP5 SWAP3 POP PUSH1 0xFF NOT AND DUP3 DUP5 ADD MSTORE ISZERO ISZERO PUSH1 0x5 SHL DUP3 ADD ADD PUSH0 DUP1 DUP1 PUSH2 0x281D JUMP JUMPDEST PUSH1 0x4 CALLDATALOAD SWAP1 PUSH1 0x1 PUSH1 0x1 PUSH1 0xA0 SHL SUB DUP3 AND DUP3 SUB PUSH2 0xB76 JUMPI JUMP JUMPDEST PUSH1 0x24 CALLDATALOAD SWAP1 PUSH1 0x1 PUSH1 0x1 PUSH1 0xA0 SHL SUB DUP3 AND DUP3 SUB PUSH2 0xB76 JUMPI JUMP JUMPDEST SWAP1 PUSH2 0x28F9 PUSH2 0x28E7 PUSH2 0x28D5 PUSH2 0x1A0 DUP6 MLOAD SWAP1 DUP1 DUP7 MSTORE DUP6 ADD SWAP1 PUSH2 0x26F0 JUMP JUMPDEST PUSH1 0x20 DUP6 ADD MLOAD DUP5 DUP3 SUB PUSH1 0x20 DUP7 ADD MSTORE PUSH2 0x26F0 JUMP JUMPDEST PUSH1 0x40 DUP5 ADD MLOAD DUP4 DUP3 SUB PUSH1 0x40 DUP6 ADD MSTORE PUSH2 0x26F0 JUMP JUMPDEST SWAP2 PUSH1 0x60 DUP2 ADD MLOAD PUSH1 0x60 DUP4 ADD MSTORE PUSH1 0x80 DUP2 ADD MLOAD PUSH1 0x1 DUP1 PUSH1 0xA0 SHL SUB DUP1 SWAP2 AND PUSH1 0x80 DUP5 ADD MSTORE DUP1 PUSH1 0xA0 DUP4 ADD MLOAD AND PUSH1 0xA0 DUP5 ADD MSTORE PUSH1 0xC0 DUP3 ADD MLOAD AND PUSH1 0xC0 DUP4 ADD MSTORE PUSH1 0xE0 DUP2 ADD MLOAD PUSH1 0xE0 DUP4 ADD MSTORE PUSH2 0x100 DUP1 DUP3 ADD MLOAD ISZERO ISZERO SWAP1 DUP4 ADD MSTORE PUSH2 0x120 DUP1 DUP3 ADD MLOAD ISZERO ISZERO SWAP1 DUP4 ADD MSTORE PUSH2 0x140 DUP1 DUP3 ADD MLOAD ISZERO ISZERO SWAP1 DUP4 ADD MSTORE PUSH2 0x160 DUP1 DUP3 ADD MLOAD SWAP1 DUP4 ADD MSTORE PUSH2 0x180 DUP1 SWAP2 ADD MLOAD SWAP2 ADD MSTORE SWAP1 JUMP JUMPDEST PUSH1 0x20 DUP1 DUP3 ADD SWAP1 PUSH1 0x20 DUP4 MSTORE DUP4 MLOAD DUP1 SWAP3 MSTORE PUSH1 0x40 DUP4 ADD SWAP3 PUSH1 0x20 PUSH1 0x40 DUP5 PUSH1 0x5 SHL DUP4 ADD ADD SWAP6 ADD SWAP4 PUSH0 SWAP2 JUMPDEST DUP5 DUP4 LT PUSH2 0x29AD JUMPI POP POP POP POP POP POP SWAP1 JUMP JUMPDEST SWAP1 SWAP2 SWAP3 SWAP4 SWAP5 SWAP6 DUP5 DUP1 PUSH2 0x29CB PUSH1 0x1 SWAP4 PUSH1 0x3F NOT DUP7 DUP3 SUB ADD DUP8 MSTORE DUP11 MLOAD PUSH2 0x28BA JUMP JUMPDEST SWAP9 ADD SWAP4 ADD SWAP4 ADD SWAP2 SWAP5 SWAP4 SWAP3 SWAP1 PUSH2 0x299D JUMP JUMPDEST PUSH1 0x60 SWAP1 PUSH1 0x3 NOT ADD SLT PUSH2 0xB76 JUMPI PUSH1 0x1 PUSH1 0x1 PUSH1 0xA0 SHL SUB SWAP1 PUSH1 0x4 CALLDATALOAD DUP3 DUP2 AND DUP2 SUB PUSH2 0xB76 JUMPI SWAP2 PUSH1 0x24 CALLDATALOAD SWAP1 DUP2 AND DUP2 SUB PUSH2 0xB76 JUMPI SWAP1 PUSH1 0x44 CALLDATALOAD SWAP1 JUMP JUMPDEST PUSH1 0x1 PUSH1 0x1 PUSH1 0x40 SHL SUB DUP2 GT PUSH2 0xFA9 JUMPI PUSH1 0x1F ADD PUSH1 0x1F NOT AND PUSH1 0x20 ADD SWAP1 JUMP JUMPDEST SWAP3 SWAP2 SWAP3 PUSH2 0x2A37 DUP3 PUSH2 0x2A10 JUMP JUMPDEST SWAP2 PUSH2 0x2A45 PUSH1 0x40 MLOAD SWAP4 DUP5 PUSH2 0x27CB JUMP JUMPDEST DUP3 SWAP5 DUP2 DUP5 MSTORE DUP2 DUP4 ADD GT PUSH2 0xB76 JUMPI DUP3 DUP2 PUSH1 0x20 SWAP4 DUP5 PUSH0 SWAP7 ADD CALLDATACOPY ADD ADD MSTORE JUMP JUMPDEST SWAP1 DUP1 PUSH1 0x1F DUP4 ADD SLT ISZERO PUSH2 0xB76 JUMPI DUP2 PUSH1 0x20 PUSH2 0x2A7C SWAP4 CALLDATALOAD SWAP2 ADD PUSH2 0x2A2B JUMP JUMPDEST SWAP1 JUMP JUMPDEST PUSH1 0x40 SWAP1 PUSH1 0x3 NOT ADD SLT PUSH2 0xB76 JUMPI PUSH1 0x4 CALLDATALOAD SWAP1 PUSH1 0x24 CALLDATALOAD SWAP1 JUMP JUMPDEST PUSH1 0x24 CALLDATALOAD SWAP1 DUP2 ISZERO ISZERO DUP3 SUB PUSH2 0xB76 JUMPI JUMP JUMPDEST PUSH0 DUP2 DUP2 MSTORE PUSH1 0x2 PUSH1 0x20 MSTORE PUSH1 0x40 SWAP1 KECCAK256 SLOAD PUSH2 0x2AC6 SWAP1 PUSH1 0x1 PUSH1 0x1 PUSH1 0xA0 SHL SUB AND ISZERO ISZERO PUSH2 0x2C4D JUMP JUMPDEST PUSH0 SWAP1 DUP2 MSTORE PUSH1 0x4 PUSH1 0x20 MSTORE PUSH1 0x40 SWAP1 KECCAK256 SLOAD PUSH1 0x1 PUSH1 0x1 PUSH1 0xA0 SHL SUB AND SWAP1 JUMP JUMPDEST SWAP2 SWAP1 DUP3 ADD DUP1 SWAP3 GT PUSH2 0xDBF JUMPI JUMP JUMPDEST PUSH0 NOT DUP2 EQ PUSH2 0xDBF JUMPI PUSH1 0x1 ADD SWAP1 JUMP JUMPDEST PUSH1 0x1 PUSH1 0x1 PUSH1 0x40 SHL SUB DUP2 GT PUSH2 0xFA9 JUMPI PUSH1 0x5 SHL PUSH1 0x20 ADD SWAP1 JUMP JUMPDEST PUSH1 0x40 MLOAD SWAP1 PUSH2 0x2B1F DUP3 PUSH2 0x2766 JUMP JUMPDEST PUSH0 PUSH2 0x180 DUP4 PUSH1 0x60 DUP2 MSTORE PUSH1 0x60 PUSH1 0x20 DUP3 ADD MSTORE PUSH1 0x60 PUSH1 0x40 DUP3 ADD MSTORE DUP3 PUSH1 0x60 DUP3 ADD MSTORE DUP3 PUSH1 0x80 DUP3 ADD MSTORE DUP3 PUSH1 0xA0 DUP3 ADD MSTORE DUP3 PUSH1 0xC0 DUP3 ADD MSTORE DUP3 PUSH1 0xE0 DUP3 ADD MSTORE DUP3 PUSH2 0x100 DUP3 ADD MSTORE DUP3 PUSH2 0x120 DUP3 ADD MSTORE DUP3 PUSH2 0x140 DUP3 ADD MSTORE DUP3 PUSH2 0x160 DUP3 ADD MSTORE ADD MSTORE JUMP JUMPDEST SWAP1 PUSH2 0x2B7E DUP3 PUSH2 0x2AFB JUMP JUMPDEST PUSH2 0x2B8B PUSH1 0x40 MLOAD SWAP2 DUP3 PUSH2 0x27CB JUMP JUMPDEST DUP3 DUP2 MSTORE DUP1 SWAP3 PUSH2 0x2B9C PUSH1 0x1F NOT SWAP2 PUSH2 0x2AFB JUMP JUMPDEST ADD SWAP1 PUSH0 JUMPDEST DUP3 DUP2 LT PUSH2 0x2BAC JUMPI POP POP POP JUMP JUMPDEST PUSH1 0x20 SWAP1 PUSH2 0x2BB7 PUSH2 0x2B12 JUMP JUMPDEST DUP3 DUP3 DUP6 ADD ADD MSTORE ADD PUSH2 0x2BA0 JUMP JUMPDEST DUP1 MLOAD DUP3 LT ISZERO PUSH2 0x2BD7 JUMPI PUSH1 0x20 SWAP2 PUSH1 0x5 SHL ADD ADD SWAP1 JUMP JUMPDEST PUSH4 0x4E487B71 PUSH1 0xE0 SHL PUSH0 MSTORE PUSH1 0x32 PUSH1 0x4 MSTORE PUSH1 0x24 PUSH0 REVERT JUMPDEST ISZERO PUSH2 0x2BF2 JUMPI JUMP JUMPDEST PUSH1 0x40 MLOAD PUSH3 0x461BCD PUSH1 0xE5 SHL DUP2 MSTORE PUSH1 0x20 PUSH1 0x4 DUP3 ADD MSTORE PUSH1 0x2D PUSH1 0x24 DUP3 ADD MSTORE PUSH32 0x4552433732313A2063616C6C6572206973206E6F7420746F6B656E206F776E65 PUSH1 0x44 DUP3 ADD MSTORE PUSH13 0x1C881BDC88185C1C1C9BDD9959 PUSH1 0x9A SHL PUSH1 0x64 DUP3 ADD MSTORE PUSH1 0x84 SWAP1 REVERT JUMPDEST ISZERO PUSH2 0x2C54 JUMPI JUMP JUMPDEST PUSH1 0x40 MLOAD PUSH3 0x461BCD PUSH1 0xE5 SHL DUP2 MSTORE PUSH1 0x20 PUSH1 0x4 DUP3 ADD MSTORE PUSH1 0x18 PUSH1 0x24 DUP3 ADD MSTORE PUSH32 0x4552433732313A20696E76616C696420746F6B656E2049440000000000000000 PUSH1 0x44 DUP3 ADD MSTORE PUSH1 0x64 SWAP1 REVERT JUMPDEST PUSH0 SWAP1 DUP2 MSTORE PUSH1 0x2 PUSH1 0x20 MSTORE PUSH1 0x40 SWAP1 KECCAK256 SLOAD PUSH1 0x1 PUSH1 0x1 PUSH1 0xA0 SHL SUB AND PUSH2 0x2A7C DUP2 ISZERO ISZERO PUSH2 0x2C4D JUMP JUMPDEST ISZERO PUSH2 0x2CC2 JUMPI JUMP JUMPDEST PUSH1 0x40 MLOAD PUSH3 0x461BCD PUSH1 0xE5 SHL DUP2 MSTORE PUSH1 0x20 PUSH1 0x4 DUP3 ADD MSTORE PUSH1 0x13 PUSH1 0x24 DUP3 ADD MSTORE PUSH19 0x556E617574686F72697A656420656E74697479 PUSH1 0x68 SHL PUSH1 0x44 DUP3 ADD MSTORE PUSH1 0x64 SWAP1 REVERT JUMPDEST ISZERO PUSH2 0x2D04 JUMPI JUMP JUMPDEST PUSH1 0x40 MLOAD PUSH3 0x461BCD PUSH1 0xE5 SHL DUP2 MSTORE PUSH1 0x20 PUSH1 0x4 DUP3 ADD MSTORE PUSH1 0x13 PUSH1 0x24 DUP3 ADD MSTORE PUSH19 0x125B9CDD59999A58DA595B9D08105B5BDD5B9D PUSH1 0x6A SHL PUSH1 0x44 DUP3 ADD MSTORE PUSH1 0x64 SWAP1 REVERT JUMPDEST DUP1 SLOAD DUP3 LT ISZERO PUSH2 0x2BD7 JUMPI PUSH0 MSTORE PUSH1 0x20 PUSH0 KECCAK256 SWAP1 PUSH1 0x2 SHL ADD SWAP1 PUSH0 SWAP1 JUMP JUMPDEST DUP2 DUP2 MUL SWAP3 SWAP2 DUP2 ISZERO SWAP2 DUP5 DIV EQ OR ISZERO PUSH2 0xDBF JUMPI JUMP JUMPDEST PUSH2 0x2D75 SWAP1 TIMESTAMP PUSH2 0x2AE0 JUMP JUMPDEST SWAP1 DUP1 PUSH1 0x3C MUL SWAP1 PUSH1 0x3C DUP3 DIV SUB PUSH2 0xDBF JUMPI PUSH2 0x2D8D SWAP2 PUSH2 0x2AE0 JUMP JUMPDEST SWAP1 PUSH2 0xE10 SWAP1 DUP1 DUP3 MUL SWAP2 DUP3 DIV SUB PUSH2 0xDBF JUMPI PUSH2 0x2DA6 SWAP2 PUSH2 0x2AE0 JUMP JUMPDEST SWAP1 PUSH3 0x15180 SWAP1 DUP1 DUP3 MUL SWAP2 DUP3 DIV SUB PUSH2 0xDBF JUMPI PUSH2 0x2A7C SWAP2 PUSH2 0x2AE0 JUMP JUMPDEST SWAP1 PUSH2 0x2DE4 SWAP4 SWAP3 SWAP2 PUSH2 0x2DD4 PUSH2 0x2190 DUP5 CALLER PUSH2 0x2E15 JUMP JUMPDEST PUSH2 0x2DDF DUP4 DUP4 DUP4 PUSH2 0x2ED9 JUMP JUMPDEST PUSH2 0x312F JUMP JUMPDEST ISZERO PUSH2 0x2DEB JUMPI JUMP JUMPDEST PUSH1 0x40 MLOAD PUSH3 0x461BCD PUSH1 0xE5 SHL DUP2 MSTORE DUP1 PUSH2 0x2E04 PUSH1 0x4 DUP3 ADD PUSH2 0x3090 JUMP JUMPDEST SUB SWAP1 REVERT JUMPDEST SWAP2 SWAP1 DUP3 SUB SWAP2 DUP3 GT PUSH2 0xDBF JUMPI JUMP JUMPDEST SWAP1 PUSH1 0x1 PUSH1 0x1 PUSH1 0xA0 SHL SUB DUP1 DUP1 PUSH2 0x2E29 DUP5 PUSH2 0x2C99 JUMP JUMPDEST AND SWAP4 AND SWAP2 DUP4 DUP4 EQ SWAP4 DUP5 ISZERO PUSH2 0x2E5C JUMPI JUMPDEST POP DUP4 ISZERO PUSH2 0x2E46 JUMPI JUMPDEST POP POP POP SWAP1 JUMP JUMPDEST PUSH2 0x2E52 SWAP2 SWAP3 SWAP4 POP PUSH2 0x2AA4 JUMP JUMPDEST AND EQ PUSH0 DUP1 DUP1 PUSH2 0x2E40 JUMP JUMPDEST SWAP1 SWAP4 POP PUSH0 MSTORE PUSH1 0x5 PUSH1 0x20 MSTORE PUSH1 0x40 PUSH0 KECCAK256 DUP3 PUSH0 MSTORE PUSH1 0x20 MSTORE PUSH1 0xFF PUSH1 0x40 PUSH0 KECCAK256 SLOAD AND SWAP3 PUSH0 PUSH2 0x2E38 JUMP JUMPDEST ISZERO PUSH2 0x2E86 JUMPI JUMP JUMPDEST PUSH1 0x40 MLOAD PUSH3 0x461BCD PUSH1 0xE5 SHL DUP2 MSTORE PUSH1 0x20 PUSH1 0x4 DUP3 ADD MSTORE PUSH1 0x25 PUSH1 0x24 DUP3 ADD MSTORE PUSH32 0x4552433732313A207472616E736665722066726F6D20696E636F727265637420 PUSH1 0x44 DUP3 ADD MSTORE PUSH5 0x37BBB732B9 PUSH1 0xD9 SHL PUSH1 0x64 DUP3 ADD MSTORE PUSH1 0x84 SWAP1 REVERT JUMPDEST SWAP1 PUSH2 0x2F01 SWAP2 PUSH2 0x2EE7 DUP5 PUSH2 0x2C99 JUMP JUMPDEST PUSH1 0x1 PUSH1 0x1 PUSH1 0xA0 SHL SUB SWAP4 SWAP2 DUP5 AND SWAP3 DUP5 SWAP3 SWAP1 SWAP2 DUP4 AND DUP5 EQ PUSH2 0x2E7F JUMP JUMPDEST AND SWAP2 DUP3 ISZERO PUSH2 0x2F97 JUMPI DUP2 PUSH2 0x2F1E SWAP2 PUSH2 0x2F17 DUP7 PUSH2 0x2C99 JUMP JUMPDEST AND EQ PUSH2 0x2E7F JUMP JUMPDEST DUP3 PUSH0 MSTORE PUSH1 0x4 PUSH1 0x20 MSTORE PUSH1 0x40 PUSH0 KECCAK256 PUSH1 0x1 PUSH1 0x1 PUSH1 0x60 SHL SUB PUSH1 0xA0 SHL SWAP1 DUP2 DUP2 SLOAD AND SWAP1 SSTORE DUP2 PUSH0 MSTORE PUSH1 0x3 PUSH1 0x20 MSTORE PUSH1 0x40 PUSH0 KECCAK256 PUSH0 NOT DUP2 SLOAD ADD SWAP1 SSTORE DUP3 PUSH0 MSTORE PUSH1 0x40 PUSH0 KECCAK256 PUSH1 0x1 DUP2 SLOAD ADD SWAP1 SSTORE DUP4 PUSH0 MSTORE PUSH1 0x2 PUSH1 0x20 MSTORE DUP3 PUSH1 0x40 PUSH0 KECCAK256 SWAP2 DUP3 SLOAD AND OR SWAP1 SSTORE PUSH32 0xDDF252AD1BE2C89B69C2B068FC378DAA952BA7F163C4A11628F55A4DF523B3EF PUSH0 DUP1 LOG4 JUMP JUMPDEST PUSH1 0x40 MLOAD PUSH3 0x461BCD PUSH1 0xE5 SHL DUP2 MSTORE PUSH1 0x20 PUSH1 0x4 DUP3 ADD MSTORE PUSH1 0x24 DUP1 DUP3 ADD MSTORE PUSH32 0x4552433732313A207472616E7366657220746F20746865207A65726F20616464 PUSH1 0x44 DUP3 ADD MSTORE PUSH4 0x72657373 PUSH1 0xE0 SHL PUSH1 0x64 DUP3 ADD MSTORE PUSH1 0x84 SWAP1 REVERT JUMPDEST PUSH1 0x2 PUSH1 0x7 SLOAD EQ PUSH2 0x2FF9 JUMPI PUSH1 0x2 PUSH1 0x7 SSTORE JUMP JUMPDEST PUSH1 0x40 MLOAD PUSH3 0x461BCD PUSH1 0xE5 SHL DUP2 MSTORE PUSH1 0x20 PUSH1 0x4 DUP3 ADD MSTORE PUSH1 0x1F PUSH1 0x24 DUP3 ADD MSTORE PUSH32 0x5265656E7472616E637947756172643A207265656E7472616E742063616C6C00 PUSH1 0x44 DUP3 ADD MSTORE PUSH1 0x64 SWAP1 REVERT JUMPDEST RETURNDATASIZE ISZERO PUSH2 0x3068 JUMPI RETURNDATASIZE SWAP1 PUSH2 0x304F DUP3 PUSH2 0x2A10 JUMP JUMPDEST SWAP2 PUSH2 0x305D PUSH1 0x40 MLOAD SWAP4 DUP5 PUSH2 0x27CB JUMP JUMPDEST DUP3 MSTORE RETURNDATASIZE PUSH0 PUSH1 0x20 DUP5 ADD RETURNDATACOPY JUMP JUMPDEST PUSH1 0x60 SWAP1 JUMP JUMPDEST PUSH0 SWAP2 DUP3 SWAP2 DUP3 SWAP2 DUP3 SWAP2 PUSH1 0x1 PUSH1 0x1 PUSH1 0xA0 SHL SUB AND GAS CALL PUSH2 0x3088 PUSH2 0x303E JUMP JUMPDEST POP ISZERO PUSH2 0xB76 JUMPI JUMP JUMPDEST PUSH1 0x80 SWAP1 PUSH1 0x20 DUP2 MSTORE PUSH1 0x32 PUSH1 0x20 DUP3 ADD MSTORE PUSH32 0x4552433732313A207472616E7366657220746F206E6F6E204552433732315265 PUSH1 0x40 DUP3 ADD MSTORE PUSH18 0x31B2B4BB32B91034B6B83632B6B2B73A32B9 PUSH1 0x71 SHL PUSH1 0x60 DUP3 ADD MSTORE ADD SWAP1 JUMP JUMPDEST ISZERO PUSH2 0x30EA JUMPI JUMP JUMPDEST PUSH1 0x40 MLOAD PUSH3 0x461BCD PUSH1 0xE5 SHL DUP2 MSTORE PUSH1 0x20 PUSH1 0x4 DUP3 ADD MSTORE PUSH1 0x1C PUSH1 0x24 DUP3 ADD MSTORE PUSH32 0x4552433732313A20746F6B656E20616C7265616479206D696E74656400000000 PUSH1 0x44 DUP3 ADD MSTORE PUSH1 0x64 SWAP1 REVERT JUMPDEST SWAP3 SWAP1 SWAP2 SWAP1 DUP3 EXTCODESIZE ISZERO PUSH2 0x3214 JUMPI PUSH2 0x3181 SWAP3 PUSH1 0x20 SWAP3 PUSH0 PUSH1 0x1 DUP1 PUSH1 0xA0 SHL SUB PUSH1 0x40 MLOAD DUP1 SWAP8 DUP2 SWAP7 DUP3 SWAP6 DUP5 PUSH4 0xA85BD01 PUSH1 0xE1 SHL SWAP13 DUP14 DUP7 MSTORE CALLER PUSH1 0x4 DUP8 ADD MSTORE AND PUSH1 0x24 DUP6 ADD MSTORE PUSH1 0x44 DUP5 ADD MSTORE PUSH1 0x80 PUSH1 0x64 DUP5 ADD MSTORE PUSH1 0x84 DUP4 ADD SWAP1 PUSH2 0x26F0 JUMP JUMPDEST SUB SWAP4 AND GAS CALL PUSH0 SWAP2 DUP2 PUSH2 0x31CF JUMPI JUMPDEST POP PUSH2 0x31C1 JUMPI PUSH2 0x319B PUSH2 0x303E JUMP JUMPDEST DUP1 MLOAD SWAP1 DUP2 PUSH2 0x31BC JUMPI PUSH1 0x40 MLOAD PUSH3 0x461BCD PUSH1 0xE5 SHL DUP2 MSTORE DUP1 PUSH2 0x2E04 PUSH1 0x4 DUP3 ADD PUSH2 0x3090 JUMP JUMPDEST PUSH1 0x20 ADD REVERT JUMPDEST PUSH1 0x1 PUSH1 0x1 PUSH1 0xE0 SHL SUB NOT AND EQ SWAP1 JUMP JUMPDEST SWAP1 SWAP2 POP PUSH1 0x20 DUP2 RETURNDATASIZE PUSH1 0x20 GT PUSH2 0x320C JUMPI JUMPDEST DUP2 PUSH2 0x31EB PUSH1 0x20 SWAP4 DUP4 PUSH2 0x27CB JUMP JUMPDEST DUP2 ADD SUB SLT PUSH2 0xB76 JUMPI MLOAD PUSH1 0x1 PUSH1 0x1 PUSH1 0xE0 SHL SUB NOT DUP2 AND DUP2 SUB PUSH2 0xB76 JUMPI SWAP1 PUSH0 PUSH2 0x318E JUMP JUMPDEST RETURNDATASIZE SWAP2 POP PUSH2 0x31DE JUMP JUMPDEST POP POP POP POP PUSH1 0x1 SWAP1 JUMP INVALID LOG2 PUSH5 0x6970667358 0x22 SLT KECCAK256 0xCD RETURNDATACOPY DUP5 0xE0 CHAINID SWAP1 0xB8 LOG1 0xC0 0xB2 0xD1 PUSH25 0xA001D2727A4F0BF7A2B9BFD862988DBB1945242E64736F6C63 NUMBER STOP ADDMOD XOR STOP CALLER "},"methodIdentifiers":{"approve(address,uint256)":"095ea7b3","auctionedItem(uint256)":"08c41169","balanceOf(address)":"70a08231","buyAuctionedItem(uint256)":"f5a06acf","changePrice(uint256,uint256)":"b3de019c","claimPrize(uint256,uint256)":"7b154140","createAuction(string,string,string,string,uint256)":"33748dcb","getAllAuctions()":"cbd2bdfd","getApproved(uint256)":"081812fc","getAuction(uint256)":"78bd7935","getBidders(uint256)":"4fa7b507","getListingPrice()":"12e85585","getLiveAuctions()":"db0bd5c9","getMyAuctions()":"bf65a333","getSoldAuction()":"1d8df68f","getTimeSTamp(uint256,uint256,uint256,uint256)":"9ab4a00e","getUnsoldAuction()":"9e78efd6","isApprovedForAll(address,address)":"e985e9c5","name()":"06fdde03","offerAuction(uint256,bool,uint256,uint256,uint256,uint256)":"a923f18c","ownerOf(uint256)":"6352211e","placeBid(uint256)":"9979ef45","safeTransferFrom(address,address,uint256)":"42842e0e","safeTransferFrom(address,address,uint256,bytes)":"b88d4fde","setApprovalForAll(address,bool)":"a22cb465","setListingPrice(uint256)":"7c726b69","supportsInterface(bytes4)":"01ffc9a7","symbol()":"95d89b41","tokenURI(uint256)":"c87b56dd","transferFrom(address,address,uint256)":"23b872dd"}}}}}